{
	"contracts/Simple_Storage.sol": {
		"SimpleStorage": {
			"abi": [
				{
					"inputs": [],
					"stateMutability": "nonpayable",
					"type": "constructor"
				},
				{
					"anonymous": false,
					"inputs": [
						{
							"indexed": true,
							"internalType": "address",
							"name": "sender",
							"type": "address"
						},
						{
							"indexed": false,
							"internalType": "string",
							"name": "_message",
							"type": "string"
						}
					],
					"name": "MessageStored",
					"type": "event"
				},
				{
					"anonymous": false,
					"inputs": [
						{
							"indexed": true,
							"internalType": "address",
							"name": "sender",
							"type": "address"
						},
						{
							"indexed": false,
							"internalType": "uint256",
							"name": "_number",
							"type": "uint256"
						}
					],
					"name": "NumberStored",
					"type": "event"
				},
				{
					"inputs": [],
					"name": "getMessage",
					"outputs": [
						{
							"internalType": "string",
							"name": "",
							"type": "string"
						}
					],
					"stateMutability": "view",
					"type": "function"
				},
				{
					"inputs": [],
					"name": "getNum",
					"outputs": [
						{
							"internalType": "uint256",
							"name": "",
							"type": "uint256"
						}
					],
					"stateMutability": "view",
					"type": "function"
				},
				{
					"inputs": [],
					"name": "getVisitors",
					"outputs": [
						{
							"internalType": "address[]",
							"name": "",
							"type": "address[]"
						}
					],
					"stateMutability": "view",
					"type": "function"
				},
				{
					"inputs": [],
					"name": "leaveFootprint",
					"outputs": [],
					"stateMutability": "nonpayable",
					"type": "function"
				},
				{
					"inputs": [],
					"name": "message",
					"outputs": [
						{
							"internalType": "string",
							"name": "",
							"type": "string"
						}
					],
					"stateMutability": "view",
					"type": "function"
				},
				{
					"inputs": [],
					"name": "number",
					"outputs": [
						{
							"internalType": "uint256",
							"name": "",
							"type": "uint256"
						}
					],
					"stateMutability": "view",
					"type": "function"
				},
				{
					"inputs": [],
					"name": "owner",
					"outputs": [
						{
							"internalType": "address",
							"name": "",
							"type": "address"
						}
					],
					"stateMutability": "view",
					"type": "function"
				},
				{
					"inputs": [
						{
							"internalType": "string",
							"name": "_message",
							"type": "string"
						}
					],
					"name": "setMessage",
					"outputs": [],
					"stateMutability": "nonpayable",
					"type": "function"
				},
				{
					"inputs": [
						{
							"internalType": "uint256",
							"name": "_number",
							"type": "uint256"
						}
					],
					"name": "setNum",
					"outputs": [],
					"stateMutability": "nonpayable",
					"type": "function"
				},
				{
					"inputs": [
						{
							"internalType": "uint256",
							"name": "",
							"type": "uint256"
						}
					],
					"name": "visitor",
					"outputs": [
						{
							"internalType": "address",
							"name": "",
							"type": "address"
						}
					],
					"stateMutability": "view",
					"type": "function"
				}
			],
			"devdoc": {
				"kind": "dev",
				"methods": {},
				"version": 1
			},
			"evm": {
				"assembly": "    /* \"contracts/Simple_Storage.sol\":60:1776  contract SimpleStorage {... */\n  mstore(0x40, 0x80)\n    /* \"contracts/Simple_Storage.sol\":490:541  constructor() {... */\n  callvalue\n  dup1\n  iszero\n  tag_1\n  jumpi\n  0x00\n  dup1\n  revert\ntag_1:\n  pop\n    /* \"contracts/Simple_Storage.sol\":523:533  msg.sender */\n  caller\n    /* \"contracts/Simple_Storage.sol\":515:520  owner */\n  0x02\n  0x00\n    /* \"contracts/Simple_Storage.sol\":515:533  owner = msg.sender */\n  0x0100\n  exp\n  dup2\n  sload\n  dup2\n  0xffffffffffffffffffffffffffffffffffffffff\n  mul\n  not\n  and\n  swap1\n  dup4\n  0xffffffffffffffffffffffffffffffffffffffff\n  and\n  mul\n  or\n  swap1\n  sstore\n  pop\n    /* \"contracts/Simple_Storage.sol\":60:1776  contract SimpleStorage {... */\n  dataSize(sub_0)\n  dup1\n  dataOffset(sub_0)\n  0x00\n  codecopy\n  0x00\n  return\nstop\n\nsub_0: assembly {\n        /* \"contracts/Simple_Storage.sol\":60:1776  contract SimpleStorage {... */\n      mstore(0x40, 0x80)\n      callvalue\n      dup1\n      iszero\n      tag_1\n      jumpi\n      0x00\n      dup1\n      revert\n    tag_1:\n      pop\n      jumpi(tag_2, lt(calldatasize, 0x04))\n      shr(0xe0, calldataload(0x00))\n      dup1\n      0x8da5cb5b\n      gt\n      tag_13\n      jumpi\n      dup1\n      0x8da5cb5b\n      eq\n      tag_8\n      jumpi\n      dup1\n      0x955ada63\n      eq\n      tag_9\n      jumpi\n      dup1\n      0xcd16ecbf\n      eq\n      tag_10\n      jumpi\n      dup1\n      0xce6d41de\n      eq\n      tag_11\n      jumpi\n      dup1\n      0xe21f37ce\n      eq\n      tag_12\n      jumpi\n      jump(tag_2)\n    tag_13:\n      dup1\n      0x368b8772\n      eq\n      tag_3\n      jumpi\n      dup1\n      0x37be359b\n      eq\n      tag_4\n      jumpi\n      dup1\n      0x63180e37\n      eq\n      tag_5\n      jumpi\n      dup1\n      0x67e0badb\n      eq\n      tag_6\n      jumpi\n      dup1\n      0x8381f58a\n      eq\n      tag_7\n      jumpi\n    tag_2:\n      0x00\n      dup1\n      revert\n        /* \"contracts/Simple_Storage.sol\":941:1090  function setMessage(string memory _message) public OnlyOwner {... */\n    tag_3:\n      tag_14\n      0x04\n      dup1\n      calldatasize\n      sub\n      dup2\n      add\n      swap1\n      tag_15\n      swap2\n      swap1\n      tag_16\n      jump\t// in\n    tag_15:\n      tag_17\n      jump\t// in\n    tag_14:\n      stop\n        /* \"contracts/Simple_Storage.sol\":1410:1635  function leaveFootprint() public {... */\n    tag_4:\n      tag_18\n      tag_19\n      jump\t// in\n    tag_18:\n      stop\n        /* \"contracts/Simple_Storage.sol\":1676:1771  function getVisitors() public view returns (address[] memory) {... */\n    tag_5:\n      tag_20\n      tag_21\n      jump\t// in\n    tag_20:\n      mload(0x40)\n      tag_22\n      swap2\n      swap1\n      tag_23\n      jump\t// in\n    tag_22:\n      mload(0x40)\n      dup1\n      swap2\n      sub\n      swap1\n      return\n        /* \"contracts/Simple_Storage.sol\":1136:1214  function getNum() public view returns(uint256){... */\n    tag_6:\n      tag_24\n      tag_25\n      jump\t// in\n    tag_24:\n      mload(0x40)\n      tag_26\n      swap2\n      swap1\n      tag_27\n      jump\t// in\n    tag_26:\n      mload(0x40)\n      dup1\n      swap2\n      sub\n      swap1\n      return\n        /* \"contracts/Simple_Storage.sol\":123:144  uint256 public number */\n    tag_7:\n      tag_28\n      tag_29\n      jump\t// in\n    tag_28:\n      mload(0x40)\n      tag_30\n      swap2\n      swap1\n      tag_27\n      jump\t// in\n    tag_30:\n      mload(0x40)\n      dup1\n      swap2\n      sub\n      swap1\n      return\n        /* \"contracts/Simple_Storage.sol\":179:199  address public owner */\n    tag_8:\n      tag_31\n      tag_32\n      jump\t// in\n    tag_31:\n      mload(0x40)\n      tag_33\n      swap2\n      swap1\n      tag_34\n      jump\t// in\n    tag_33:\n      mload(0x40)\n      dup1\n      swap2\n      sub\n      swap1\n      return\n        /* \"contracts/Simple_Storage.sol\":206:230  address[] public visitor */\n    tag_9:\n      tag_35\n      0x04\n      dup1\n      calldatasize\n      sub\n      dup2\n      add\n      swap1\n      tag_36\n      swap2\n      swap1\n      tag_37\n      jump\t// in\n    tag_36:\n      tag_38\n      jump\t// in\n    tag_35:\n      mload(0x40)\n      tag_39\n      swap2\n      swap1\n      tag_34\n      jump\t// in\n    tag_39:\n      mload(0x40)\n      dup1\n      swap2\n      sub\n      swap1\n      return\n        /* \"contracts/Simple_Storage.sol\":762:896  function setNum(uint256 _number) public OnlyOwner {... */\n    tag_10:\n      tag_40\n      0x04\n      dup1\n      calldatasize\n      sub\n      dup2\n      add\n      swap1\n      tag_41\n      swap2\n      swap1\n      tag_37\n      jump\t// in\n    tag_41:\n      tag_42\n      jump\t// in\n    tag_40:\n      stop\n        /* \"contracts/Simple_Storage.sol\":1259:1348  function getMessage() public view returns(string memory){... */\n    tag_11:\n      tag_43\n      tag_44\n      jump\t// in\n    tag_43:\n      mload(0x40)\n      tag_45\n      swap2\n      swap1\n      tag_46\n      jump\t// in\n    tag_45:\n      mload(0x40)\n      dup1\n      swap2\n      sub\n      swap1\n      return\n        /* \"contracts/Simple_Storage.sol\":151:172  string public message */\n    tag_12:\n      tag_47\n      tag_48\n      jump\t// in\n    tag_47:\n      mload(0x40)\n      tag_49\n      swap2\n      swap1\n      tag_46\n      jump\t// in\n    tag_49:\n      mload(0x40)\n      dup1\n      swap2\n      sub\n      swap1\n      return\n        /* \"contracts/Simple_Storage.sol\":941:1090  function setMessage(string memory _message) public OnlyOwner {... */\n    tag_17:\n        /* \"contracts/Simple_Storage.sol\":667:672  owner */\n      0x02\n      0x00\n      swap1\n      sload\n      swap1\n      0x0100\n      exp\n      swap1\n      div\n      0xffffffffffffffffffffffffffffffffffffffff\n      and\n        /* \"contracts/Simple_Storage.sol\":653:672  msg.sender == owner */\n      0xffffffffffffffffffffffffffffffffffffffff\n      and\n        /* \"contracts/Simple_Storage.sol\":653:663  msg.sender */\n      caller\n        /* \"contracts/Simple_Storage.sol\":653:672  msg.sender == owner */\n      0xffffffffffffffffffffffffffffffffffffffff\n      and\n      eq\n        /* \"contracts/Simple_Storage.sol\":645:698  require(msg.sender == owner, \"You are not the owner\") */\n      tag_51\n      jumpi\n      mload(0x40)\n      0x08c379a000000000000000000000000000000000000000000000000000000000\n      dup2\n      mstore\n      0x04\n      add\n      tag_52\n      swap1\n      tag_53\n      jump\t// in\n    tag_52:\n      mload(0x40)\n      dup1\n      swap2\n      sub\n      swap1\n      revert\n    tag_51:\n        /* \"contracts/Simple_Storage.sol\":1023:1031  _message */\n      dup1\n        /* \"contracts/Simple_Storage.sol\":1013:1020  message */\n      0x01\n        /* \"contracts/Simple_Storage.sol\":1013:1031  message = _message */\n      swap1\n      dup2\n      tag_55\n      swap2\n      swap1\n      tag_56\n      jump\t// in\n    tag_55:\n      pop\n        /* \"contracts/Simple_Storage.sol\":1061:1071  msg.sender */\n      caller\n        /* \"contracts/Simple_Storage.sol\":1047:1082  MessageStored(msg.sender, _message) */\n      0xffffffffffffffffffffffffffffffffffffffff\n      and\n      0xc3c5e7649f21b5b486d54682c6fd9bb40c3fa82d872beac86e926d70f9a8df4b\n        /* \"contracts/Simple_Storage.sol\":1073:1081  _message */\n      dup3\n        /* \"contracts/Simple_Storage.sol\":1047:1082  MessageStored(msg.sender, _message) */\n      mload(0x40)\n      tag_57\n      swap2\n      swap1\n      tag_46\n      jump\t// in\n    tag_57:\n      mload(0x40)\n      dup1\n      swap2\n      sub\n      swap1\n      log2\n        /* \"contracts/Simple_Storage.sol\":941:1090  function setMessage(string memory _message) public OnlyOwner {... */\n      pop\n      jump\t// out\n        /* \"contracts/Simple_Storage.sol\":1410:1635  function leaveFootprint() public {... */\n    tag_19:\n        /* \"contracts/Simple_Storage.sol\":1459:1465  uint i */\n      0x00\n        /* \"contracts/Simple_Storage.sol\":1454:1593  for (uint i = 0; i < visitor.length; i++) {... */\n    tag_59:\n        /* \"contracts/Simple_Storage.sol\":1475:1482  visitor */\n      0x03\n        /* \"contracts/Simple_Storage.sol\":1475:1489  visitor.length */\n      dup1\n      sload\n      swap1\n      pop\n        /* \"contracts/Simple_Storage.sol\":1471:1472  i */\n      dup2\n        /* \"contracts/Simple_Storage.sol\":1471:1489  i < visitor.length */\n      lt\n        /* \"contracts/Simple_Storage.sol\":1454:1593  for (uint i = 0; i < visitor.length; i++) {... */\n      iszero\n      tag_60\n      jumpi\n        /* \"contracts/Simple_Storage.sol\":1529:1539  msg.sender */\n      caller\n        /* \"contracts/Simple_Storage.sol\":1515:1539  visitor[i] == msg.sender */\n      0xffffffffffffffffffffffffffffffffffffffff\n      and\n        /* \"contracts/Simple_Storage.sol\":1515:1522  visitor */\n      0x03\n        /* \"contracts/Simple_Storage.sol\":1523:1524  i */\n      dup3\n        /* \"contracts/Simple_Storage.sol\":1515:1525  visitor[i] */\n      dup2\n      sload\n      dup2\n      lt\n      tag_62\n      jumpi\n      tag_63\n      tag_64\n      jump\t// in\n    tag_63:\n    tag_62:\n      swap1\n      0x00\n      mstore\n      keccak256(0x00, 0x20)\n      add\n      0x00\n      swap1\n      sload\n      swap1\n      0x0100\n      exp\n      swap1\n      div\n      0xffffffffffffffffffffffffffffffffffffffff\n      and\n        /* \"contracts/Simple_Storage.sol\":1515:1539  visitor[i] == msg.sender */\n      0xffffffffffffffffffffffffffffffffffffffff\n      and\n      sub\n        /* \"contracts/Simple_Storage.sol\":1511:1582  if (visitor[i] == msg.sender) {... */\n      tag_66\n      jumpi\n        /* \"contracts/Simple_Storage.sol\":1560:1567  return; */\n      pop\n      jump(tag_58)\n        /* \"contracts/Simple_Storage.sol\":1511:1582  if (visitor[i] == msg.sender) {... */\n    tag_66:\n        /* \"contracts/Simple_Storage.sol\":1491:1494  i++ */\n      dup1\n      dup1\n      0x01\n      add\n      swap2\n      pop\n      pop\n        /* \"contracts/Simple_Storage.sol\":1454:1593  for (uint i = 0; i < visitor.length; i++) {... */\n      jump(tag_59)\n    tag_60:\n      pop\n        /* \"contracts/Simple_Storage.sol\":1603:1610  visitor */\n      0x03\n        /* \"contracts/Simple_Storage.sol\":1616:1626  msg.sender */\n      caller\n        /* \"contracts/Simple_Storage.sol\":1603:1627  visitor.push(msg.sender) */\n      swap1\n      dup1\n      0x01\n      dup2\n      sload\n      add\n      dup1\n      dup3\n      sstore\n      dup1\n      swap2\n      pop\n      pop\n      0x01\n      swap1\n      sub\n      swap1\n      0x00\n      mstore\n      keccak256(0x00, 0x20)\n      add\n      0x00\n      swap1\n      swap2\n      swap1\n      swap2\n      swap1\n      swap2\n      0x0100\n      exp\n      dup2\n      sload\n      dup2\n      0xffffffffffffffffffffffffffffffffffffffff\n      mul\n      not\n      and\n      swap1\n      dup4\n      0xffffffffffffffffffffffffffffffffffffffff\n      and\n      mul\n      or\n      swap1\n      sstore\n      pop\n        /* \"contracts/Simple_Storage.sol\":1410:1635  function leaveFootprint() public {... */\n    tag_58:\n      jump\t// out\n        /* \"contracts/Simple_Storage.sol\":1676:1771  function getVisitors() public view returns (address[] memory) {... */\n    tag_21:\n        /* \"contracts/Simple_Storage.sol\":1720:1736  address[] memory */\n      0x60\n        /* \"contracts/Simple_Storage.sol\":1756:1763  visitor */\n      0x03\n        /* \"contracts/Simple_Storage.sol\":1749:1763  return visitor */\n      dup1\n      sload\n      dup1\n      0x20\n      mul\n      0x20\n      add\n      mload(0x40)\n      swap1\n      dup2\n      add\n      0x40\n      mstore\n      dup1\n      swap3\n      swap2\n      swap1\n      dup2\n      dup2\n      mstore\n      0x20\n      add\n      dup3\n      dup1\n      sload\n      dup1\n      iszero\n      tag_69\n      jumpi\n      0x20\n      mul\n      dup3\n      add\n      swap2\n      swap1\n      0x00\n      mstore\n      keccak256(0x00, 0x20)\n      swap1\n    tag_70:\n      dup2\n      0x00\n      swap1\n      sload\n      swap1\n      0x0100\n      exp\n      swap1\n      div\n      0xffffffffffffffffffffffffffffffffffffffff\n      and\n      0xffffffffffffffffffffffffffffffffffffffff\n      and\n      dup2\n      mstore\n      0x20\n      add\n      swap1\n      0x01\n      add\n      swap1\n      dup1\n      dup4\n      gt\n      tag_70\n      jumpi\n    tag_69:\n      pop\n      pop\n      pop\n      pop\n      pop\n      swap1\n      pop\n        /* \"contracts/Simple_Storage.sol\":1676:1771  function getVisitors() public view returns (address[] memory) {... */\n      swap1\n      jump\t// out\n        /* \"contracts/Simple_Storage.sol\":1136:1214  function getNum() public view returns(uint256){... */\n    tag_25:\n        /* \"contracts/Simple_Storage.sol\":1174:1181  uint256 */\n      0x00\n        /* \"contracts/Simple_Storage.sol\":1200:1206  number */\n      dup1\n      sload\n        /* \"contracts/Simple_Storage.sol\":1193:1206  return number */\n      swap1\n      pop\n        /* \"contracts/Simple_Storage.sol\":1136:1214  function getNum() public view returns(uint256){... */\n      swap1\n      jump\t// out\n        /* \"contracts/Simple_Storage.sol\":123:144  uint256 public number */\n    tag_29:\n      sload(0x00)\n      dup2\n      jump\t// out\n        /* \"contracts/Simple_Storage.sol\":179:199  address public owner */\n    tag_32:\n      0x02\n      0x00\n      swap1\n      sload\n      swap1\n      0x0100\n      exp\n      swap1\n      div\n      0xffffffffffffffffffffffffffffffffffffffff\n      and\n      dup2\n      jump\t// out\n        /* \"contracts/Simple_Storage.sol\":206:230  address[] public visitor */\n    tag_38:\n      0x03\n      dup2\n      dup2\n      sload\n      dup2\n      lt\n      tag_72\n      jumpi\n      0x00\n      dup1\n      revert\n    tag_72:\n      swap1\n      0x00\n      mstore\n      keccak256(0x00, 0x20)\n      add\n      0x00\n      swap2\n      pop\n      sload\n      swap1\n      0x0100\n      exp\n      swap1\n      div\n      0xffffffffffffffffffffffffffffffffffffffff\n      and\n      dup2\n      jump\t// out\n        /* \"contracts/Simple_Storage.sol\":762:896  function setNum(uint256 _number) public OnlyOwner {... */\n    tag_42:\n        /* \"contracts/Simple_Storage.sol\":667:672  owner */\n      0x02\n      0x00\n      swap1\n      sload\n      swap1\n      0x0100\n      exp\n      swap1\n      div\n      0xffffffffffffffffffffffffffffffffffffffff\n      and\n        /* \"contracts/Simple_Storage.sol\":653:672  msg.sender == owner */\n      0xffffffffffffffffffffffffffffffffffffffff\n      and\n        /* \"contracts/Simple_Storage.sol\":653:663  msg.sender */\n      caller\n        /* \"contracts/Simple_Storage.sol\":653:672  msg.sender == owner */\n      0xffffffffffffffffffffffffffffffffffffffff\n      and\n      eq\n        /* \"contracts/Simple_Storage.sol\":645:698  require(msg.sender == owner, \"You are not the owner\") */\n      tag_75\n      jumpi\n      mload(0x40)\n      0x08c379a000000000000000000000000000000000000000000000000000000000\n      dup2\n      mstore\n      0x04\n      add\n      tag_76\n      swap1\n      tag_53\n      jump\t// in\n    tag_76:\n      mload(0x40)\n      dup1\n      swap2\n      sub\n      swap1\n      revert\n    tag_75:\n        /* \"contracts/Simple_Storage.sol\":832:839  _number */\n      dup1\n        /* \"contracts/Simple_Storage.sol\":823:829  number */\n      0x00\n        /* \"contracts/Simple_Storage.sol\":823:839  number = _number */\n      dup2\n      swap1\n      sstore\n      pop\n        /* \"contracts/Simple_Storage.sol\":868:878  msg.sender */\n      caller\n        /* \"contracts/Simple_Storage.sol\":855:888  NumberStored(msg.sender, _number) */\n      0xffffffffffffffffffffffffffffffffffffffff\n      and\n      0xed65cf72675c57660e67b5e615ec8981e01e5deebce7713b9ee2a1c991e5eb26\n        /* \"contracts/Simple_Storage.sol\":880:887  _number */\n      dup3\n        /* \"contracts/Simple_Storage.sol\":855:888  NumberStored(msg.sender, _number) */\n      mload(0x40)\n      tag_78\n      swap2\n      swap1\n      tag_27\n      jump\t// in\n    tag_78:\n      mload(0x40)\n      dup1\n      swap2\n      sub\n      swap1\n      log2\n        /* \"contracts/Simple_Storage.sol\":762:896  function setNum(uint256 _number) public OnlyOwner {... */\n      pop\n      jump\t// out\n        /* \"contracts/Simple_Storage.sol\":1259:1348  function getMessage() public view returns(string memory){... */\n    tag_44:\n        /* \"contracts/Simple_Storage.sol\":1301:1314  string memory */\n      0x60\n        /* \"contracts/Simple_Storage.sol\":1333:1340  message */\n      0x01\n        /* \"contracts/Simple_Storage.sol\":1326:1340  return message */\n      dup1\n      sload\n      tag_80\n      swap1\n      tag_81\n      jump\t// in\n    tag_80:\n      dup1\n      0x1f\n      add\n      0x20\n      dup1\n      swap2\n      div\n      mul\n      0x20\n      add\n      mload(0x40)\n      swap1\n      dup2\n      add\n      0x40\n      mstore\n      dup1\n      swap3\n      swap2\n      swap1\n      dup2\n      dup2\n      mstore\n      0x20\n      add\n      dup3\n      dup1\n      sload\n      tag_82\n      swap1\n      tag_81\n      jump\t// in\n    tag_82:\n      dup1\n      iszero\n      tag_83\n      jumpi\n      dup1\n      0x1f\n      lt\n      tag_84\n      jumpi\n      0x0100\n      dup1\n      dup4\n      sload\n      div\n      mul\n      dup4\n      mstore\n      swap2\n      0x20\n      add\n      swap2\n      jump(tag_83)\n    tag_84:\n      dup3\n      add\n      swap2\n      swap1\n      0x00\n      mstore\n      keccak256(0x00, 0x20)\n      swap1\n    tag_85:\n      dup2\n      sload\n      dup2\n      mstore\n      swap1\n      0x01\n      add\n      swap1\n      0x20\n      add\n      dup1\n      dup4\n      gt\n      tag_85\n      jumpi\n      dup3\n      swap1\n      sub\n      0x1f\n      and\n      dup3\n      add\n      swap2\n    tag_83:\n      pop\n      pop\n      pop\n      pop\n      pop\n      swap1\n      pop\n        /* \"contracts/Simple_Storage.sol\":1259:1348  function getMessage() public view returns(string memory){... */\n      swap1\n      jump\t// out\n        /* \"contracts/Simple_Storage.sol\":151:172  string public message */\n    tag_48:\n      0x01\n      dup1\n      sload\n      tag_86\n      swap1\n      tag_81\n      jump\t// in\n    tag_86:\n      dup1\n      0x1f\n      add\n      0x20\n      dup1\n      swap2\n      div\n      mul\n      0x20\n      add\n      mload(0x40)\n      swap1\n      dup2\n      add\n      0x40\n      mstore\n      dup1\n      swap3\n      swap2\n      swap1\n      dup2\n      dup2\n      mstore\n      0x20\n      add\n      dup3\n      dup1\n      sload\n      tag_87\n      swap1\n      tag_81\n      jump\t// in\n    tag_87:\n      dup1\n      iszero\n      tag_88\n      jumpi\n      dup1\n      0x1f\n      lt\n      tag_89\n      jumpi\n      0x0100\n      dup1\n      dup4\n      sload\n      div\n      mul\n      dup4\n      mstore\n      swap2\n      0x20\n      add\n      swap2\n      jump(tag_88)\n    tag_89:\n      dup3\n      add\n      swap2\n      swap1\n      0x00\n      mstore\n      keccak256(0x00, 0x20)\n      swap1\n    tag_90:\n      dup2\n      sload\n      dup2\n      mstore\n      swap1\n      0x01\n      add\n      swap1\n      0x20\n      add\n      dup1\n      dup4\n      gt\n      tag_90\n      jumpi\n      dup3\n      swap1\n      sub\n      0x1f\n      and\n      dup3\n      add\n      swap2\n    tag_88:\n      pop\n      pop\n      pop\n      pop\n      pop\n      dup2\n      jump\t// out\n        /* \"#utility.yul\":7:82   */\n    tag_91:\n        /* \"#utility.yul\":40:46   */\n      0x00\n        /* \"#utility.yul\":73:75   */\n      0x40\n        /* \"#utility.yul\":67:76   */\n      mload\n        /* \"#utility.yul\":57:76   */\n      swap1\n      pop\n        /* \"#utility.yul\":7:82   */\n      swap1\n      jump\t// out\n        /* \"#utility.yul\":88:205   */\n    tag_92:\n        /* \"#utility.yul\":197:198   */\n      0x00\n        /* \"#utility.yul\":194:195   */\n      dup1\n        /* \"#utility.yul\":187:199   */\n      revert\n        /* \"#utility.yul\":211:328   */\n    tag_93:\n        /* \"#utility.yul\":320:321   */\n      0x00\n        /* \"#utility.yul\":317:318   */\n      dup1\n        /* \"#utility.yul\":310:322   */\n      revert\n        /* \"#utility.yul\":334:451   */\n    tag_94:\n        /* \"#utility.yul\":443:444   */\n      0x00\n        /* \"#utility.yul\":440:441   */\n      dup1\n        /* \"#utility.yul\":433:445   */\n      revert\n        /* \"#utility.yul\":457:574   */\n    tag_95:\n        /* \"#utility.yul\":566:567   */\n      0x00\n        /* \"#utility.yul\":563:564   */\n      dup1\n        /* \"#utility.yul\":556:568   */\n      revert\n        /* \"#utility.yul\":580:682   */\n    tag_96:\n        /* \"#utility.yul\":621:627   */\n      0x00\n        /* \"#utility.yul\":672:674   */\n      0x1f\n        /* \"#utility.yul\":668:675   */\n      not\n        /* \"#utility.yul\":663:665   */\n      0x1f\n        /* \"#utility.yul\":656:661   */\n      dup4\n        /* \"#utility.yul\":652:666   */\n      add\n        /* \"#utility.yul\":648:676   */\n      and\n        /* \"#utility.yul\":638:676   */\n      swap1\n      pop\n        /* \"#utility.yul\":580:682   */\n      swap2\n      swap1\n      pop\n      jump\t// out\n        /* \"#utility.yul\":688:868   */\n    tag_97:\n        /* \"#utility.yul\":736:813   */\n      0x4e487b7100000000000000000000000000000000000000000000000000000000\n        /* \"#utility.yul\":733:734   */\n      0x00\n        /* \"#utility.yul\":726:814   */\n      mstore\n        /* \"#utility.yul\":833:837   */\n      0x41\n        /* \"#utility.yul\":830:831   */\n      0x04\n        /* \"#utility.yul\":823:838   */\n      mstore\n        /* \"#utility.yul\":857:861   */\n      0x24\n        /* \"#utility.yul\":854:855   */\n      0x00\n        /* \"#utility.yul\":847:862   */\n      revert\n        /* \"#utility.yul\":874:1155   */\n    tag_98:\n        /* \"#utility.yul\":957:984   */\n      tag_149\n        /* \"#utility.yul\":979:983   */\n      dup3\n        /* \"#utility.yul\":957:984   */\n      tag_96\n      jump\t// in\n    tag_149:\n        /* \"#utility.yul\":949:955   */\n      dup2\n        /* \"#utility.yul\":945:985   */\n      add\n        /* \"#utility.yul\":1087:1093   */\n      dup2\n        /* \"#utility.yul\":1075:1085   */\n      dup2\n        /* \"#utility.yul\":1072:1094   */\n      lt\n        /* \"#utility.yul\":1051:1069   */\n      0xffffffffffffffff\n        /* \"#utility.yul\":1039:1049   */\n      dup3\n        /* \"#utility.yul\":1036:1070   */\n      gt\n        /* \"#utility.yul\":1033:1095   */\n      or\n        /* \"#utility.yul\":1030:1118   */\n      iszero\n      tag_150\n      jumpi\n        /* \"#utility.yul\":1098:1116   */\n      tag_151\n      tag_97\n      jump\t// in\n    tag_151:\n        /* \"#utility.yul\":1030:1118   */\n    tag_150:\n        /* \"#utility.yul\":1138:1148   */\n      dup1\n        /* \"#utility.yul\":1134:1136   */\n      0x40\n        /* \"#utility.yul\":1127:1149   */\n      mstore\n        /* \"#utility.yul\":917:1155   */\n      pop\n        /* \"#utility.yul\":874:1155   */\n      pop\n      pop\n      jump\t// out\n        /* \"#utility.yul\":1161:1290   */\n    tag_99:\n        /* \"#utility.yul\":1195:1201   */\n      0x00\n        /* \"#utility.yul\":1222:1242   */\n      tag_153\n      tag_91\n      jump\t// in\n    tag_153:\n        /* \"#utility.yul\":1212:1242   */\n      swap1\n      pop\n        /* \"#utility.yul\":1251:1284   */\n      tag_154\n        /* \"#utility.yul\":1279:1283   */\n      dup3\n        /* \"#utility.yul\":1271:1277   */\n      dup3\n        /* \"#utility.yul\":1251:1284   */\n      tag_98\n      jump\t// in\n    tag_154:\n        /* \"#utility.yul\":1161:1290   */\n      swap2\n      swap1\n      pop\n      jump\t// out\n        /* \"#utility.yul\":1296:1604   */\n    tag_100:\n        /* \"#utility.yul\":1358:1362   */\n      0x00\n        /* \"#utility.yul\":1448:1466   */\n      0xffffffffffffffff\n        /* \"#utility.yul\":1440:1446   */\n      dup3\n        /* \"#utility.yul\":1437:1467   */\n      gt\n        /* \"#utility.yul\":1434:1490   */\n      iszero\n      tag_156\n      jumpi\n        /* \"#utility.yul\":1470:1488   */\n      tag_157\n      tag_97\n      jump\t// in\n    tag_157:\n        /* \"#utility.yul\":1434:1490   */\n    tag_156:\n        /* \"#utility.yul\":1508:1537   */\n      tag_158\n        /* \"#utility.yul\":1530:1536   */\n      dup3\n        /* \"#utility.yul\":1508:1537   */\n      tag_96\n      jump\t// in\n    tag_158:\n        /* \"#utility.yul\":1500:1537   */\n      swap1\n      pop\n        /* \"#utility.yul\":1592:1596   */\n      0x20\n        /* \"#utility.yul\":1586:1590   */\n      dup2\n        /* \"#utility.yul\":1582:1597   */\n      add\n        /* \"#utility.yul\":1574:1597   */\n      swap1\n      pop\n        /* \"#utility.yul\":1296:1604   */\n      swap2\n      swap1\n      pop\n      jump\t// out\n        /* \"#utility.yul\":1610:1758   */\n    tag_101:\n        /* \"#utility.yul\":1708:1714   */\n      dup3\n        /* \"#utility.yul\":1703:1706   */\n      dup2\n        /* \"#utility.yul\":1698:1701   */\n      dup4\n        /* \"#utility.yul\":1685:1715   */\n      calldatacopy\n        /* \"#utility.yul\":1749:1750   */\n      0x00\n        /* \"#utility.yul\":1740:1746   */\n      dup4\n        /* \"#utility.yul\":1735:1738   */\n      dup4\n        /* \"#utility.yul\":1731:1747   */\n      add\n        /* \"#utility.yul\":1724:1751   */\n      mstore\n        /* \"#utility.yul\":1610:1758   */\n      pop\n      pop\n      pop\n      jump\t// out\n        /* \"#utility.yul\":1764:2189   */\n    tag_102:\n        /* \"#utility.yul\":1842:1847   */\n      0x00\n        /* \"#utility.yul\":1867:1933   */\n      tag_161\n        /* \"#utility.yul\":1883:1932   */\n      tag_162\n        /* \"#utility.yul\":1925:1931   */\n      dup5\n        /* \"#utility.yul\":1883:1932   */\n      tag_100\n      jump\t// in\n    tag_162:\n        /* \"#utility.yul\":1867:1933   */\n      tag_99\n      jump\t// in\n    tag_161:\n        /* \"#utility.yul\":1858:1933   */\n      swap1\n      pop\n        /* \"#utility.yul\":1956:1962   */\n      dup3\n        /* \"#utility.yul\":1949:1954   */\n      dup2\n        /* \"#utility.yul\":1942:1963   */\n      mstore\n        /* \"#utility.yul\":1994:1998   */\n      0x20\n        /* \"#utility.yul\":1987:1992   */\n      dup2\n        /* \"#utility.yul\":1983:1999   */\n      add\n        /* \"#utility.yul\":2032:2035   */\n      dup5\n        /* \"#utility.yul\":2023:2029   */\n      dup5\n        /* \"#utility.yul\":2018:2021   */\n      dup5\n        /* \"#utility.yul\":2014:2030   */\n      add\n        /* \"#utility.yul\":2011:2036   */\n      gt\n        /* \"#utility.yul\":2008:2120   */\n      iszero\n      tag_163\n      jumpi\n        /* \"#utility.yul\":2039:2118   */\n      tag_164\n      tag_95\n      jump\t// in\n    tag_164:\n        /* \"#utility.yul\":2008:2120   */\n    tag_163:\n        /* \"#utility.yul\":2129:2183   */\n      tag_165\n        /* \"#utility.yul\":2176:2182   */\n      dup5\n        /* \"#utility.yul\":2171:2174   */\n      dup3\n        /* \"#utility.yul\":2166:2169   */\n      dup6\n        /* \"#utility.yul\":2129:2183   */\n      tag_101\n      jump\t// in\n    tag_165:\n        /* \"#utility.yul\":1848:2189   */\n      pop\n        /* \"#utility.yul\":1764:2189   */\n      swap4\n      swap3\n      pop\n      pop\n      pop\n      jump\t// out\n        /* \"#utility.yul\":2209:2549   */\n    tag_103:\n        /* \"#utility.yul\":2265:2270   */\n      0x00\n        /* \"#utility.yul\":2314:2317   */\n      dup3\n        /* \"#utility.yul\":2307:2311   */\n      0x1f\n        /* \"#utility.yul\":2299:2305   */\n      dup4\n        /* \"#utility.yul\":2295:2312   */\n      add\n        /* \"#utility.yul\":2291:2318   */\n      slt\n        /* \"#utility.yul\":2281:2403   */\n      tag_167\n      jumpi\n        /* \"#utility.yul\":2322:2401   */\n      tag_168\n      tag_94\n      jump\t// in\n    tag_168:\n        /* \"#utility.yul\":2281:2403   */\n    tag_167:\n        /* \"#utility.yul\":2439:2445   */\n      dup2\n        /* \"#utility.yul\":2426:2446   */\n      calldataload\n        /* \"#utility.yul\":2464:2543   */\n      tag_169\n        /* \"#utility.yul\":2539:2542   */\n      dup5\n        /* \"#utility.yul\":2531:2537   */\n      dup3\n        /* \"#utility.yul\":2524:2528   */\n      0x20\n        /* \"#utility.yul\":2516:2522   */\n      dup7\n        /* \"#utility.yul\":2512:2529   */\n      add\n        /* \"#utility.yul\":2464:2543   */\n      tag_102\n      jump\t// in\n    tag_169:\n        /* \"#utility.yul\":2455:2543   */\n      swap2\n      pop\n        /* \"#utility.yul\":2271:2549   */\n      pop\n        /* \"#utility.yul\":2209:2549   */\n      swap3\n      swap2\n      pop\n      pop\n      jump\t// out\n        /* \"#utility.yul\":2555:3064   */\n    tag_16:\n        /* \"#utility.yul\":2624:2630   */\n      0x00\n        /* \"#utility.yul\":2673:2675   */\n      0x20\n        /* \"#utility.yul\":2661:2670   */\n      dup3\n        /* \"#utility.yul\":2652:2659   */\n      dup5\n        /* \"#utility.yul\":2648:2671   */\n      sub\n        /* \"#utility.yul\":2644:2676   */\n      slt\n        /* \"#utility.yul\":2641:2760   */\n      iszero\n      tag_171\n      jumpi\n        /* \"#utility.yul\":2679:2758   */\n      tag_172\n      tag_92\n      jump\t// in\n    tag_172:\n        /* \"#utility.yul\":2641:2760   */\n    tag_171:\n        /* \"#utility.yul\":2827:2828   */\n      0x00\n        /* \"#utility.yul\":2816:2825   */\n      dup3\n        /* \"#utility.yul\":2812:2829   */\n      add\n        /* \"#utility.yul\":2799:2830   */\n      calldataload\n        /* \"#utility.yul\":2857:2875   */\n      0xffffffffffffffff\n        /* \"#utility.yul\":2849:2855   */\n      dup2\n        /* \"#utility.yul\":2846:2876   */\n      gt\n        /* \"#utility.yul\":2843:2960   */\n      iszero\n      tag_173\n      jumpi\n        /* \"#utility.yul\":2879:2958   */\n      tag_174\n      tag_93\n      jump\t// in\n    tag_174:\n        /* \"#utility.yul\":2843:2960   */\n    tag_173:\n        /* \"#utility.yul\":2984:3047   */\n      tag_175\n        /* \"#utility.yul\":3039:3046   */\n      dup5\n        /* \"#utility.yul\":3030:3036   */\n      dup3\n        /* \"#utility.yul\":3019:3028   */\n      dup6\n        /* \"#utility.yul\":3015:3037   */\n      add\n        /* \"#utility.yul\":2984:3047   */\n      tag_103\n      jump\t// in\n    tag_175:\n        /* \"#utility.yul\":2974:3047   */\n      swap2\n      pop\n        /* \"#utility.yul\":2770:3057   */\n      pop\n        /* \"#utility.yul\":2555:3064   */\n      swap3\n      swap2\n      pop\n      pop\n      jump\t// out\n        /* \"#utility.yul\":3070:3184   */\n    tag_104:\n        /* \"#utility.yul\":3137:3143   */\n      0x00\n        /* \"#utility.yul\":3171:3176   */\n      dup2\n        /* \"#utility.yul\":3165:3177   */\n      mload\n        /* \"#utility.yul\":3155:3177   */\n      swap1\n      pop\n        /* \"#utility.yul\":3070:3184   */\n      swap2\n      swap1\n      pop\n      jump\t// out\n        /* \"#utility.yul\":3190:3374   */\n    tag_105:\n        /* \"#utility.yul\":3289:3300   */\n      0x00\n        /* \"#utility.yul\":3323:3329   */\n      dup3\n        /* \"#utility.yul\":3318:3321   */\n      dup3\n        /* \"#utility.yul\":3311:3330   */\n      mstore\n        /* \"#utility.yul\":3363:3367   */\n      0x20\n        /* \"#utility.yul\":3358:3361   */\n      dup3\n        /* \"#utility.yul\":3354:3368   */\n      add\n        /* \"#utility.yul\":3339:3368   */\n      swap1\n      pop\n        /* \"#utility.yul\":3190:3374   */\n      swap3\n      swap2\n      pop\n      pop\n      jump\t// out\n        /* \"#utility.yul\":3380:3512   */\n    tag_106:\n        /* \"#utility.yul\":3447:3451   */\n      0x00\n        /* \"#utility.yul\":3470:3473   */\n      dup2\n        /* \"#utility.yul\":3462:3473   */\n      swap1\n      pop\n        /* \"#utility.yul\":3500:3504   */\n      0x20\n        /* \"#utility.yul\":3495:3498   */\n      dup3\n        /* \"#utility.yul\":3491:3505   */\n      add\n        /* \"#utility.yul\":3483:3505   */\n      swap1\n      pop\n        /* \"#utility.yul\":3380:3512   */\n      swap2\n      swap1\n      pop\n      jump\t// out\n        /* \"#utility.yul\":3518:3644   */\n    tag_107:\n        /* \"#utility.yul\":3555:3562   */\n      0x00\n        /* \"#utility.yul\":3595:3637   */\n      0xffffffffffffffffffffffffffffffffffffffff\n        /* \"#utility.yul\":3588:3593   */\n      dup3\n        /* \"#utility.yul\":3584:3638   */\n      and\n        /* \"#utility.yul\":3573:3638   */\n      swap1\n      pop\n        /* \"#utility.yul\":3518:3644   */\n      swap2\n      swap1\n      pop\n      jump\t// out\n        /* \"#utility.yul\":3650:3746   */\n    tag_108:\n        /* \"#utility.yul\":3687:3694   */\n      0x00\n        /* \"#utility.yul\":3716:3740   */\n      tag_181\n        /* \"#utility.yul\":3734:3739   */\n      dup3\n        /* \"#utility.yul\":3716:3740   */\n      tag_107\n      jump\t// in\n    tag_181:\n        /* \"#utility.yul\":3705:3740   */\n      swap1\n      pop\n        /* \"#utility.yul\":3650:3746   */\n      swap2\n      swap1\n      pop\n      jump\t// out\n        /* \"#utility.yul\":3752:3860   */\n    tag_109:\n        /* \"#utility.yul\":3829:3853   */\n      tag_183\n        /* \"#utility.yul\":3847:3852   */\n      dup2\n        /* \"#utility.yul\":3829:3853   */\n      tag_108\n      jump\t// in\n    tag_183:\n        /* \"#utility.yul\":3824:3827   */\n      dup3\n        /* \"#utility.yul\":3817:3854   */\n      mstore\n        /* \"#utility.yul\":3752:3860   */\n      pop\n      pop\n      jump\t// out\n        /* \"#utility.yul\":3866:4045   */\n    tag_110:\n        /* \"#utility.yul\":3935:3945   */\n      0x00\n        /* \"#utility.yul\":3956:4002   */\n      tag_185\n        /* \"#utility.yul\":3998:4001   */\n      dup4\n        /* \"#utility.yul\":3990:3996   */\n      dup4\n        /* \"#utility.yul\":3956:4002   */\n      tag_109\n      jump\t// in\n    tag_185:\n        /* \"#utility.yul\":4034:4038   */\n      0x20\n        /* \"#utility.yul\":4029:4032   */\n      dup4\n        /* \"#utility.yul\":4025:4039   */\n      add\n        /* \"#utility.yul\":4011:4039   */\n      swap1\n      pop\n        /* \"#utility.yul\":3866:4045   */\n      swap3\n      swap2\n      pop\n      pop\n      jump\t// out\n        /* \"#utility.yul\":4051:4164   */\n    tag_111:\n        /* \"#utility.yul\":4121:4125   */\n      0x00\n        /* \"#utility.yul\":4153:4157   */\n      0x20\n        /* \"#utility.yul\":4148:4151   */\n      dup3\n        /* \"#utility.yul\":4144:4158   */\n      add\n        /* \"#utility.yul\":4136:4158   */\n      swap1\n      pop\n        /* \"#utility.yul\":4051:4164   */\n      swap2\n      swap1\n      pop\n      jump\t// out\n        /* \"#utility.yul\":4200:4932   */\n    tag_112:\n        /* \"#utility.yul\":4319:4322   */\n      0x00\n        /* \"#utility.yul\":4348:4402   */\n      tag_188\n        /* \"#utility.yul\":4396:4401   */\n      dup3\n        /* \"#utility.yul\":4348:4402   */\n      tag_104\n      jump\t// in\n    tag_188:\n        /* \"#utility.yul\":4418:4504   */\n      tag_189\n        /* \"#utility.yul\":4497:4503   */\n      dup2\n        /* \"#utility.yul\":4492:4495   */\n      dup6\n        /* \"#utility.yul\":4418:4504   */\n      tag_105\n      jump\t// in\n    tag_189:\n        /* \"#utility.yul\":4411:4504   */\n      swap4\n      pop\n        /* \"#utility.yul\":4528:4584   */\n      tag_190\n        /* \"#utility.yul\":4578:4583   */\n      dup4\n        /* \"#utility.yul\":4528:4584   */\n      tag_106\n      jump\t// in\n    tag_190:\n        /* \"#utility.yul\":4607:4614   */\n      dup1\n        /* \"#utility.yul\":4638:4639   */\n      0x00\n        /* \"#utility.yul\":4623:4907   */\n    tag_191:\n        /* \"#utility.yul\":4648:4654   */\n      dup4\n        /* \"#utility.yul\":4645:4646   */\n      dup2\n        /* \"#utility.yul\":4642:4655   */\n      lt\n        /* \"#utility.yul\":4623:4907   */\n      iszero\n      tag_193\n      jumpi\n        /* \"#utility.yul\":4724:4730   */\n      dup2\n        /* \"#utility.yul\":4718:4731   */\n      mload\n        /* \"#utility.yul\":4751:4814   */\n      tag_194\n        /* \"#utility.yul\":4810:4813   */\n      dup9\n        /* \"#utility.yul\":4795:4808   */\n      dup3\n        /* \"#utility.yul\":4751:4814   */\n      tag_110\n      jump\t// in\n    tag_194:\n        /* \"#utility.yul\":4744:4814   */\n      swap8\n      pop\n        /* \"#utility.yul\":4837:4897   */\n      tag_195\n        /* \"#utility.yul\":4890:4896   */\n      dup4\n        /* \"#utility.yul\":4837:4897   */\n      tag_111\n      jump\t// in\n    tag_195:\n        /* \"#utility.yul\":4827:4897   */\n      swap3\n      pop\n        /* \"#utility.yul\":4683:4907   */\n      pop\n        /* \"#utility.yul\":4670:4671   */\n      0x01\n        /* \"#utility.yul\":4667:4668   */\n      dup2\n        /* \"#utility.yul\":4663:4672   */\n      add\n        /* \"#utility.yul\":4658:4672   */\n      swap1\n      pop\n        /* \"#utility.yul\":4623:4907   */\n      jump(tag_191)\n    tag_193:\n        /* \"#utility.yul\":4627:4641   */\n      pop\n        /* \"#utility.yul\":4923:4926   */\n      dup6\n        /* \"#utility.yul\":4916:4926   */\n      swap4\n      pop\n        /* \"#utility.yul\":4324:4932   */\n      pop\n      pop\n      pop\n        /* \"#utility.yul\":4200:4932   */\n      swap3\n      swap2\n      pop\n      pop\n      jump\t// out\n        /* \"#utility.yul\":4938:5311   */\n    tag_23:\n        /* \"#utility.yul\":5081:5085   */\n      0x00\n        /* \"#utility.yul\":5119:5121   */\n      0x20\n        /* \"#utility.yul\":5108:5117   */\n      dup3\n        /* \"#utility.yul\":5104:5122   */\n      add\n        /* \"#utility.yul\":5096:5122   */\n      swap1\n      pop\n        /* \"#utility.yul\":5168:5177   */\n      dup2\n        /* \"#utility.yul\":5162:5166   */\n      dup2\n        /* \"#utility.yul\":5158:5178   */\n      sub\n        /* \"#utility.yul\":5154:5155   */\n      0x00\n        /* \"#utility.yul\":5143:5152   */\n      dup4\n        /* \"#utility.yul\":5139:5156   */\n      add\n        /* \"#utility.yul\":5132:5179   */\n      mstore\n        /* \"#utility.yul\":5196:5304   */\n      tag_197\n        /* \"#utility.yul\":5299:5303   */\n      dup2\n        /* \"#utility.yul\":5290:5296   */\n      dup5\n        /* \"#utility.yul\":5196:5304   */\n      tag_112\n      jump\t// in\n    tag_197:\n        /* \"#utility.yul\":5188:5304   */\n      swap1\n      pop\n        /* \"#utility.yul\":4938:5311   */\n      swap3\n      swap2\n      pop\n      pop\n      jump\t// out\n        /* \"#utility.yul\":5317:5394   */\n    tag_113:\n        /* \"#utility.yul\":5354:5361   */\n      0x00\n        /* \"#utility.yul\":5383:5388   */\n      dup2\n        /* \"#utility.yul\":5372:5388   */\n      swap1\n      pop\n        /* \"#utility.yul\":5317:5394   */\n      swap2\n      swap1\n      pop\n      jump\t// out\n        /* \"#utility.yul\":5400:5518   */\n    tag_114:\n        /* \"#utility.yul\":5487:5511   */\n      tag_200\n        /* \"#utility.yul\":5505:5510   */\n      dup2\n        /* \"#utility.yul\":5487:5511   */\n      tag_113\n      jump\t// in\n    tag_200:\n        /* \"#utility.yul\":5482:5485   */\n      dup3\n        /* \"#utility.yul\":5475:5512   */\n      mstore\n        /* \"#utility.yul\":5400:5518   */\n      pop\n      pop\n      jump\t// out\n        /* \"#utility.yul\":5524:5746   */\n    tag_27:\n        /* \"#utility.yul\":5617:5621   */\n      0x00\n        /* \"#utility.yul\":5655:5657   */\n      0x20\n        /* \"#utility.yul\":5644:5653   */\n      dup3\n        /* \"#utility.yul\":5640:5658   */\n      add\n        /* \"#utility.yul\":5632:5658   */\n      swap1\n      pop\n        /* \"#utility.yul\":5668:5739   */\n      tag_202\n        /* \"#utility.yul\":5736:5737   */\n      0x00\n        /* \"#utility.yul\":5725:5734   */\n      dup4\n        /* \"#utility.yul\":5721:5738   */\n      add\n        /* \"#utility.yul\":5712:5718   */\n      dup5\n        /* \"#utility.yul\":5668:5739   */\n      tag_114\n      jump\t// in\n    tag_202:\n        /* \"#utility.yul\":5524:5746   */\n      swap3\n      swap2\n      pop\n      pop\n      jump\t// out\n        /* \"#utility.yul\":5752:5870   */\n    tag_115:\n        /* \"#utility.yul\":5839:5863   */\n      tag_204\n        /* \"#utility.yul\":5857:5862   */\n      dup2\n        /* \"#utility.yul\":5839:5863   */\n      tag_108\n      jump\t// in\n    tag_204:\n        /* \"#utility.yul\":5834:5837   */\n      dup3\n        /* \"#utility.yul\":5827:5864   */\n      mstore\n        /* \"#utility.yul\":5752:5870   */\n      pop\n      pop\n      jump\t// out\n        /* \"#utility.yul\":5876:6098   */\n    tag_34:\n        /* \"#utility.yul\":5969:5973   */\n      0x00\n        /* \"#utility.yul\":6007:6009   */\n      0x20\n        /* \"#utility.yul\":5996:6005   */\n      dup3\n        /* \"#utility.yul\":5992:6010   */\n      add\n        /* \"#utility.yul\":5984:6010   */\n      swap1\n      pop\n        /* \"#utility.yul\":6020:6091   */\n      tag_206\n        /* \"#utility.yul\":6088:6089   */\n      0x00\n        /* \"#utility.yul\":6077:6086   */\n      dup4\n        /* \"#utility.yul\":6073:6090   */\n      add\n        /* \"#utility.yul\":6064:6070   */\n      dup5\n        /* \"#utility.yul\":6020:6091   */\n      tag_115\n      jump\t// in\n    tag_206:\n        /* \"#utility.yul\":5876:6098   */\n      swap3\n      swap2\n      pop\n      pop\n      jump\t// out\n        /* \"#utility.yul\":6104:6226   */\n    tag_116:\n        /* \"#utility.yul\":6177:6201   */\n      tag_208\n        /* \"#utility.yul\":6195:6200   */\n      dup2\n        /* \"#utility.yul\":6177:6201   */\n      tag_113\n      jump\t// in\n    tag_208:\n        /* \"#utility.yul\":6170:6175   */\n      dup2\n        /* \"#utility.yul\":6167:6202   */\n      eq\n        /* \"#utility.yul\":6157:6220   */\n      tag_209\n      jumpi\n        /* \"#utility.yul\":6216:6217   */\n      0x00\n        /* \"#utility.yul\":6213:6214   */\n      dup1\n        /* \"#utility.yul\":6206:6218   */\n      revert\n        /* \"#utility.yul\":6157:6220   */\n    tag_209:\n        /* \"#utility.yul\":6104:6226   */\n      pop\n      jump\t// out\n        /* \"#utility.yul\":6232:6371   */\n    tag_117:\n        /* \"#utility.yul\":6278:6283   */\n      0x00\n        /* \"#utility.yul\":6316:6322   */\n      dup2\n        /* \"#utility.yul\":6303:6323   */\n      calldataload\n        /* \"#utility.yul\":6294:6323   */\n      swap1\n      pop\n        /* \"#utility.yul\":6332:6365   */\n      tag_211\n        /* \"#utility.yul\":6359:6364   */\n      dup2\n        /* \"#utility.yul\":6332:6365   */\n      tag_116\n      jump\t// in\n    tag_211:\n        /* \"#utility.yul\":6232:6371   */\n      swap3\n      swap2\n      pop\n      pop\n      jump\t// out\n        /* \"#utility.yul\":6377:6706   */\n    tag_37:\n        /* \"#utility.yul\":6436:6442   */\n      0x00\n        /* \"#utility.yul\":6485:6487   */\n      0x20\n        /* \"#utility.yul\":6473:6482   */\n      dup3\n        /* \"#utility.yul\":6464:6471   */\n      dup5\n        /* \"#utility.yul\":6460:6483   */\n      sub\n        /* \"#utility.yul\":6456:6488   */\n      slt\n        /* \"#utility.yul\":6453:6572   */\n      iszero\n      tag_213\n      jumpi\n        /* \"#utility.yul\":6491:6570   */\n      tag_214\n      tag_92\n      jump\t// in\n    tag_214:\n        /* \"#utility.yul\":6453:6572   */\n    tag_213:\n        /* \"#utility.yul\":6611:6612   */\n      0x00\n        /* \"#utility.yul\":6636:6689   */\n      tag_215\n        /* \"#utility.yul\":6681:6688   */\n      dup5\n        /* \"#utility.yul\":6672:6678   */\n      dup3\n        /* \"#utility.yul\":6661:6670   */\n      dup6\n        /* \"#utility.yul\":6657:6679   */\n      add\n        /* \"#utility.yul\":6636:6689   */\n      tag_117\n      jump\t// in\n    tag_215:\n        /* \"#utility.yul\":6626:6689   */\n      swap2\n      pop\n        /* \"#utility.yul\":6582:6699   */\n      pop\n        /* \"#utility.yul\":6377:6706   */\n      swap3\n      swap2\n      pop\n      pop\n      jump\t// out\n        /* \"#utility.yul\":6712:6811   */\n    tag_118:\n        /* \"#utility.yul\":6764:6770   */\n      0x00\n        /* \"#utility.yul\":6798:6803   */\n      dup2\n        /* \"#utility.yul\":6792:6804   */\n      mload\n        /* \"#utility.yul\":6782:6804   */\n      swap1\n      pop\n        /* \"#utility.yul\":6712:6811   */\n      swap2\n      swap1\n      pop\n      jump\t// out\n        /* \"#utility.yul\":6817:6986   */\n    tag_119:\n        /* \"#utility.yul\":6901:6912   */\n      0x00\n        /* \"#utility.yul\":6935:6941   */\n      dup3\n        /* \"#utility.yul\":6930:6933   */\n      dup3\n        /* \"#utility.yul\":6923:6942   */\n      mstore\n        /* \"#utility.yul\":6975:6979   */\n      0x20\n        /* \"#utility.yul\":6970:6973   */\n      dup3\n        /* \"#utility.yul\":6966:6980   */\n      add\n        /* \"#utility.yul\":6951:6980   */\n      swap1\n      pop\n        /* \"#utility.yul\":6817:6986   */\n      swap3\n      swap2\n      pop\n      pop\n      jump\t// out\n        /* \"#utility.yul\":6992:7131   */\n    tag_120:\n        /* \"#utility.yul\":7081:7087   */\n      dup3\n        /* \"#utility.yul\":7076:7079   */\n      dup2\n        /* \"#utility.yul\":7071:7074   */\n      dup4\n        /* \"#utility.yul\":7065:7088   */\n      mcopy\n        /* \"#utility.yul\":7122:7123   */\n      0x00\n        /* \"#utility.yul\":7113:7119   */\n      dup4\n        /* \"#utility.yul\":7108:7111   */\n      dup4\n        /* \"#utility.yul\":7104:7120   */\n      add\n        /* \"#utility.yul\":7097:7124   */\n      mstore\n        /* \"#utility.yul\":6992:7131   */\n      pop\n      pop\n      pop\n      jump\t// out\n        /* \"#utility.yul\":7137:7514   */\n    tag_121:\n        /* \"#utility.yul\":7225:7228   */\n      0x00\n        /* \"#utility.yul\":7253:7292   */\n      tag_220\n        /* \"#utility.yul\":7286:7291   */\n      dup3\n        /* \"#utility.yul\":7253:7292   */\n      tag_118\n      jump\t// in\n    tag_220:\n        /* \"#utility.yul\":7308:7379   */\n      tag_221\n        /* \"#utility.yul\":7372:7378   */\n      dup2\n        /* \"#utility.yul\":7367:7370   */\n      dup6\n        /* \"#utility.yul\":7308:7379   */\n      tag_119\n      jump\t// in\n    tag_221:\n        /* \"#utility.yul\":7301:7379   */\n      swap4\n      pop\n        /* \"#utility.yul\":7388:7453   */\n      tag_222\n        /* \"#utility.yul\":7446:7452   */\n      dup2\n        /* \"#utility.yul\":7441:7444   */\n      dup6\n        /* \"#utility.yul\":7434:7438   */\n      0x20\n        /* \"#utility.yul\":7427:7432   */\n      dup7\n        /* \"#utility.yul\":7423:7439   */\n      add\n        /* \"#utility.yul\":7388:7453   */\n      tag_120\n      jump\t// in\n    tag_222:\n        /* \"#utility.yul\":7478:7507   */\n      tag_223\n        /* \"#utility.yul\":7500:7506   */\n      dup2\n        /* \"#utility.yul\":7478:7507   */\n      tag_96\n      jump\t// in\n    tag_223:\n        /* \"#utility.yul\":7473:7476   */\n      dup5\n        /* \"#utility.yul\":7469:7508   */\n      add\n        /* \"#utility.yul\":7462:7508   */\n      swap2\n      pop\n        /* \"#utility.yul\":7229:7514   */\n      pop\n        /* \"#utility.yul\":7137:7514   */\n      swap3\n      swap2\n      pop\n      pop\n      jump\t// out\n        /* \"#utility.yul\":7520:7833   */\n    tag_46:\n        /* \"#utility.yul\":7633:7637   */\n      0x00\n        /* \"#utility.yul\":7671:7673   */\n      0x20\n        /* \"#utility.yul\":7660:7669   */\n      dup3\n        /* \"#utility.yul\":7656:7674   */\n      add\n        /* \"#utility.yul\":7648:7674   */\n      swap1\n      pop\n        /* \"#utility.yul\":7720:7729   */\n      dup2\n        /* \"#utility.yul\":7714:7718   */\n      dup2\n        /* \"#utility.yul\":7710:7730   */\n      sub\n        /* \"#utility.yul\":7706:7707   */\n      0x00\n        /* \"#utility.yul\":7695:7704   */\n      dup4\n        /* \"#utility.yul\":7691:7708   */\n      add\n        /* \"#utility.yul\":7684:7731   */\n      mstore\n        /* \"#utility.yul\":7748:7826   */\n      tag_225\n        /* \"#utility.yul\":7821:7825   */\n      dup2\n        /* \"#utility.yul\":7812:7818   */\n      dup5\n        /* \"#utility.yul\":7748:7826   */\n      tag_121\n      jump\t// in\n    tag_225:\n        /* \"#utility.yul\":7740:7826   */\n      swap1\n      pop\n        /* \"#utility.yul\":7520:7833   */\n      swap3\n      swap2\n      pop\n      pop\n      jump\t// out\n        /* \"#utility.yul\":7839:8010   */\n    tag_122:\n        /* \"#utility.yul\":7979:8002   */\n      0x596f7520617265206e6f7420746865206f776e65720000000000000000000000\n        /* \"#utility.yul\":7975:7976   */\n      0x00\n        /* \"#utility.yul\":7967:7973   */\n      dup3\n        /* \"#utility.yul\":7963:7977   */\n      add\n        /* \"#utility.yul\":7956:8003   */\n      mstore\n        /* \"#utility.yul\":7839:8010   */\n      pop\n      jump\t// out\n        /* \"#utility.yul\":8016:8382   */\n    tag_123:\n        /* \"#utility.yul\":8158:8161   */\n      0x00\n        /* \"#utility.yul\":8179:8246   */\n      tag_228\n        /* \"#utility.yul\":8243:8245   */\n      0x15\n        /* \"#utility.yul\":8238:8241   */\n      dup4\n        /* \"#utility.yul\":8179:8246   */\n      tag_119\n      jump\t// in\n    tag_228:\n        /* \"#utility.yul\":8172:8246   */\n      swap2\n      pop\n        /* \"#utility.yul\":8255:8348   */\n      tag_229\n        /* \"#utility.yul\":8344:8347   */\n      dup3\n        /* \"#utility.yul\":8255:8348   */\n      tag_122\n      jump\t// in\n    tag_229:\n        /* \"#utility.yul\":8373:8375   */\n      0x20\n        /* \"#utility.yul\":8368:8371   */\n      dup3\n        /* \"#utility.yul\":8364:8376   */\n      add\n        /* \"#utility.yul\":8357:8376   */\n      swap1\n      pop\n        /* \"#utility.yul\":8016:8382   */\n      swap2\n      swap1\n      pop\n      jump\t// out\n        /* \"#utility.yul\":8388:8807   */\n    tag_53:\n        /* \"#utility.yul\":8554:8558   */\n      0x00\n        /* \"#utility.yul\":8592:8594   */\n      0x20\n        /* \"#utility.yul\":8581:8590   */\n      dup3\n        /* \"#utility.yul\":8577:8595   */\n      add\n        /* \"#utility.yul\":8569:8595   */\n      swap1\n      pop\n        /* \"#utility.yul\":8641:8650   */\n      dup2\n        /* \"#utility.yul\":8635:8639   */\n      dup2\n        /* \"#utility.yul\":8631:8651   */\n      sub\n        /* \"#utility.yul\":8627:8628   */\n      0x00\n        /* \"#utility.yul\":8616:8625   */\n      dup4\n        /* \"#utility.yul\":8612:8629   */\n      add\n        /* \"#utility.yul\":8605:8652   */\n      mstore\n        /* \"#utility.yul\":8669:8800   */\n      tag_231\n        /* \"#utility.yul\":8795:8799   */\n      dup2\n        /* \"#utility.yul\":8669:8800   */\n      tag_123\n      jump\t// in\n    tag_231:\n        /* \"#utility.yul\":8661:8800   */\n      swap1\n      pop\n        /* \"#utility.yul\":8388:8807   */\n      swap2\n      swap1\n      pop\n      jump\t// out\n        /* \"#utility.yul\":8813:8993   */\n    tag_124:\n        /* \"#utility.yul\":8861:8938   */\n      0x4e487b7100000000000000000000000000000000000000000000000000000000\n        /* \"#utility.yul\":8858:8859   */\n      0x00\n        /* \"#utility.yul\":8851:8939   */\n      mstore\n        /* \"#utility.yul\":8958:8962   */\n      0x22\n        /* \"#utility.yul\":8955:8956   */\n      0x04\n        /* \"#utility.yul\":8948:8963   */\n      mstore\n        /* \"#utility.yul\":8982:8986   */\n      0x24\n        /* \"#utility.yul\":8979:8980   */\n      0x00\n        /* \"#utility.yul\":8972:8987   */\n      revert\n        /* \"#utility.yul\":8999:9319   */\n    tag_81:\n        /* \"#utility.yul\":9043:9049   */\n      0x00\n        /* \"#utility.yul\":9080:9081   */\n      0x02\n        /* \"#utility.yul\":9074:9078   */\n      dup3\n        /* \"#utility.yul\":9070:9082   */\n      div\n        /* \"#utility.yul\":9060:9082   */\n      swap1\n      pop\n        /* \"#utility.yul\":9127:9128   */\n      0x01\n        /* \"#utility.yul\":9121:9125   */\n      dup3\n        /* \"#utility.yul\":9117:9129   */\n      and\n        /* \"#utility.yul\":9148:9166   */\n      dup1\n        /* \"#utility.yul\":9138:9219   */\n      tag_234\n      jumpi\n        /* \"#utility.yul\":9204:9208   */\n      0x7f\n        /* \"#utility.yul\":9196:9202   */\n      dup3\n        /* \"#utility.yul\":9192:9209   */\n      and\n        /* \"#utility.yul\":9182:9209   */\n      swap2\n      pop\n        /* \"#utility.yul\":9138:9219   */\n    tag_234:\n        /* \"#utility.yul\":9266:9268   */\n      0x20\n        /* \"#utility.yul\":9258:9264   */\n      dup3\n        /* \"#utility.yul\":9255:9269   */\n      lt\n        /* \"#utility.yul\":9235:9253   */\n      dup2\n        /* \"#utility.yul\":9232:9270   */\n      sub\n        /* \"#utility.yul\":9229:9313   */\n      tag_235\n      jumpi\n        /* \"#utility.yul\":9285:9303   */\n      tag_236\n      tag_124\n      jump\t// in\n    tag_236:\n        /* \"#utility.yul\":9229:9313   */\n    tag_235:\n        /* \"#utility.yul\":9050:9319   */\n      pop\n        /* \"#utility.yul\":8999:9319   */\n      swap2\n      swap1\n      pop\n      jump\t// out\n        /* \"#utility.yul\":9325:9466   */\n    tag_125:\n        /* \"#utility.yul\":9374:9378   */\n      0x00\n        /* \"#utility.yul\":9397:9400   */\n      dup2\n        /* \"#utility.yul\":9389:9400   */\n      swap1\n      pop\n        /* \"#utility.yul\":9420:9423   */\n      dup2\n        /* \"#utility.yul\":9417:9418   */\n      0x00\n        /* \"#utility.yul\":9410:9424   */\n      mstore\n        /* \"#utility.yul\":9454:9458   */\n      0x20\n        /* \"#utility.yul\":9451:9452   */\n      0x00\n        /* \"#utility.yul\":9441:9459   */\n      keccak256\n        /* \"#utility.yul\":9433:9459   */\n      swap1\n      pop\n        /* \"#utility.yul\":9325:9466   */\n      swap2\n      swap1\n      pop\n      jump\t// out\n        /* \"#utility.yul\":9472:9565   */\n    tag_126:\n        /* \"#utility.yul\":9509:9515   */\n      0x00\n        /* \"#utility.yul\":9556:9558   */\n      0x20\n        /* \"#utility.yul\":9551:9553   */\n      0x1f\n        /* \"#utility.yul\":9544:9549   */\n      dup4\n        /* \"#utility.yul\":9540:9554   */\n      add\n        /* \"#utility.yul\":9536:9559   */\n      div\n        /* \"#utility.yul\":9526:9559   */\n      swap1\n      pop\n        /* \"#utility.yul\":9472:9565   */\n      swap2\n      swap1\n      pop\n      jump\t// out\n        /* \"#utility.yul\":9571:9678   */\n    tag_127:\n        /* \"#utility.yul\":9615:9623   */\n      0x00\n        /* \"#utility.yul\":9665:9670   */\n      dup3\n        /* \"#utility.yul\":9659:9663   */\n      dup3\n        /* \"#utility.yul\":9655:9671   */\n      shl\n        /* \"#utility.yul\":9634:9671   */\n      swap1\n      pop\n        /* \"#utility.yul\":9571:9678   */\n      swap3\n      swap2\n      pop\n      pop\n      jump\t// out\n        /* \"#utility.yul\":9684:10077   */\n    tag_128:\n        /* \"#utility.yul\":9753:9759   */\n      0x00\n        /* \"#utility.yul\":9803:9804   */\n      0x08\n        /* \"#utility.yul\":9791:9801   */\n      dup4\n        /* \"#utility.yul\":9787:9805   */\n      mul\n        /* \"#utility.yul\":9826:9923   */\n      tag_241\n        /* \"#utility.yul\":9856:9922   */\n      0xffffffffffffffffffffffffffffffffffffffffffffffffffffffffffffffff\n        /* \"#utility.yul\":9845:9854   */\n      dup3\n        /* \"#utility.yul\":9826:9923   */\n      tag_127\n      jump\t// in\n    tag_241:\n        /* \"#utility.yul\":9944:9983   */\n      tag_242\n        /* \"#utility.yul\":9974:9982   */\n      dup7\n        /* \"#utility.yul\":9963:9972   */\n      dup4\n        /* \"#utility.yul\":9944:9983   */\n      tag_127\n      jump\t// in\n    tag_242:\n        /* \"#utility.yul\":9932:9983   */\n      swap6\n      pop\n        /* \"#utility.yul\":10016:10020   */\n      dup1\n        /* \"#utility.yul\":10012:10021   */\n      not\n        /* \"#utility.yul\":10005:10010   */\n      dup5\n        /* \"#utility.yul\":10001:10022   */\n      and\n        /* \"#utility.yul\":9992:10022   */\n      swap4\n      pop\n        /* \"#utility.yul\":10065:10069   */\n      dup1\n        /* \"#utility.yul\":10055:10063   */\n      dup7\n        /* \"#utility.yul\":10051:10070   */\n      and\n        /* \"#utility.yul\":10044:10049   */\n      dup5\n        /* \"#utility.yul\":10041:10071   */\n      or\n        /* \"#utility.yul\":10031:10071   */\n      swap3\n      pop\n        /* \"#utility.yul\":9760:10077   */\n      pop\n      pop\n        /* \"#utility.yul\":9684:10077   */\n      swap4\n      swap3\n      pop\n      pop\n      pop\n      jump\t// out\n        /* \"#utility.yul\":10083:10143   */\n    tag_129:\n        /* \"#utility.yul\":10111:10114   */\n      0x00\n        /* \"#utility.yul\":10132:10137   */\n      dup2\n        /* \"#utility.yul\":10125:10137   */\n      swap1\n      pop\n        /* \"#utility.yul\":10083:10143   */\n      swap2\n      swap1\n      pop\n      jump\t// out\n        /* \"#utility.yul\":10149:10291   */\n    tag_130:\n        /* \"#utility.yul\":10199:10208   */\n      0x00\n        /* \"#utility.yul\":10232:10285   */\n      tag_245\n        /* \"#utility.yul\":10250:10284   */\n      tag_246\n        /* \"#utility.yul\":10259:10283   */\n      tag_247\n        /* \"#utility.yul\":10277:10282   */\n      dup5\n        /* \"#utility.yul\":10259:10283   */\n      tag_113\n      jump\t// in\n    tag_247:\n        /* \"#utility.yul\":10250:10284   */\n      tag_129\n      jump\t// in\n    tag_246:\n        /* \"#utility.yul\":10232:10285   */\n      tag_113\n      jump\t// in\n    tag_245:\n        /* \"#utility.yul\":10219:10285   */\n      swap1\n      pop\n        /* \"#utility.yul\":10149:10291   */\n      swap2\n      swap1\n      pop\n      jump\t// out\n        /* \"#utility.yul\":10297:10372   */\n    tag_131:\n        /* \"#utility.yul\":10340:10343   */\n      0x00\n        /* \"#utility.yul\":10361:10366   */\n      dup2\n        /* \"#utility.yul\":10354:10366   */\n      swap1\n      pop\n        /* \"#utility.yul\":10297:10372   */\n      swap2\n      swap1\n      pop\n      jump\t// out\n        /* \"#utility.yul\":10378:10647   */\n    tag_132:\n        /* \"#utility.yul\":10488:10527   */\n      tag_250\n        /* \"#utility.yul\":10519:10526   */\n      dup4\n        /* \"#utility.yul\":10488:10527   */\n      tag_130\n      jump\t// in\n    tag_250:\n        /* \"#utility.yul\":10549:10640   */\n      tag_251\n        /* \"#utility.yul\":10598:10639   */\n      tag_252\n        /* \"#utility.yul\":10622:10638   */\n      dup3\n        /* \"#utility.yul\":10598:10639   */\n      tag_131\n      jump\t// in\n    tag_252:\n        /* \"#utility.yul\":10590:10596   */\n      dup5\n        /* \"#utility.yul\":10583:10587   */\n      dup5\n        /* \"#utility.yul\":10577:10588   */\n      sload\n        /* \"#utility.yul\":10549:10640   */\n      tag_128\n      jump\t// in\n    tag_251:\n        /* \"#utility.yul\":10543:10547   */\n      dup3\n        /* \"#utility.yul\":10536:10641   */\n      sstore\n        /* \"#utility.yul\":10454:10647   */\n      pop\n        /* \"#utility.yul\":10378:10647   */\n      pop\n      pop\n      pop\n      jump\t// out\n        /* \"#utility.yul\":10653:10726   */\n    tag_133:\n        /* \"#utility.yul\":10698:10701   */\n      0x00\n        /* \"#utility.yul\":10653:10726   */\n      swap1\n      jump\t// out\n        /* \"#utility.yul\":10732:10921   */\n    tag_134:\n        /* \"#utility.yul\":10809:10841   */\n      tag_255\n      tag_133\n      jump\t// in\n    tag_255:\n        /* \"#utility.yul\":10850:10915   */\n      tag_256\n        /* \"#utility.yul\":10908:10914   */\n      dup2\n        /* \"#utility.yul\":10900:10906   */\n      dup5\n        /* \"#utility.yul\":10894:10898   */\n      dup5\n        /* \"#utility.yul\":10850:10915   */\n      tag_132\n      jump\t// in\n    tag_256:\n        /* \"#utility.yul\":10785:10921   */\n      pop\n        /* \"#utility.yul\":10732:10921   */\n      pop\n      pop\n      jump\t// out\n        /* \"#utility.yul\":10927:11113   */\n    tag_135:\n        /* \"#utility.yul\":10987:11107   */\n    tag_258:\n        /* \"#utility.yul\":11004:11007   */\n      dup2\n        /* \"#utility.yul\":10997:11002   */\n      dup2\n        /* \"#utility.yul\":10994:11008   */\n      lt\n        /* \"#utility.yul\":10987:11107   */\n      iszero\n      tag_260\n      jumpi\n        /* \"#utility.yul\":11058:11097   */\n      tag_261\n        /* \"#utility.yul\":11095:11096   */\n      0x00\n        /* \"#utility.yul\":11088:11093   */\n      dup3\n        /* \"#utility.yul\":11058:11097   */\n      tag_134\n      jump\t// in\n    tag_261:\n        /* \"#utility.yul\":11031:11032   */\n      0x01\n        /* \"#utility.yul\":11024:11029   */\n      dup2\n        /* \"#utility.yul\":11020:11033   */\n      add\n        /* \"#utility.yul\":11011:11033   */\n      swap1\n      pop\n        /* \"#utility.yul\":10987:11107   */\n      jump(tag_258)\n    tag_260:\n        /* \"#utility.yul\":10927:11113   */\n      pop\n      pop\n      jump\t// out\n        /* \"#utility.yul\":11119:11662   */\n    tag_136:\n        /* \"#utility.yul\":11220:11222   */\n      0x1f\n        /* \"#utility.yul\":11215:11218   */\n      dup3\n        /* \"#utility.yul\":11212:11223   */\n      gt\n        /* \"#utility.yul\":11209:11655   */\n      iszero\n      tag_263\n      jumpi\n        /* \"#utility.yul\":11254:11292   */\n      tag_264\n        /* \"#utility.yul\":11286:11291   */\n      dup2\n        /* \"#utility.yul\":11254:11292   */\n      tag_125\n      jump\t// in\n    tag_264:\n        /* \"#utility.yul\":11338:11367   */\n      tag_265\n        /* \"#utility.yul\":11356:11366   */\n      dup5\n        /* \"#utility.yul\":11338:11367   */\n      tag_126\n      jump\t// in\n    tag_265:\n        /* \"#utility.yul\":11328:11336   */\n      dup2\n        /* \"#utility.yul\":11324:11368   */\n      add\n        /* \"#utility.yul\":11521:11523   */\n      0x20\n        /* \"#utility.yul\":11509:11519   */\n      dup6\n        /* \"#utility.yul\":11506:11524   */\n      lt\n        /* \"#utility.yul\":11503:11552   */\n      iszero\n      tag_266\n      jumpi\n        /* \"#utility.yul\":11542:11550   */\n      dup2\n        /* \"#utility.yul\":11527:11550   */\n      swap1\n      pop\n        /* \"#utility.yul\":11503:11552   */\n    tag_266:\n        /* \"#utility.yul\":11565:11645   */\n      tag_267\n        /* \"#utility.yul\":11621:11643   */\n      tag_268\n        /* \"#utility.yul\":11639:11642   */\n      dup6\n        /* \"#utility.yul\":11621:11643   */\n      tag_126\n      jump\t// in\n    tag_268:\n        /* \"#utility.yul\":11611:11619   */\n      dup4\n        /* \"#utility.yul\":11607:11644   */\n      add\n        /* \"#utility.yul\":11594:11605   */\n      dup3\n        /* \"#utility.yul\":11565:11645   */\n      tag_135\n      jump\t// in\n    tag_267:\n        /* \"#utility.yul\":11224:11655   */\n      pop\n      pop\n        /* \"#utility.yul\":11209:11655   */\n    tag_263:\n        /* \"#utility.yul\":11119:11662   */\n      pop\n      pop\n      pop\n      jump\t// out\n        /* \"#utility.yul\":11668:11785   */\n    tag_137:\n        /* \"#utility.yul\":11722:11730   */\n      0x00\n        /* \"#utility.yul\":11772:11777   */\n      dup3\n        /* \"#utility.yul\":11766:11770   */\n      dup3\n        /* \"#utility.yul\":11762:11778   */\n      shr\n        /* \"#utility.yul\":11741:11778   */\n      swap1\n      pop\n        /* \"#utility.yul\":11668:11785   */\n      swap3\n      swap2\n      pop\n      pop\n      jump\t// out\n        /* \"#utility.yul\":11791:11960   */\n    tag_138:\n        /* \"#utility.yul\":11835:11841   */\n      0x00\n        /* \"#utility.yul\":11868:11919   */\n      tag_271\n        /* \"#utility.yul\":11916:11917   */\n      0x00\n        /* \"#utility.yul\":11912:11918   */\n      not\n        /* \"#utility.yul\":11904:11909   */\n      dup5\n        /* \"#utility.yul\":11901:11902   */\n      0x08\n        /* \"#utility.yul\":11897:11910   */\n      mul\n        /* \"#utility.yul\":11868:11919   */\n      tag_137\n      jump\t// in\n    tag_271:\n        /* \"#utility.yul\":11864:11920   */\n      not\n        /* \"#utility.yul\":11949:11953   */\n      dup1\n        /* \"#utility.yul\":11943:11947   */\n      dup4\n        /* \"#utility.yul\":11939:11954   */\n      and\n        /* \"#utility.yul\":11929:11954   */\n      swap2\n      pop\n        /* \"#utility.yul\":11842:11960   */\n      pop\n        /* \"#utility.yul\":11791:11960   */\n      swap3\n      swap2\n      pop\n      pop\n      jump\t// out\n        /* \"#utility.yul\":11965:12260   */\n    tag_139:\n        /* \"#utility.yul\":12041:12045   */\n      0x00\n        /* \"#utility.yul\":12187:12216   */\n      tag_273\n        /* \"#utility.yul\":12212:12215   */\n      dup4\n        /* \"#utility.yul\":12206:12210   */\n      dup4\n        /* \"#utility.yul\":12187:12216   */\n      tag_138\n      jump\t// in\n    tag_273:\n        /* \"#utility.yul\":12179:12216   */\n      swap2\n      pop\n        /* \"#utility.yul\":12249:12252   */\n      dup3\n        /* \"#utility.yul\":12246:12247   */\n      0x02\n        /* \"#utility.yul\":12242:12253   */\n      mul\n        /* \"#utility.yul\":12236:12240   */\n      dup3\n        /* \"#utility.yul\":12233:12254   */\n      or\n        /* \"#utility.yul\":12225:12254   */\n      swap1\n      pop\n        /* \"#utility.yul\":11965:12260   */\n      swap3\n      swap2\n      pop\n      pop\n      jump\t// out\n        /* \"#utility.yul\":12265:13660   */\n    tag_56:\n        /* \"#utility.yul\":12382:12419   */\n      tag_275\n        /* \"#utility.yul\":12415:12418   */\n      dup3\n        /* \"#utility.yul\":12382:12419   */\n      tag_118\n      jump\t// in\n    tag_275:\n        /* \"#utility.yul\":12484:12502   */\n      0xffffffffffffffff\n        /* \"#utility.yul\":12476:12482   */\n      dup2\n        /* \"#utility.yul\":12473:12503   */\n      gt\n        /* \"#utility.yul\":12470:12526   */\n      iszero\n      tag_276\n      jumpi\n        /* \"#utility.yul\":12506:12524   */\n      tag_277\n      tag_97\n      jump\t// in\n    tag_277:\n        /* \"#utility.yul\":12470:12526   */\n    tag_276:\n        /* \"#utility.yul\":12550:12588   */\n      tag_278\n        /* \"#utility.yul\":12582:12586   */\n      dup3\n        /* \"#utility.yul\":12576:12587   */\n      sload\n        /* \"#utility.yul\":12550:12588   */\n      tag_81\n      jump\t// in\n    tag_278:\n        /* \"#utility.yul\":12635:12702   */\n      tag_279\n        /* \"#utility.yul\":12695:12701   */\n      dup3\n        /* \"#utility.yul\":12687:12693   */\n      dup3\n        /* \"#utility.yul\":12681:12685   */\n      dup6\n        /* \"#utility.yul\":12635:12702   */\n      tag_136\n      jump\t// in\n    tag_279:\n        /* \"#utility.yul\":12729:12730   */\n      0x00\n        /* \"#utility.yul\":12753:12757   */\n      0x20\n        /* \"#utility.yul\":12740:12757   */\n      swap1\n      pop\n        /* \"#utility.yul\":12785:12787   */\n      0x1f\n        /* \"#utility.yul\":12777:12783   */\n      dup4\n        /* \"#utility.yul\":12774:12788   */\n      gt\n        /* \"#utility.yul\":12802:12803   */\n      0x01\n        /* \"#utility.yul\":12797:13415   */\n      dup2\n      eq\n      tag_281\n      jumpi\n        /* \"#utility.yul\":13459:13460   */\n      0x00\n        /* \"#utility.yul\":13476:13482   */\n      dup5\n        /* \"#utility.yul\":13473:13550   */\n      iszero\n      tag_282\n      jumpi\n        /* \"#utility.yul\":13525:13534   */\n      dup3\n        /* \"#utility.yul\":13520:13523   */\n      dup8\n        /* \"#utility.yul\":13516:13535   */\n      add\n        /* \"#utility.yul\":13510:13536   */\n      mload\n        /* \"#utility.yul\":13501:13536   */\n      swap1\n      pop\n        /* \"#utility.yul\":13473:13550   */\n    tag_282:\n        /* \"#utility.yul\":13576:13643   */\n      tag_283\n        /* \"#utility.yul\":13636:13642   */\n      dup6\n        /* \"#utility.yul\":13629:13634   */\n      dup3\n        /* \"#utility.yul\":13576:13643   */\n      tag_139\n      jump\t// in\n    tag_283:\n        /* \"#utility.yul\":13570:13574   */\n      dup7\n        /* \"#utility.yul\":13563:13644   */\n      sstore\n        /* \"#utility.yul\":13432:13654   */\n      pop\n        /* \"#utility.yul\":12767:13654   */\n      jump(tag_280)\n        /* \"#utility.yul\":12797:13415   */\n    tag_281:\n        /* \"#utility.yul\":12849:12853   */\n      0x1f\n        /* \"#utility.yul\":12845:12854   */\n      not\n        /* \"#utility.yul\":12837:12843   */\n      dup5\n        /* \"#utility.yul\":12833:12855   */\n      and\n        /* \"#utility.yul\":12883:12920   */\n      tag_284\n        /* \"#utility.yul\":12915:12919   */\n      dup7\n        /* \"#utility.yul\":12883:12920   */\n      tag_125\n      jump\t// in\n    tag_284:\n        /* \"#utility.yul\":12942:12943   */\n      0x00\n        /* \"#utility.yul\":12956:13164   */\n    tag_285:\n        /* \"#utility.yul\":12970:12977   */\n      dup3\n        /* \"#utility.yul\":12967:12968   */\n      dup2\n        /* \"#utility.yul\":12964:12978   */\n      lt\n        /* \"#utility.yul\":12956:13164   */\n      iszero\n      tag_287\n      jumpi\n        /* \"#utility.yul\":13049:13058   */\n      dup5\n        /* \"#utility.yul\":13044:13047   */\n      dup10\n        /* \"#utility.yul\":13040:13059   */\n      add\n        /* \"#utility.yul\":13034:13060   */\n      mload\n        /* \"#utility.yul\":13026:13032   */\n      dup3\n        /* \"#utility.yul\":13019:13061   */\n      sstore\n        /* \"#utility.yul\":13100:13101   */\n      0x01\n        /* \"#utility.yul\":13092:13098   */\n      dup3\n        /* \"#utility.yul\":13088:13102   */\n      add\n        /* \"#utility.yul\":13078:13102   */\n      swap2\n      pop\n        /* \"#utility.yul\":13147:13149   */\n      0x20\n        /* \"#utility.yul\":13136:13145   */\n      dup6\n        /* \"#utility.yul\":13132:13150   */\n      add\n        /* \"#utility.yul\":13119:13150   */\n      swap5\n      pop\n        /* \"#utility.yul\":12993:12997   */\n      0x20\n        /* \"#utility.yul\":12990:12991   */\n      dup2\n        /* \"#utility.yul\":12986:12998   */\n      add\n        /* \"#utility.yul\":12981:12998   */\n      swap1\n      pop\n        /* \"#utility.yul\":12956:13164   */\n      jump(tag_285)\n    tag_287:\n        /* \"#utility.yul\":13192:13198   */\n      dup7\n        /* \"#utility.yul\":13183:13190   */\n      dup4\n        /* \"#utility.yul\":13180:13199   */\n      lt\n        /* \"#utility.yul\":13177:13356   */\n      iszero\n      tag_288\n      jumpi\n        /* \"#utility.yul\":13250:13259   */\n      dup5\n        /* \"#utility.yul\":13245:13248   */\n      dup10\n        /* \"#utility.yul\":13241:13260   */\n      add\n        /* \"#utility.yul\":13235:13261   */\n      mload\n        /* \"#utility.yul\":13293:13341   */\n      tag_289\n        /* \"#utility.yul\":13335:13339   */\n      0x1f\n        /* \"#utility.yul\":13327:13333   */\n      dup10\n        /* \"#utility.yul\":13323:13340   */\n      and\n        /* \"#utility.yul\":13312:13321   */\n      dup3\n        /* \"#utility.yul\":13293:13341   */\n      tag_138\n      jump\t// in\n    tag_289:\n        /* \"#utility.yul\":13285:13291   */\n      dup4\n        /* \"#utility.yul\":13278:13342   */\n      sstore\n        /* \"#utility.yul\":13200:13356   */\n      pop\n        /* \"#utility.yul\":13177:13356   */\n    tag_288:\n        /* \"#utility.yul\":13402:13403   */\n      0x01\n        /* \"#utility.yul\":13398:13399   */\n      0x02\n        /* \"#utility.yul\":13390:13396   */\n      dup9\n        /* \"#utility.yul\":13386:13400   */\n      mul\n        /* \"#utility.yul\":13382:13404   */\n      add\n        /* \"#utility.yul\":13376:13380   */\n      dup9\n        /* \"#utility.yul\":13369:13405   */\n      sstore\n        /* \"#utility.yul\":12804:13415   */\n      pop\n      pop\n      pop\n        /* \"#utility.yul\":12767:13654   */\n    tag_280:\n      pop\n        /* \"#utility.yul\":12357:13660   */\n      pop\n      pop\n      pop\n        /* \"#utility.yul\":12265:13660   */\n      pop\n      pop\n      jump\t// out\n        /* \"#utility.yul\":13666:13846   */\n    tag_64:\n        /* \"#utility.yul\":13714:13791   */\n      0x4e487b7100000000000000000000000000000000000000000000000000000000\n        /* \"#utility.yul\":13711:13712   */\n      0x00\n        /* \"#utility.yul\":13704:13792   */\n      mstore\n        /* \"#utility.yul\":13811:13815   */\n      0x32\n        /* \"#utility.yul\":13808:13809   */\n      0x04\n        /* \"#utility.yul\":13801:13816   */\n      mstore\n        /* \"#utility.yul\":13835:13839   */\n      0x24\n        /* \"#utility.yul\":13832:13833   */\n      0x00\n        /* \"#utility.yul\":13825:13840   */\n      revert\n\n    auxdata: 0xa2646970667358221220ae1ac3516c7c1d71dfe715b9f486add39aea127cd7851eff73bc8e6f44a9316264736f6c634300081a0033\n}\n",
				"bytecode": {
					"linkReferences": {},
					"object": "6080604052348015600e575f80fd5b503360025f6101000a81548173ffffffffffffffffffffffffffffffffffffffff021916908373ffffffffffffffffffffffffffffffffffffffff160217905550610e018061005c5f395ff3fe608060405234801561000f575f80fd5b506004361061009c575f3560e01c80638da5cb5b116100645780638da5cb5b14610120578063955ada631461013e578063cd16ecbf1461016e578063ce6d41de1461018a578063e21f37ce146101a85761009c565b8063368b8772146100a057806337be359b146100bc57806363180e37146100c657806367e0badb146100e45780638381f58a14610102575b5f80fd5b6100ba60048036038101906100b591906107f1565b6101c6565b005b6100c46102b6565b005b6100ce6103aa565b6040516100db919061091f565b60405180910390f35b6100ec610435565b6040516100f99190610957565b60405180910390f35b61010a61043d565b6040516101179190610957565b60405180910390f35b610128610442565b604051610135919061097f565b60405180910390f35b610158600480360381019061015391906109c2565b610467565b604051610165919061097f565b60405180910390f35b610188600480360381019061018391906109c2565b6104a2565b005b610192610588565b60405161019f9190610a4d565b60405180910390f35b6101b0610618565b6040516101bd9190610a4d565b60405180910390f35b60025f9054906101000a900473ffffffffffffffffffffffffffffffffffffffff1673ffffffffffffffffffffffffffffffffffffffff163373ffffffffffffffffffffffffffffffffffffffff1614610255576040517f08c379a000000000000000000000000000000000000000000000000000000000815260040161024c90610ab7565b60405180910390fd5b80600190816102649190610ccf565b503373ffffffffffffffffffffffffffffffffffffffff167fc3c5e7649f21b5b486d54682c6fd9bb40c3fa82d872beac86e926d70f9a8df4b826040516102ab9190610a4d565b60405180910390a250565b5f5b600380549050811015610346573373ffffffffffffffffffffffffffffffffffffffff16600382815481106102f0576102ef610d9e565b5b905f5260205f20015f9054906101000a900473ffffffffffffffffffffffffffffffffffffffff1673ffffffffffffffffffffffffffffffffffffffff160361033957506103a8565b80806001019150506102b8565b50600333908060018154018082558091505060019003905f5260205f20015f9091909190916101000a81548173ffffffffffffffffffffffffffffffffffffffff021916908373ffffffffffffffffffffffffffffffffffffffff1602179055505b565b6060600380548060200260200160405190810160405280929190818152602001828054801561042b57602002820191905f5260205f20905b815f9054906101000a900473ffffffffffffffffffffffffffffffffffffffff1673ffffffffffffffffffffffffffffffffffffffff16815260200190600101908083116103e2575b5050505050905090565b5f8054905090565b5f5481565b60025f9054906101000a900473ffffffffffffffffffffffffffffffffffffffff1681565b60038181548110610476575f80fd5b905f5260205f20015f915054906101000a900473ffffffffffffffffffffffffffffffffffffffff1681565b60025f9054906101000a900473ffffffffffffffffffffffffffffffffffffffff1673ffffffffffffffffffffffffffffffffffffffff163373ffffffffffffffffffffffffffffffffffffffff1614610531576040517f08c379a000000000000000000000000000000000000000000000000000000000815260040161052890610ab7565b60405180910390fd5b805f819055503373ffffffffffffffffffffffffffffffffffffffff167fed65cf72675c57660e67b5e615ec8981e01e5deebce7713b9ee2a1c991e5eb268260405161057d9190610957565b60405180910390a250565b60606001805461059790610b02565b80601f01602080910402602001604051908101604052809291908181526020018280546105c390610b02565b801561060e5780601f106105e55761010080835404028352916020019161060e565b820191905f5260205f20905b8154815290600101906020018083116105f157829003601f168201915b5050505050905090565b6001805461062590610b02565b80601f016020809104026020016040519081016040528092919081815260200182805461065190610b02565b801561069c5780601f106106735761010080835404028352916020019161069c565b820191905f5260205f20905b81548152906001019060200180831161067f57829003601f168201915b505050505081565b5f604051905090565b5f80fd5b5f80fd5b5f80fd5b5f80fd5b5f601f19601f8301169050919050565b7f4e487b71000000000000000000000000000000000000000000000000000000005f52604160045260245ffd5b610703826106bd565b810181811067ffffffffffffffff82111715610722576107216106cd565b5b80604052505050565b5f6107346106a4565b905061074082826106fa565b919050565b5f67ffffffffffffffff82111561075f5761075e6106cd565b5b610768826106bd565b9050602081019050919050565b828183375f83830152505050565b5f61079561079084610745565b61072b565b9050828152602081018484840111156107b1576107b06106b9565b5b6107bc848285610775565b509392505050565b5f82601f8301126107d8576107d76106b5565b5b81356107e8848260208601610783565b91505092915050565b5f60208284031215610806576108056106ad565b5b5f82013567ffffffffffffffff811115610823576108226106b1565b5b61082f848285016107c4565b91505092915050565b5f81519050919050565b5f82825260208201905092915050565b5f819050602082019050919050565b5f73ffffffffffffffffffffffffffffffffffffffff82169050919050565b5f61088a82610861565b9050919050565b61089a81610880565b82525050565b5f6108ab8383610891565b60208301905092915050565b5f602082019050919050565b5f6108cd82610838565b6108d78185610842565b93506108e283610852565b805f5b838110156109125781516108f988826108a0565b9750610904836108b7565b9250506001810190506108e5565b5085935050505092915050565b5f6020820190508181035f83015261093781846108c3565b905092915050565b5f819050919050565b6109518161093f565b82525050565b5f60208201905061096a5f830184610948565b92915050565b61097981610880565b82525050565b5f6020820190506109925f830184610970565b92915050565b6109a18161093f565b81146109ab575f80fd5b50565b5f813590506109bc81610998565b92915050565b5f602082840312156109d7576109d66106ad565b5b5f6109e4848285016109ae565b91505092915050565b5f81519050919050565b5f82825260208201905092915050565b8281835e5f83830152505050565b5f610a1f826109ed565b610a2981856109f7565b9350610a39818560208601610a07565b610a42816106bd565b840191505092915050565b5f6020820190508181035f830152610a658184610a15565b905092915050565b7f596f7520617265206e6f7420746865206f776e657200000000000000000000005f82015250565b5f610aa16015836109f7565b9150610aac82610a6d565b602082019050919050565b5f6020820190508181035f830152610ace81610a95565b9050919050565b7f4e487b71000000000000000000000000000000000000000000000000000000005f52602260045260245ffd5b5f6002820490506001821680610b1957607f821691505b602082108103610b2c57610b2b610ad5565b5b50919050565b5f819050815f5260205f209050919050565b5f6020601f8301049050919050565b5f82821b905092915050565b5f60088302610b8e7fffffffffffffffffffffffffffffffffffffffffffffffffffffffffffffffff82610b53565b610b988683610b53565b95508019841693508086168417925050509392505050565b5f819050919050565b5f610bd3610bce610bc98461093f565b610bb0565b61093f565b9050919050565b5f819050919050565b610bec83610bb9565b610c00610bf882610bda565b848454610b5f565b825550505050565b5f90565b610c14610c08565b610c1f818484610be3565b505050565b5b81811015610c4257610c375f82610c0c565b600181019050610c25565b5050565b601f821115610c8757610c5881610b32565b610c6184610b44565b81016020851015610c70578190505b610c84610c7c85610b44565b830182610c24565b50505b505050565b5f82821c905092915050565b5f610ca75f1984600802610c8c565b1980831691505092915050565b5f610cbf8383610c98565b9150826002028217905092915050565b610cd8826109ed565b67ffffffffffffffff811115610cf157610cf06106cd565b5b610cfb8254610b02565b610d06828285610c46565b5f60209050601f831160018114610d37575f8415610d25578287015190505b610d2f8582610cb4565b865550610d96565b601f198416610d4586610b32565b5f5b82811015610d6c57848901518255600182019150602085019450602081019050610d47565b86831015610d895784890151610d85601f891682610c98565b8355505b6001600288020188555050505b505050505050565b7f4e487b71000000000000000000000000000000000000000000000000000000005f52603260045260245ffdfea2646970667358221220ae1ac3516c7c1d71dfe715b9f486add39aea127cd7851eff73bc8e6f44a9316264736f6c634300081a0033",
					"opcodes": "PUSH1 0x80 PUSH1 0x40 MSTORE CALLVALUE DUP1 ISZERO PUSH1 0xE JUMPI PUSH0 DUP1 REVERT JUMPDEST POP CALLER PUSH1 0x2 PUSH0 PUSH2 0x100 EXP DUP2 SLOAD DUP2 PUSH20 0xFFFFFFFFFFFFFFFFFFFFFFFFFFFFFFFFFFFFFFFF MUL NOT AND SWAP1 DUP4 PUSH20 0xFFFFFFFFFFFFFFFFFFFFFFFFFFFFFFFFFFFFFFFF AND MUL OR SWAP1 SSTORE POP PUSH2 0xE01 DUP1 PUSH2 0x5C PUSH0 CODECOPY PUSH0 RETURN INVALID PUSH1 0x80 PUSH1 0x40 MSTORE CALLVALUE DUP1 ISZERO PUSH2 0xF JUMPI PUSH0 DUP1 REVERT JUMPDEST POP PUSH1 0x4 CALLDATASIZE LT PUSH2 0x9C JUMPI PUSH0 CALLDATALOAD PUSH1 0xE0 SHR DUP1 PUSH4 0x8DA5CB5B GT PUSH2 0x64 JUMPI DUP1 PUSH4 0x8DA5CB5B EQ PUSH2 0x120 JUMPI DUP1 PUSH4 0x955ADA63 EQ PUSH2 0x13E JUMPI DUP1 PUSH4 0xCD16ECBF EQ PUSH2 0x16E JUMPI DUP1 PUSH4 0xCE6D41DE EQ PUSH2 0x18A JUMPI DUP1 PUSH4 0xE21F37CE EQ PUSH2 0x1A8 JUMPI PUSH2 0x9C JUMP JUMPDEST DUP1 PUSH4 0x368B8772 EQ PUSH2 0xA0 JUMPI DUP1 PUSH4 0x37BE359B EQ PUSH2 0xBC JUMPI DUP1 PUSH4 0x63180E37 EQ PUSH2 0xC6 JUMPI DUP1 PUSH4 0x67E0BADB EQ PUSH2 0xE4 JUMPI DUP1 PUSH4 0x8381F58A EQ PUSH2 0x102 JUMPI JUMPDEST PUSH0 DUP1 REVERT JUMPDEST PUSH2 0xBA PUSH1 0x4 DUP1 CALLDATASIZE SUB DUP2 ADD SWAP1 PUSH2 0xB5 SWAP2 SWAP1 PUSH2 0x7F1 JUMP JUMPDEST PUSH2 0x1C6 JUMP JUMPDEST STOP JUMPDEST PUSH2 0xC4 PUSH2 0x2B6 JUMP JUMPDEST STOP JUMPDEST PUSH2 0xCE PUSH2 0x3AA JUMP JUMPDEST PUSH1 0x40 MLOAD PUSH2 0xDB SWAP2 SWAP1 PUSH2 0x91F JUMP JUMPDEST PUSH1 0x40 MLOAD DUP1 SWAP2 SUB SWAP1 RETURN JUMPDEST PUSH2 0xEC PUSH2 0x435 JUMP JUMPDEST PUSH1 0x40 MLOAD PUSH2 0xF9 SWAP2 SWAP1 PUSH2 0x957 JUMP JUMPDEST PUSH1 0x40 MLOAD DUP1 SWAP2 SUB SWAP1 RETURN JUMPDEST PUSH2 0x10A PUSH2 0x43D JUMP JUMPDEST PUSH1 0x40 MLOAD PUSH2 0x117 SWAP2 SWAP1 PUSH2 0x957 JUMP JUMPDEST PUSH1 0x40 MLOAD DUP1 SWAP2 SUB SWAP1 RETURN JUMPDEST PUSH2 0x128 PUSH2 0x442 JUMP JUMPDEST PUSH1 0x40 MLOAD PUSH2 0x135 SWAP2 SWAP1 PUSH2 0x97F JUMP JUMPDEST PUSH1 0x40 MLOAD DUP1 SWAP2 SUB SWAP1 RETURN JUMPDEST PUSH2 0x158 PUSH1 0x4 DUP1 CALLDATASIZE SUB DUP2 ADD SWAP1 PUSH2 0x153 SWAP2 SWAP1 PUSH2 0x9C2 JUMP JUMPDEST PUSH2 0x467 JUMP JUMPDEST PUSH1 0x40 MLOAD PUSH2 0x165 SWAP2 SWAP1 PUSH2 0x97F JUMP JUMPDEST PUSH1 0x40 MLOAD DUP1 SWAP2 SUB SWAP1 RETURN JUMPDEST PUSH2 0x188 PUSH1 0x4 DUP1 CALLDATASIZE SUB DUP2 ADD SWAP1 PUSH2 0x183 SWAP2 SWAP1 PUSH2 0x9C2 JUMP JUMPDEST PUSH2 0x4A2 JUMP JUMPDEST STOP JUMPDEST PUSH2 0x192 PUSH2 0x588 JUMP JUMPDEST PUSH1 0x40 MLOAD PUSH2 0x19F SWAP2 SWAP1 PUSH2 0xA4D JUMP JUMPDEST PUSH1 0x40 MLOAD DUP1 SWAP2 SUB SWAP1 RETURN JUMPDEST PUSH2 0x1B0 PUSH2 0x618 JUMP JUMPDEST PUSH1 0x40 MLOAD PUSH2 0x1BD SWAP2 SWAP1 PUSH2 0xA4D JUMP JUMPDEST PUSH1 0x40 MLOAD DUP1 SWAP2 SUB SWAP1 RETURN JUMPDEST PUSH1 0x2 PUSH0 SWAP1 SLOAD SWAP1 PUSH2 0x100 EXP SWAP1 DIV PUSH20 0xFFFFFFFFFFFFFFFFFFFFFFFFFFFFFFFFFFFFFFFF AND PUSH20 0xFFFFFFFFFFFFFFFFFFFFFFFFFFFFFFFFFFFFFFFF AND CALLER PUSH20 0xFFFFFFFFFFFFFFFFFFFFFFFFFFFFFFFFFFFFFFFF AND EQ PUSH2 0x255 JUMPI PUSH1 0x40 MLOAD PUSH32 0x8C379A000000000000000000000000000000000000000000000000000000000 DUP2 MSTORE PUSH1 0x4 ADD PUSH2 0x24C SWAP1 PUSH2 0xAB7 JUMP JUMPDEST PUSH1 0x40 MLOAD DUP1 SWAP2 SUB SWAP1 REVERT JUMPDEST DUP1 PUSH1 0x1 SWAP1 DUP2 PUSH2 0x264 SWAP2 SWAP1 PUSH2 0xCCF JUMP JUMPDEST POP CALLER PUSH20 0xFFFFFFFFFFFFFFFFFFFFFFFFFFFFFFFFFFFFFFFF AND PUSH32 0xC3C5E7649F21B5B486D54682C6FD9BB40C3FA82D872BEAC86E926D70F9A8DF4B DUP3 PUSH1 0x40 MLOAD PUSH2 0x2AB SWAP2 SWAP1 PUSH2 0xA4D JUMP JUMPDEST PUSH1 0x40 MLOAD DUP1 SWAP2 SUB SWAP1 LOG2 POP JUMP JUMPDEST PUSH0 JUMPDEST PUSH1 0x3 DUP1 SLOAD SWAP1 POP DUP2 LT ISZERO PUSH2 0x346 JUMPI CALLER PUSH20 0xFFFFFFFFFFFFFFFFFFFFFFFFFFFFFFFFFFFFFFFF AND PUSH1 0x3 DUP3 DUP2 SLOAD DUP2 LT PUSH2 0x2F0 JUMPI PUSH2 0x2EF PUSH2 0xD9E JUMP JUMPDEST JUMPDEST SWAP1 PUSH0 MSTORE PUSH1 0x20 PUSH0 KECCAK256 ADD PUSH0 SWAP1 SLOAD SWAP1 PUSH2 0x100 EXP SWAP1 DIV PUSH20 0xFFFFFFFFFFFFFFFFFFFFFFFFFFFFFFFFFFFFFFFF AND PUSH20 0xFFFFFFFFFFFFFFFFFFFFFFFFFFFFFFFFFFFFFFFF AND SUB PUSH2 0x339 JUMPI POP PUSH2 0x3A8 JUMP JUMPDEST DUP1 DUP1 PUSH1 0x1 ADD SWAP2 POP POP PUSH2 0x2B8 JUMP JUMPDEST POP PUSH1 0x3 CALLER SWAP1 DUP1 PUSH1 0x1 DUP2 SLOAD ADD DUP1 DUP3 SSTORE DUP1 SWAP2 POP POP PUSH1 0x1 SWAP1 SUB SWAP1 PUSH0 MSTORE PUSH1 0x20 PUSH0 KECCAK256 ADD PUSH0 SWAP1 SWAP2 SWAP1 SWAP2 SWAP1 SWAP2 PUSH2 0x100 EXP DUP2 SLOAD DUP2 PUSH20 0xFFFFFFFFFFFFFFFFFFFFFFFFFFFFFFFFFFFFFFFF MUL NOT AND SWAP1 DUP4 PUSH20 0xFFFFFFFFFFFFFFFFFFFFFFFFFFFFFFFFFFFFFFFF AND MUL OR SWAP1 SSTORE POP JUMPDEST JUMP JUMPDEST PUSH1 0x60 PUSH1 0x3 DUP1 SLOAD DUP1 PUSH1 0x20 MUL PUSH1 0x20 ADD PUSH1 0x40 MLOAD SWAP1 DUP2 ADD PUSH1 0x40 MSTORE DUP1 SWAP3 SWAP2 SWAP1 DUP2 DUP2 MSTORE PUSH1 0x20 ADD DUP3 DUP1 SLOAD DUP1 ISZERO PUSH2 0x42B JUMPI PUSH1 0x20 MUL DUP3 ADD SWAP2 SWAP1 PUSH0 MSTORE PUSH1 0x20 PUSH0 KECCAK256 SWAP1 JUMPDEST DUP2 PUSH0 SWAP1 SLOAD SWAP1 PUSH2 0x100 EXP SWAP1 DIV PUSH20 0xFFFFFFFFFFFFFFFFFFFFFFFFFFFFFFFFFFFFFFFF AND PUSH20 0xFFFFFFFFFFFFFFFFFFFFFFFFFFFFFFFFFFFFFFFF AND DUP2 MSTORE PUSH1 0x20 ADD SWAP1 PUSH1 0x1 ADD SWAP1 DUP1 DUP4 GT PUSH2 0x3E2 JUMPI JUMPDEST POP POP POP POP POP SWAP1 POP SWAP1 JUMP JUMPDEST PUSH0 DUP1 SLOAD SWAP1 POP SWAP1 JUMP JUMPDEST PUSH0 SLOAD DUP2 JUMP JUMPDEST PUSH1 0x2 PUSH0 SWAP1 SLOAD SWAP1 PUSH2 0x100 EXP SWAP1 DIV PUSH20 0xFFFFFFFFFFFFFFFFFFFFFFFFFFFFFFFFFFFFFFFF AND DUP2 JUMP JUMPDEST PUSH1 0x3 DUP2 DUP2 SLOAD DUP2 LT PUSH2 0x476 JUMPI PUSH0 DUP1 REVERT JUMPDEST SWAP1 PUSH0 MSTORE PUSH1 0x20 PUSH0 KECCAK256 ADD PUSH0 SWAP2 POP SLOAD SWAP1 PUSH2 0x100 EXP SWAP1 DIV PUSH20 0xFFFFFFFFFFFFFFFFFFFFFFFFFFFFFFFFFFFFFFFF AND DUP2 JUMP JUMPDEST PUSH1 0x2 PUSH0 SWAP1 SLOAD SWAP1 PUSH2 0x100 EXP SWAP1 DIV PUSH20 0xFFFFFFFFFFFFFFFFFFFFFFFFFFFFFFFFFFFFFFFF AND PUSH20 0xFFFFFFFFFFFFFFFFFFFFFFFFFFFFFFFFFFFFFFFF AND CALLER PUSH20 0xFFFFFFFFFFFFFFFFFFFFFFFFFFFFFFFFFFFFFFFF AND EQ PUSH2 0x531 JUMPI PUSH1 0x40 MLOAD PUSH32 0x8C379A000000000000000000000000000000000000000000000000000000000 DUP2 MSTORE PUSH1 0x4 ADD PUSH2 0x528 SWAP1 PUSH2 0xAB7 JUMP JUMPDEST PUSH1 0x40 MLOAD DUP1 SWAP2 SUB SWAP1 REVERT JUMPDEST DUP1 PUSH0 DUP2 SWAP1 SSTORE POP CALLER PUSH20 0xFFFFFFFFFFFFFFFFFFFFFFFFFFFFFFFFFFFFFFFF AND PUSH32 0xED65CF72675C57660E67B5E615EC8981E01E5DEEBCE7713B9EE2A1C991E5EB26 DUP3 PUSH1 0x40 MLOAD PUSH2 0x57D SWAP2 SWAP1 PUSH2 0x957 JUMP JUMPDEST PUSH1 0x40 MLOAD DUP1 SWAP2 SUB SWAP1 LOG2 POP JUMP JUMPDEST PUSH1 0x60 PUSH1 0x1 DUP1 SLOAD PUSH2 0x597 SWAP1 PUSH2 0xB02 JUMP JUMPDEST DUP1 PUSH1 0x1F ADD PUSH1 0x20 DUP1 SWAP2 DIV MUL PUSH1 0x20 ADD PUSH1 0x40 MLOAD SWAP1 DUP2 ADD PUSH1 0x40 MSTORE DUP1 SWAP3 SWAP2 SWAP1 DUP2 DUP2 MSTORE PUSH1 0x20 ADD DUP3 DUP1 SLOAD PUSH2 0x5C3 SWAP1 PUSH2 0xB02 JUMP JUMPDEST DUP1 ISZERO PUSH2 0x60E JUMPI DUP1 PUSH1 0x1F LT PUSH2 0x5E5 JUMPI PUSH2 0x100 DUP1 DUP4 SLOAD DIV MUL DUP4 MSTORE SWAP2 PUSH1 0x20 ADD SWAP2 PUSH2 0x60E JUMP JUMPDEST DUP3 ADD SWAP2 SWAP1 PUSH0 MSTORE PUSH1 0x20 PUSH0 KECCAK256 SWAP1 JUMPDEST DUP2 SLOAD DUP2 MSTORE SWAP1 PUSH1 0x1 ADD SWAP1 PUSH1 0x20 ADD DUP1 DUP4 GT PUSH2 0x5F1 JUMPI DUP3 SWAP1 SUB PUSH1 0x1F AND DUP3 ADD SWAP2 JUMPDEST POP POP POP POP POP SWAP1 POP SWAP1 JUMP JUMPDEST PUSH1 0x1 DUP1 SLOAD PUSH2 0x625 SWAP1 PUSH2 0xB02 JUMP JUMPDEST DUP1 PUSH1 0x1F ADD PUSH1 0x20 DUP1 SWAP2 DIV MUL PUSH1 0x20 ADD PUSH1 0x40 MLOAD SWAP1 DUP2 ADD PUSH1 0x40 MSTORE DUP1 SWAP3 SWAP2 SWAP1 DUP2 DUP2 MSTORE PUSH1 0x20 ADD DUP3 DUP1 SLOAD PUSH2 0x651 SWAP1 PUSH2 0xB02 JUMP JUMPDEST DUP1 ISZERO PUSH2 0x69C JUMPI DUP1 PUSH1 0x1F LT PUSH2 0x673 JUMPI PUSH2 0x100 DUP1 DUP4 SLOAD DIV MUL DUP4 MSTORE SWAP2 PUSH1 0x20 ADD SWAP2 PUSH2 0x69C JUMP JUMPDEST DUP3 ADD SWAP2 SWAP1 PUSH0 MSTORE PUSH1 0x20 PUSH0 KECCAK256 SWAP1 JUMPDEST DUP2 SLOAD DUP2 MSTORE SWAP1 PUSH1 0x1 ADD SWAP1 PUSH1 0x20 ADD DUP1 DUP4 GT PUSH2 0x67F JUMPI DUP3 SWAP1 SUB PUSH1 0x1F AND DUP3 ADD SWAP2 JUMPDEST POP POP POP POP POP DUP2 JUMP JUMPDEST PUSH0 PUSH1 0x40 MLOAD SWAP1 POP SWAP1 JUMP JUMPDEST PUSH0 DUP1 REVERT JUMPDEST PUSH0 DUP1 REVERT JUMPDEST PUSH0 DUP1 REVERT JUMPDEST PUSH0 DUP1 REVERT JUMPDEST PUSH0 PUSH1 0x1F NOT PUSH1 0x1F DUP4 ADD AND SWAP1 POP SWAP2 SWAP1 POP JUMP JUMPDEST PUSH32 0x4E487B7100000000000000000000000000000000000000000000000000000000 PUSH0 MSTORE PUSH1 0x41 PUSH1 0x4 MSTORE PUSH1 0x24 PUSH0 REVERT JUMPDEST PUSH2 0x703 DUP3 PUSH2 0x6BD JUMP JUMPDEST DUP2 ADD DUP2 DUP2 LT PUSH8 0xFFFFFFFFFFFFFFFF DUP3 GT OR ISZERO PUSH2 0x722 JUMPI PUSH2 0x721 PUSH2 0x6CD JUMP JUMPDEST JUMPDEST DUP1 PUSH1 0x40 MSTORE POP POP POP JUMP JUMPDEST PUSH0 PUSH2 0x734 PUSH2 0x6A4 JUMP JUMPDEST SWAP1 POP PUSH2 0x740 DUP3 DUP3 PUSH2 0x6FA JUMP JUMPDEST SWAP2 SWAP1 POP JUMP JUMPDEST PUSH0 PUSH8 0xFFFFFFFFFFFFFFFF DUP3 GT ISZERO PUSH2 0x75F JUMPI PUSH2 0x75E PUSH2 0x6CD JUMP JUMPDEST JUMPDEST PUSH2 0x768 DUP3 PUSH2 0x6BD JUMP JUMPDEST SWAP1 POP PUSH1 0x20 DUP2 ADD SWAP1 POP SWAP2 SWAP1 POP JUMP JUMPDEST DUP3 DUP2 DUP4 CALLDATACOPY PUSH0 DUP4 DUP4 ADD MSTORE POP POP POP JUMP JUMPDEST PUSH0 PUSH2 0x795 PUSH2 0x790 DUP5 PUSH2 0x745 JUMP JUMPDEST PUSH2 0x72B JUMP JUMPDEST SWAP1 POP DUP3 DUP2 MSTORE PUSH1 0x20 DUP2 ADD DUP5 DUP5 DUP5 ADD GT ISZERO PUSH2 0x7B1 JUMPI PUSH2 0x7B0 PUSH2 0x6B9 JUMP JUMPDEST JUMPDEST PUSH2 0x7BC DUP5 DUP3 DUP6 PUSH2 0x775 JUMP JUMPDEST POP SWAP4 SWAP3 POP POP POP JUMP JUMPDEST PUSH0 DUP3 PUSH1 0x1F DUP4 ADD SLT PUSH2 0x7D8 JUMPI PUSH2 0x7D7 PUSH2 0x6B5 JUMP JUMPDEST JUMPDEST DUP2 CALLDATALOAD PUSH2 0x7E8 DUP5 DUP3 PUSH1 0x20 DUP7 ADD PUSH2 0x783 JUMP JUMPDEST SWAP2 POP POP SWAP3 SWAP2 POP POP JUMP JUMPDEST PUSH0 PUSH1 0x20 DUP3 DUP5 SUB SLT ISZERO PUSH2 0x806 JUMPI PUSH2 0x805 PUSH2 0x6AD JUMP JUMPDEST JUMPDEST PUSH0 DUP3 ADD CALLDATALOAD PUSH8 0xFFFFFFFFFFFFFFFF DUP2 GT ISZERO PUSH2 0x823 JUMPI PUSH2 0x822 PUSH2 0x6B1 JUMP JUMPDEST JUMPDEST PUSH2 0x82F DUP5 DUP3 DUP6 ADD PUSH2 0x7C4 JUMP JUMPDEST SWAP2 POP POP SWAP3 SWAP2 POP POP JUMP JUMPDEST PUSH0 DUP2 MLOAD SWAP1 POP SWAP2 SWAP1 POP JUMP JUMPDEST PUSH0 DUP3 DUP3 MSTORE PUSH1 0x20 DUP3 ADD SWAP1 POP SWAP3 SWAP2 POP POP JUMP JUMPDEST PUSH0 DUP2 SWAP1 POP PUSH1 0x20 DUP3 ADD SWAP1 POP SWAP2 SWAP1 POP JUMP JUMPDEST PUSH0 PUSH20 0xFFFFFFFFFFFFFFFFFFFFFFFFFFFFFFFFFFFFFFFF DUP3 AND SWAP1 POP SWAP2 SWAP1 POP JUMP JUMPDEST PUSH0 PUSH2 0x88A DUP3 PUSH2 0x861 JUMP JUMPDEST SWAP1 POP SWAP2 SWAP1 POP JUMP JUMPDEST PUSH2 0x89A DUP2 PUSH2 0x880 JUMP JUMPDEST DUP3 MSTORE POP POP JUMP JUMPDEST PUSH0 PUSH2 0x8AB DUP4 DUP4 PUSH2 0x891 JUMP JUMPDEST PUSH1 0x20 DUP4 ADD SWAP1 POP SWAP3 SWAP2 POP POP JUMP JUMPDEST PUSH0 PUSH1 0x20 DUP3 ADD SWAP1 POP SWAP2 SWAP1 POP JUMP JUMPDEST PUSH0 PUSH2 0x8CD DUP3 PUSH2 0x838 JUMP JUMPDEST PUSH2 0x8D7 DUP2 DUP6 PUSH2 0x842 JUMP JUMPDEST SWAP4 POP PUSH2 0x8E2 DUP4 PUSH2 0x852 JUMP JUMPDEST DUP1 PUSH0 JUMPDEST DUP4 DUP2 LT ISZERO PUSH2 0x912 JUMPI DUP2 MLOAD PUSH2 0x8F9 DUP9 DUP3 PUSH2 0x8A0 JUMP JUMPDEST SWAP8 POP PUSH2 0x904 DUP4 PUSH2 0x8B7 JUMP JUMPDEST SWAP3 POP POP PUSH1 0x1 DUP2 ADD SWAP1 POP PUSH2 0x8E5 JUMP JUMPDEST POP DUP6 SWAP4 POP POP POP POP SWAP3 SWAP2 POP POP JUMP JUMPDEST PUSH0 PUSH1 0x20 DUP3 ADD SWAP1 POP DUP2 DUP2 SUB PUSH0 DUP4 ADD MSTORE PUSH2 0x937 DUP2 DUP5 PUSH2 0x8C3 JUMP JUMPDEST SWAP1 POP SWAP3 SWAP2 POP POP JUMP JUMPDEST PUSH0 DUP2 SWAP1 POP SWAP2 SWAP1 POP JUMP JUMPDEST PUSH2 0x951 DUP2 PUSH2 0x93F JUMP JUMPDEST DUP3 MSTORE POP POP JUMP JUMPDEST PUSH0 PUSH1 0x20 DUP3 ADD SWAP1 POP PUSH2 0x96A PUSH0 DUP4 ADD DUP5 PUSH2 0x948 JUMP JUMPDEST SWAP3 SWAP2 POP POP JUMP JUMPDEST PUSH2 0x979 DUP2 PUSH2 0x880 JUMP JUMPDEST DUP3 MSTORE POP POP JUMP JUMPDEST PUSH0 PUSH1 0x20 DUP3 ADD SWAP1 POP PUSH2 0x992 PUSH0 DUP4 ADD DUP5 PUSH2 0x970 JUMP JUMPDEST SWAP3 SWAP2 POP POP JUMP JUMPDEST PUSH2 0x9A1 DUP2 PUSH2 0x93F JUMP JUMPDEST DUP2 EQ PUSH2 0x9AB JUMPI PUSH0 DUP1 REVERT JUMPDEST POP JUMP JUMPDEST PUSH0 DUP2 CALLDATALOAD SWAP1 POP PUSH2 0x9BC DUP2 PUSH2 0x998 JUMP JUMPDEST SWAP3 SWAP2 POP POP JUMP JUMPDEST PUSH0 PUSH1 0x20 DUP3 DUP5 SUB SLT ISZERO PUSH2 0x9D7 JUMPI PUSH2 0x9D6 PUSH2 0x6AD JUMP JUMPDEST JUMPDEST PUSH0 PUSH2 0x9E4 DUP5 DUP3 DUP6 ADD PUSH2 0x9AE JUMP JUMPDEST SWAP2 POP POP SWAP3 SWAP2 POP POP JUMP JUMPDEST PUSH0 DUP2 MLOAD SWAP1 POP SWAP2 SWAP1 POP JUMP JUMPDEST PUSH0 DUP3 DUP3 MSTORE PUSH1 0x20 DUP3 ADD SWAP1 POP SWAP3 SWAP2 POP POP JUMP JUMPDEST DUP3 DUP2 DUP4 MCOPY PUSH0 DUP4 DUP4 ADD MSTORE POP POP POP JUMP JUMPDEST PUSH0 PUSH2 0xA1F DUP3 PUSH2 0x9ED JUMP JUMPDEST PUSH2 0xA29 DUP2 DUP6 PUSH2 0x9F7 JUMP JUMPDEST SWAP4 POP PUSH2 0xA39 DUP2 DUP6 PUSH1 0x20 DUP7 ADD PUSH2 0xA07 JUMP JUMPDEST PUSH2 0xA42 DUP2 PUSH2 0x6BD JUMP JUMPDEST DUP5 ADD SWAP2 POP POP SWAP3 SWAP2 POP POP JUMP JUMPDEST PUSH0 PUSH1 0x20 DUP3 ADD SWAP1 POP DUP2 DUP2 SUB PUSH0 DUP4 ADD MSTORE PUSH2 0xA65 DUP2 DUP5 PUSH2 0xA15 JUMP JUMPDEST SWAP1 POP SWAP3 SWAP2 POP POP JUMP JUMPDEST PUSH32 0x596F7520617265206E6F7420746865206F776E65720000000000000000000000 PUSH0 DUP3 ADD MSTORE POP JUMP JUMPDEST PUSH0 PUSH2 0xAA1 PUSH1 0x15 DUP4 PUSH2 0x9F7 JUMP JUMPDEST SWAP2 POP PUSH2 0xAAC DUP3 PUSH2 0xA6D JUMP JUMPDEST PUSH1 0x20 DUP3 ADD SWAP1 POP SWAP2 SWAP1 POP JUMP JUMPDEST PUSH0 PUSH1 0x20 DUP3 ADD SWAP1 POP DUP2 DUP2 SUB PUSH0 DUP4 ADD MSTORE PUSH2 0xACE DUP2 PUSH2 0xA95 JUMP JUMPDEST SWAP1 POP SWAP2 SWAP1 POP JUMP JUMPDEST PUSH32 0x4E487B7100000000000000000000000000000000000000000000000000000000 PUSH0 MSTORE PUSH1 0x22 PUSH1 0x4 MSTORE PUSH1 0x24 PUSH0 REVERT JUMPDEST PUSH0 PUSH1 0x2 DUP3 DIV SWAP1 POP PUSH1 0x1 DUP3 AND DUP1 PUSH2 0xB19 JUMPI PUSH1 0x7F DUP3 AND SWAP2 POP JUMPDEST PUSH1 0x20 DUP3 LT DUP2 SUB PUSH2 0xB2C JUMPI PUSH2 0xB2B PUSH2 0xAD5 JUMP JUMPDEST JUMPDEST POP SWAP2 SWAP1 POP JUMP JUMPDEST PUSH0 DUP2 SWAP1 POP DUP2 PUSH0 MSTORE PUSH1 0x20 PUSH0 KECCAK256 SWAP1 POP SWAP2 SWAP1 POP JUMP JUMPDEST PUSH0 PUSH1 0x20 PUSH1 0x1F DUP4 ADD DIV SWAP1 POP SWAP2 SWAP1 POP JUMP JUMPDEST PUSH0 DUP3 DUP3 SHL SWAP1 POP SWAP3 SWAP2 POP POP JUMP JUMPDEST PUSH0 PUSH1 0x8 DUP4 MUL PUSH2 0xB8E PUSH32 0xFFFFFFFFFFFFFFFFFFFFFFFFFFFFFFFFFFFFFFFFFFFFFFFFFFFFFFFFFFFFFFFF DUP3 PUSH2 0xB53 JUMP JUMPDEST PUSH2 0xB98 DUP7 DUP4 PUSH2 0xB53 JUMP JUMPDEST SWAP6 POP DUP1 NOT DUP5 AND SWAP4 POP DUP1 DUP7 AND DUP5 OR SWAP3 POP POP POP SWAP4 SWAP3 POP POP POP JUMP JUMPDEST PUSH0 DUP2 SWAP1 POP SWAP2 SWAP1 POP JUMP JUMPDEST PUSH0 PUSH2 0xBD3 PUSH2 0xBCE PUSH2 0xBC9 DUP5 PUSH2 0x93F JUMP JUMPDEST PUSH2 0xBB0 JUMP JUMPDEST PUSH2 0x93F JUMP JUMPDEST SWAP1 POP SWAP2 SWAP1 POP JUMP JUMPDEST PUSH0 DUP2 SWAP1 POP SWAP2 SWAP1 POP JUMP JUMPDEST PUSH2 0xBEC DUP4 PUSH2 0xBB9 JUMP JUMPDEST PUSH2 0xC00 PUSH2 0xBF8 DUP3 PUSH2 0xBDA JUMP JUMPDEST DUP5 DUP5 SLOAD PUSH2 0xB5F JUMP JUMPDEST DUP3 SSTORE POP POP POP POP JUMP JUMPDEST PUSH0 SWAP1 JUMP JUMPDEST PUSH2 0xC14 PUSH2 0xC08 JUMP JUMPDEST PUSH2 0xC1F DUP2 DUP5 DUP5 PUSH2 0xBE3 JUMP JUMPDEST POP POP POP JUMP JUMPDEST JUMPDEST DUP2 DUP2 LT ISZERO PUSH2 0xC42 JUMPI PUSH2 0xC37 PUSH0 DUP3 PUSH2 0xC0C JUMP JUMPDEST PUSH1 0x1 DUP2 ADD SWAP1 POP PUSH2 0xC25 JUMP JUMPDEST POP POP JUMP JUMPDEST PUSH1 0x1F DUP3 GT ISZERO PUSH2 0xC87 JUMPI PUSH2 0xC58 DUP2 PUSH2 0xB32 JUMP JUMPDEST PUSH2 0xC61 DUP5 PUSH2 0xB44 JUMP JUMPDEST DUP2 ADD PUSH1 0x20 DUP6 LT ISZERO PUSH2 0xC70 JUMPI DUP2 SWAP1 POP JUMPDEST PUSH2 0xC84 PUSH2 0xC7C DUP6 PUSH2 0xB44 JUMP JUMPDEST DUP4 ADD DUP3 PUSH2 0xC24 JUMP JUMPDEST POP POP JUMPDEST POP POP POP JUMP JUMPDEST PUSH0 DUP3 DUP3 SHR SWAP1 POP SWAP3 SWAP2 POP POP JUMP JUMPDEST PUSH0 PUSH2 0xCA7 PUSH0 NOT DUP5 PUSH1 0x8 MUL PUSH2 0xC8C JUMP JUMPDEST NOT DUP1 DUP4 AND SWAP2 POP POP SWAP3 SWAP2 POP POP JUMP JUMPDEST PUSH0 PUSH2 0xCBF DUP4 DUP4 PUSH2 0xC98 JUMP JUMPDEST SWAP2 POP DUP3 PUSH1 0x2 MUL DUP3 OR SWAP1 POP SWAP3 SWAP2 POP POP JUMP JUMPDEST PUSH2 0xCD8 DUP3 PUSH2 0x9ED JUMP JUMPDEST PUSH8 0xFFFFFFFFFFFFFFFF DUP2 GT ISZERO PUSH2 0xCF1 JUMPI PUSH2 0xCF0 PUSH2 0x6CD JUMP JUMPDEST JUMPDEST PUSH2 0xCFB DUP3 SLOAD PUSH2 0xB02 JUMP JUMPDEST PUSH2 0xD06 DUP3 DUP3 DUP6 PUSH2 0xC46 JUMP JUMPDEST PUSH0 PUSH1 0x20 SWAP1 POP PUSH1 0x1F DUP4 GT PUSH1 0x1 DUP2 EQ PUSH2 0xD37 JUMPI PUSH0 DUP5 ISZERO PUSH2 0xD25 JUMPI DUP3 DUP8 ADD MLOAD SWAP1 POP JUMPDEST PUSH2 0xD2F DUP6 DUP3 PUSH2 0xCB4 JUMP JUMPDEST DUP7 SSTORE POP PUSH2 0xD96 JUMP JUMPDEST PUSH1 0x1F NOT DUP5 AND PUSH2 0xD45 DUP7 PUSH2 0xB32 JUMP JUMPDEST PUSH0 JUMPDEST DUP3 DUP2 LT ISZERO PUSH2 0xD6C JUMPI DUP5 DUP10 ADD MLOAD DUP3 SSTORE PUSH1 0x1 DUP3 ADD SWAP2 POP PUSH1 0x20 DUP6 ADD SWAP5 POP PUSH1 0x20 DUP2 ADD SWAP1 POP PUSH2 0xD47 JUMP JUMPDEST DUP7 DUP4 LT ISZERO PUSH2 0xD89 JUMPI DUP5 DUP10 ADD MLOAD PUSH2 0xD85 PUSH1 0x1F DUP10 AND DUP3 PUSH2 0xC98 JUMP JUMPDEST DUP4 SSTORE POP JUMPDEST PUSH1 0x1 PUSH1 0x2 DUP9 MUL ADD DUP9 SSTORE POP POP POP JUMPDEST POP POP POP POP POP POP JUMP JUMPDEST PUSH32 0x4E487B7100000000000000000000000000000000000000000000000000000000 PUSH0 MSTORE PUSH1 0x32 PUSH1 0x4 MSTORE PUSH1 0x24 PUSH0 REVERT INVALID LOG2 PUSH5 0x6970667358 0x22 SLT KECCAK256 0xAE BYTE 0xC3 MLOAD PUSH13 0x7C1D71DFE715B9F486ADD39AEA SLT PUSH29 0xD7851EFF73BC8E6F44A9316264736F6C634300081A0033000000000000 "
				},
				"gasEstimates": {
					"creation": {
						"codeDepositCost": "717000",
						"executionCost": "25016",
						"totalCost": "742016"
					},
					"external": {
						"getMessage()": "infinite",
						"getNum()": "2499",
						"getVisitors()": "infinite",
						"leaveFootprint()": "infinite",
						"message()": "infinite",
						"number()": "2513",
						"owner()": "2508",
						"setMessage(string)": "infinite",
						"setNum(uint256)": "infinite",
						"visitor(uint256)": "4966"
					}
				},
				"methodIdentifiers": {
					"getMessage()": "ce6d41de",
					"getNum()": "67e0badb",
					"getVisitors()": "63180e37",
					"leaveFootprint()": "37be359b",
					"message()": "e21f37ce",
					"number()": "8381f58a",
					"owner()": "8da5cb5b",
					"setMessage(string)": "368b8772",
					"setNum(uint256)": "cd16ecbf",
					"visitor(uint256)": "955ada63"
				}
			},
			"storageLayout": {
				"storage": [
					{
						"astId": 3,
						"contract": "contracts/Simple_Storage.sol:SimpleStorage",
						"label": "number",
						"offset": 0,
						"slot": "0",
						"type": "t_uint256"
					},
					{
						"astId": 5,
						"contract": "contracts/Simple_Storage.sol:SimpleStorage",
						"label": "message",
						"offset": 0,
						"slot": "1",
						"type": "t_string_storage"
					},
					{
						"astId": 7,
						"contract": "contracts/Simple_Storage.sol:SimpleStorage",
						"label": "owner",
						"offset": 0,
						"slot": "2",
						"type": "t_address"
					},
					{
						"astId": 10,
						"contract": "contracts/Simple_Storage.sol:SimpleStorage",
						"label": "visitor",
						"offset": 0,
						"slot": "3",
						"type": "t_array(t_address)dyn_storage"
					}
				],
				"types": {
					"t_address": {
						"encoding": "inplace",
						"label": "address",
						"numberOfBytes": "20"
					},
					"t_array(t_address)dyn_storage": {
						"base": "t_address",
						"encoding": "dynamic_array",
						"label": "address[]",
						"numberOfBytes": "32"
					},
					"t_string_storage": {
						"encoding": "bytes",
						"label": "string",
						"numberOfBytes": "32"
					},
					"t_uint256": {
						"encoding": "inplace",
						"label": "uint256",
						"numberOfBytes": "32"
					}
				}
			},
			"userdoc": {
				"kind": "user",
				"methods": {},
				"version": 1
			}
		}
	}
}