{
	"contracts/Voting.sol": {
		"Voting": {
			"abi": [
				{
					"inputs": [],
					"stateMutability": "nonpayable",
					"type": "constructor"
				},
				{
					"anonymous": false,
					"inputs": [
						{
							"indexed": false,
							"internalType": "uint256",
							"name": "id",
							"type": "uint256"
						},
						{
							"indexed": false,
							"internalType": "string",
							"name": "name",
							"type": "string"
						}
					],
					"name": "CandidateAdded",
					"type": "event"
				},
				{
					"anonymous": false,
					"inputs": [
						{
							"indexed": true,
							"internalType": "address",
							"name": "sender",
							"type": "address"
						},
						{
							"indexed": false,
							"internalType": "uint256",
							"name": "candidateId",
							"type": "uint256"
						}
					],
					"name": "VoteCast",
					"type": "event"
				},
				{
					"inputs": [
						{
							"internalType": "string",
							"name": "_name",
							"type": "string"
						}
					],
					"name": "addCandidate",
					"outputs": [],
					"stateMutability": "nonpayable",
					"type": "function"
				},
				{
					"inputs": [
						{
							"internalType": "uint256",
							"name": "",
							"type": "uint256"
						}
					],
					"name": "candidates",
					"outputs": [
						{
							"internalType": "uint256",
							"name": "id",
							"type": "uint256"
						},
						{
							"internalType": "string",
							"name": "name",
							"type": "string"
						},
						{
							"internalType": "uint256",
							"name": "voteCount",
							"type": "uint256"
						}
					],
					"stateMutability": "view",
					"type": "function"
				},
				{
					"inputs": [],
					"name": "candidatesCount",
					"outputs": [
						{
							"internalType": "uint256",
							"name": "",
							"type": "uint256"
						}
					],
					"stateMutability": "view",
					"type": "function"
				},
				{
					"inputs": [],
					"name": "getCandidates",
					"outputs": [
						{
							"components": [
								{
									"internalType": "uint256",
									"name": "id",
									"type": "uint256"
								},
								{
									"internalType": "string",
									"name": "name",
									"type": "string"
								},
								{
									"internalType": "uint256",
									"name": "voteCount",
									"type": "uint256"
								}
							],
							"internalType": "struct Voting.Candidate[]",
							"name": "",
							"type": "tuple[]"
						}
					],
					"stateMutability": "view",
					"type": "function"
				},
				{
					"inputs": [
						{
							"internalType": "uint256",
							"name": "_candidateId",
							"type": "uint256"
						}
					],
					"name": "getVotes",
					"outputs": [
						{
							"internalType": "uint256",
							"name": "",
							"type": "uint256"
						}
					],
					"stateMutability": "view",
					"type": "function"
				},
				{
					"inputs": [],
					"name": "owner",
					"outputs": [
						{
							"internalType": "address",
							"name": "",
							"type": "address"
						}
					],
					"stateMutability": "view",
					"type": "function"
				},
				{
					"inputs": [
						{
							"internalType": "uint256",
							"name": "_duration",
							"type": "uint256"
						}
					],
					"name": "setVotingPeriod",
					"outputs": [],
					"stateMutability": "nonpayable",
					"type": "function"
				},
				{
					"inputs": [],
					"name": "totalVotes",
					"outputs": [
						{
							"internalType": "uint256",
							"name": "",
							"type": "uint256"
						}
					],
					"stateMutability": "view",
					"type": "function"
				},
				{
					"inputs": [
						{
							"internalType": "uint256",
							"name": "_candidateId",
							"type": "uint256"
						}
					],
					"name": "vote",
					"outputs": [],
					"stateMutability": "nonpayable",
					"type": "function"
				},
				{
					"inputs": [
						{
							"internalType": "address",
							"name": "",
							"type": "address"
						}
					],
					"name": "voters",
					"outputs": [
						{
							"internalType": "bool",
							"name": "",
							"type": "bool"
						}
					],
					"stateMutability": "view",
					"type": "function"
				},
				{
					"inputs": [],
					"name": "votingEndTime",
					"outputs": [
						{
							"internalType": "uint256",
							"name": "",
							"type": "uint256"
						}
					],
					"stateMutability": "view",
					"type": "function"
				}
			],
			"devdoc": {
				"kind": "dev",
				"methods": {},
				"version": 1
			},
			"evm": {
				"assembly": "    /* \"contracts/Voting.sol\":60:2606  contract Voting {... */\n  mstore(0x40, 0x80)\n    /* \"contracts/Voting.sol\":542:648  constructor() {... */\n  callvalue\n  dup1\n  iszero\n  tag_1\n  jumpi\n  0x00\n  dup1\n  revert\ntag_1:\n  pop\n    /* \"contracts/Voting.sol\":575:585  msg.sender */\n  caller\n    /* \"contracts/Voting.sol\":567:572  owner */\n  0x00\n  dup1\n    /* \"contracts/Voting.sol\":567:585  owner = msg.sender */\n  0x0100\n  exp\n  dup2\n  sload\n  dup2\n  0xffffffffffffffffffffffffffffffffffffffff\n  mul\n  not\n  and\n  swap1\n  dup4\n  0xffffffffffffffffffffffffffffffffffffffff\n  and\n  mul\n  or\n  swap1\n  sstore\n  pop\n    /* \"contracts/Voting.sol\":614:615  0 */\n  0x00\n    /* \"contracts/Voting.sol\":596:611  candidatesCount */\n  0x03\n    /* \"contracts/Voting.sol\":596:615  candidatesCount = 0 */\n  dup2\n  swap1\n  sstore\n  pop\n    /* \"contracts/Voting.sol\":639:640  0 */\n  0x00\n    /* \"contracts/Voting.sol\":626:636  totalVotes */\n  0x04\n    /* \"contracts/Voting.sol\":626:640  totalVotes = 0 */\n  dup2\n  swap1\n  sstore\n  pop\n    /* \"contracts/Voting.sol\":60:2606  contract Voting {... */\n  dataSize(sub_0)\n  dup1\n  dataOffset(sub_0)\n  0x00\n  codecopy\n  0x00\n  return\nstop\n\nsub_0: assembly {\n        /* \"contracts/Voting.sol\":60:2606  contract Voting {... */\n      mstore(0x40, 0x80)\n      callvalue\n      dup1\n      iszero\n      tag_1\n      jumpi\n      0x00\n      dup1\n      revert\n    tag_1:\n      pop\n      jumpi(tag_2, lt(calldatasize, 0x04))\n      shr(0xe0, calldataload(0x00))\n      dup1\n      0x3477ee2e\n      gt\n      tag_14\n      jumpi\n      dup1\n      0x3477ee2e\n      eq\n      tag_8\n      jumpi\n      dup1\n      0x462e91ec\n      eq\n      tag_9\n      jumpi\n      dup1\n      0x8da5cb5b\n      eq\n      tag_10\n      jumpi\n      dup1\n      0xa3ec138d\n      eq\n      tag_11\n      jumpi\n      dup1\n      0xea0217cf\n      eq\n      tag_12\n      jumpi\n      dup1\n      0xff981099\n      eq\n      tag_13\n      jumpi\n      jump(tag_2)\n    tag_14:\n      dup1\n      0x0121b93f\n      eq\n      tag_3\n      jumpi\n      dup1\n      0x06a49fce\n      eq\n      tag_4\n      jumpi\n      dup1\n      0x0d15fd77\n      eq\n      tag_5\n      jumpi\n      dup1\n      0x1ea736e0\n      eq\n      tag_6\n      jumpi\n      dup1\n      0x2d35a8a2\n      eq\n      tag_7\n      jumpi\n    tag_2:\n      0x00\n      dup1\n      revert\n        /* \"contracts/Voting.sol\":1599:1986  function vote(uint256 _candidateId) public onlyDuringVoting{... */\n    tag_3:\n      tag_15\n      0x04\n      dup1\n      calldatasize\n      sub\n      dup2\n      add\n      swap1\n      tag_16\n      swap2\n      swap1\n      tag_17\n      jump\t// in\n    tag_16:\n      tag_18\n      jump\t// in\n    tag_15:\n      stop\n        /* \"contracts/Voting.sol\":2302:2603  function getCandidates() public view returns(Candidate[] memory){... */\n    tag_4:\n      tag_19\n      tag_20\n      jump\t// in\n    tag_19:\n      mload(0x40)\n      tag_21\n      swap2\n      swap1\n      tag_22\n      jump\t// in\n    tag_21:\n      mload(0x40)\n      dup1\n      swap2\n      sub\n      swap1\n      return\n        /* \"contracts/Voting.sol\":415:440  uint256 public totalVotes */\n    tag_5:\n      tag_23\n      tag_24\n      jump\t// in\n    tag_23:\n      mload(0x40)\n      tag_25\n      swap2\n      swap1\n      tag_26\n      jump\t// in\n    tag_25:\n      mload(0x40)\n      dup1\n      swap2\n      sub\n      swap1\n      return\n        /* \"contracts/Voting.sol\":447:475  uint256 public votingEndTime */\n    tag_6:\n      tag_27\n      tag_28\n      jump\t// in\n    tag_27:\n      mload(0x40)\n      tag_29\n      swap2\n      swap1\n      tag_26\n      jump\t// in\n    tag_29:\n      mload(0x40)\n      dup1\n      swap2\n      sub\n      swap1\n      return\n        /* \"contracts/Voting.sol\":378:408  uint256 public candidatesCount */\n    tag_7:\n      tag_30\n      tag_31\n      jump\t// in\n    tag_30:\n      mload(0x40)\n      tag_32\n      swap2\n      swap1\n      tag_26\n      jump\t// in\n    tag_32:\n      mload(0x40)\n      dup1\n      swap2\n      sub\n      swap1\n      return\n        /* \"contracts/Voting.sol\":279:326  mapping(uint256 => Candidate) public candidates */\n    tag_8:\n      tag_33\n      0x04\n      dup1\n      calldatasize\n      sub\n      dup2\n      add\n      swap1\n      tag_34\n      swap2\n      swap1\n      tag_17\n      jump\t// in\n    tag_34:\n      tag_35\n      jump\t// in\n    tag_33:\n      mload(0x40)\n      tag_36\n      swap4\n      swap3\n      swap2\n      swap1\n      tag_37\n      jump\t// in\n    tag_36:\n      mload(0x40)\n      dup1\n      swap2\n      sub\n      swap1\n      return\n        /* \"contracts/Voting.sol\":1331:1557  function addCandidate(string memory _name) public OnlyOwner{... */\n    tag_9:\n      tag_38\n      0x04\n      dup1\n      calldatasize\n      sub\n      dup2\n      add\n      swap1\n      tag_39\n      swap2\n      swap1\n      tag_40\n      jump\t// in\n    tag_39:\n      tag_41\n      jump\t// in\n    tag_38:\n      stop\n        /* \"contracts/Voting.sol\":252:272  address public owner */\n    tag_10:\n      tag_42\n      tag_43\n      jump\t// in\n    tag_42:\n      mload(0x40)\n      tag_44\n      swap2\n      swap1\n      tag_45\n      jump\t// in\n    tag_44:\n      mload(0x40)\n      dup1\n      swap2\n      sub\n      swap1\n      return\n        /* \"contracts/Voting.sol\":333:371  mapping(address => bool) public voters */\n    tag_11:\n      tag_46\n      0x04\n      dup1\n      calldatasize\n      sub\n      dup2\n      add\n      swap1\n      tag_47\n      swap2\n      swap1\n      tag_48\n      jump\t// in\n    tag_47:\n      tag_49\n      jump\t// in\n    tag_46:\n      mload(0x40)\n      tag_50\n      swap2\n      swap1\n      tag_51\n      jump\t// in\n    tag_50:\n      mload(0x40)\n      dup1\n      swap2\n      sub\n      swap1\n      return\n        /* \"contracts/Voting.sol\":1166:1289  function setVotingPeriod(uint256 _duration) public OnlyOwner {... */\n    tag_12:\n      tag_52\n      0x04\n      dup1\n      calldatasize\n      sub\n      dup2\n      add\n      swap1\n      tag_53\n      swap2\n      swap1\n      tag_17\n      jump\t// in\n    tag_53:\n      tag_54\n      jump\t// in\n    tag_52:\n      stop\n        /* \"contracts/Voting.sol\":2032:2256  function getVotes(uint256 _candidateId) public view returns(uint256){... */\n    tag_13:\n      tag_55\n      0x04\n      dup1\n      calldatasize\n      sub\n      dup2\n      add\n      swap1\n      tag_56\n      swap2\n      swap1\n      tag_17\n      jump\t// in\n    tag_56:\n      tag_57\n      jump\t// in\n    tag_55:\n      mload(0x40)\n      tag_58\n      swap2\n      swap1\n      tag_26\n      jump\t// in\n    tag_58:\n      mload(0x40)\n      dup1\n      swap2\n      sub\n      swap1\n      return\n        /* \"contracts/Voting.sol\":1599:1986  function vote(uint256 _candidateId) public onlyDuringVoting{... */\n    tag_18:\n        /* \"contracts/Voting.sol\":1067:1080  votingEndTime */\n      sload(0x05)\n        /* \"contracts/Voting.sol\":1049:1064  block.timestamp */\n      timestamp\n        /* \"contracts/Voting.sol\":1049:1080  block.timestamp < votingEndTime */\n      lt\n        /* \"contracts/Voting.sol\":1041:1109  require(block.timestamp < votingEndTime, \"Voting period has ended.\") */\n      tag_60\n      jumpi\n      mload(0x40)\n      0x08c379a000000000000000000000000000000000000000000000000000000000\n      dup2\n      mstore\n      0x04\n      add\n      tag_61\n      swap1\n      tag_62\n      jump\t// in\n    tag_61:\n      mload(0x40)\n      dup1\n      swap2\n      sub\n      swap1\n      revert\n    tag_60:\n        /* \"contracts/Voting.sol\":1678:1684  voters */\n      0x02\n        /* \"contracts/Voting.sol\":1678:1696  voters[msg.sender] */\n      0x00\n        /* \"contracts/Voting.sol\":1685:1695  msg.sender */\n      caller\n        /* \"contracts/Voting.sol\":1678:1696  voters[msg.sender] */\n      0xffffffffffffffffffffffffffffffffffffffff\n      and\n      0xffffffffffffffffffffffffffffffffffffffff\n      and\n      dup2\n      mstore\n      0x20\n      add\n      swap1\n      dup2\n      mstore\n      0x20\n      add\n      0x00\n      keccak256\n      0x00\n      swap1\n      sload\n      swap1\n      0x0100\n      exp\n      swap1\n      div\n      0xff\n      and\n        /* \"contracts/Voting.sol\":1677:1696  !voters[msg.sender] */\n      iszero\n        /* \"contracts/Voting.sol\":1669:1724  require(!voters[msg.sender], \"You have already voted.\") */\n      tag_64\n      jumpi\n      mload(0x40)\n      0x08c379a000000000000000000000000000000000000000000000000000000000\n      dup2\n      mstore\n      0x04\n      add\n      tag_65\n      swap1\n      tag_66\n      jump\t// in\n    tag_65:\n      mload(0x40)\n      dup1\n      swap2\n      sub\n      swap1\n      revert\n    tag_64:\n        /* \"contracts/Voting.sol\":1758:1759  0 */\n      0x00\n        /* \"contracts/Voting.sol\":1743:1755  _candidateId */\n      dup2\n        /* \"contracts/Voting.sol\":1743:1759  _candidateId > 0 */\n      gt\n        /* \"contracts/Voting.sol\":1743:1794  _candidateId > 0 && _candidateId <= candidatesCount */\n      dup1\n      iszero\n      tag_67\n      jumpi\n      pop\n        /* \"contracts/Voting.sol\":1779:1794  candidatesCount */\n      sload(0x03)\n        /* \"contracts/Voting.sol\":1763:1775  _candidateId */\n      dup2\n        /* \"contracts/Voting.sol\":1763:1794  _candidateId <= candidatesCount */\n      gt\n      iszero\n        /* \"contracts/Voting.sol\":1743:1794  _candidateId > 0 && _candidateId <= candidatesCount */\n    tag_67:\n        /* \"contracts/Voting.sol\":1735:1820  require(_candidateId > 0 && _candidateId <= candidatesCount, \"Invalid candidate ID.\") */\n      tag_68\n      jumpi\n      mload(0x40)\n      0x08c379a000000000000000000000000000000000000000000000000000000000\n      dup2\n      mstore\n      0x04\n      add\n      tag_69\n      swap1\n      tag_70\n      jump\t// in\n    tag_69:\n      mload(0x40)\n      dup1\n      swap2\n      sub\n      swap1\n      revert\n    tag_68:\n        /* \"contracts/Voting.sol\":1833:1843  candidates */\n      0x01\n        /* \"contracts/Voting.sol\":1833:1857  candidates[_candidateId] */\n      0x00\n        /* \"contracts/Voting.sol\":1844:1856  _candidateId */\n      dup3\n        /* \"contracts/Voting.sol\":1833:1857  candidates[_candidateId] */\n      dup2\n      mstore\n      0x20\n      add\n      swap1\n      dup2\n      mstore\n      0x20\n      add\n      0x00\n      keccak256\n        /* \"contracts/Voting.sol\":1833:1867  candidates[_candidateId].voteCount */\n      0x02\n      add\n      0x00\n        /* \"contracts/Voting.sol\":1833:1869  candidates[_candidateId].voteCount++ */\n      dup2\n      sload\n      dup1\n      swap3\n      swap2\n      swap1\n      tag_71\n      swap1\n      tag_72\n      jump\t// in\n    tag_71:\n      swap2\n      swap1\n      pop\n      sstore\n      pop\n        /* \"contracts/Voting.sol\":1880:1890  totalVotes */\n      0x04\n      0x00\n        /* \"contracts/Voting.sol\":1880:1892  totalVotes++ */\n      dup2\n      sload\n      dup1\n      swap3\n      swap2\n      swap1\n      tag_73\n      swap1\n      tag_72\n      jump\t// in\n    tag_73:\n      swap2\n      swap1\n      pop\n      sstore\n      pop\n        /* \"contracts/Voting.sol\":1924:1928  true */\n      0x01\n        /* \"contracts/Voting.sol\":1903:1909  voters */\n      0x02\n        /* \"contracts/Voting.sol\":1903:1921  voters[msg.sender] */\n      0x00\n        /* \"contracts/Voting.sol\":1910:1920  msg.sender */\n      caller\n        /* \"contracts/Voting.sol\":1903:1921  voters[msg.sender] */\n      0xffffffffffffffffffffffffffffffffffffffff\n      and\n      0xffffffffffffffffffffffffffffffffffffffff\n      and\n      dup2\n      mstore\n      0x20\n      add\n      swap1\n      dup2\n      mstore\n      0x20\n      add\n      0x00\n      keccak256\n      0x00\n        /* \"contracts/Voting.sol\":1903:1928  voters[msg.sender] = true */\n      0x0100\n      exp\n      dup2\n      sload\n      dup2\n      0xff\n      mul\n      not\n      and\n      swap1\n      dup4\n      iszero\n      iszero\n      mul\n      or\n      swap1\n      sstore\n      pop\n        /* \"contracts/Voting.sol\":1953:1963  msg.sender */\n      caller\n        /* \"contracts/Voting.sol\":1944:1978  VoteCast(msg.sender, _candidateId) */\n      0xffffffffffffffffffffffffffffffffffffffff\n      and\n      0xa36cc2bebb74db33e9f88110a07ef56e1b31b24b4c4f51b54b1664266e29f45b\n        /* \"contracts/Voting.sol\":1965:1977  _candidateId */\n      dup3\n        /* \"contracts/Voting.sol\":1944:1978  VoteCast(msg.sender, _candidateId) */\n      mload(0x40)\n      tag_74\n      swap2\n      swap1\n      tag_26\n      jump\t// in\n    tag_74:\n      mload(0x40)\n      dup1\n      swap2\n      sub\n      swap1\n      log2\n        /* \"contracts/Voting.sol\":1599:1986  function vote(uint256 _candidateId) public onlyDuringVoting{... */\n      pop\n      jump\t// out\n        /* \"contracts/Voting.sol\":2302:2603  function getCandidates() public view returns(Candidate[] memory){... */\n    tag_20:\n        /* \"contracts/Voting.sol\":2347:2365  Candidate[] memory */\n      0x60\n        /* \"contracts/Voting.sol\":2377:2409  Candidate[] memory candidateList */\n      0x00\n        /* \"contracts/Voting.sol\":2428:2443  candidatesCount */\n      sload(0x03)\n        /* \"contracts/Voting.sol\":2412:2444  new Candidate[](candidatesCount) */\n      0xffffffffffffffff\n      dup2\n      gt\n      iszero\n      tag_76\n      jumpi\n      tag_77\n      tag_78\n      jump\t// in\n    tag_77:\n    tag_76:\n      mload(0x40)\n      swap1\n      dup1\n      dup3\n      mstore\n      dup1\n      0x20\n      mul\n      0x20\n      add\n      dup3\n      add\n      0x40\n      mstore\n      dup1\n      iszero\n      tag_79\n      jumpi\n      dup2\n      0x20\n      add\n    tag_80:\n      tag_81\n      tag_82\n      jump\t// in\n    tag_81:\n      dup2\n      mstore\n      0x20\n      add\n      swap1\n      0x01\n      swap1\n      sub\n      swap1\n      dup2\n      tag_80\n      jumpi\n      swap1\n      pop\n    tag_79:\n      pop\n        /* \"contracts/Voting.sol\":2377:2444  Candidate[] memory candidateList = new Candidate[](candidatesCount) */\n      swap1\n      pop\n        /* \"contracts/Voting.sol\":2460:2469  uint256 i */\n      0x00\n        /* \"contracts/Voting.sol\":2472:2473  1 */\n      0x01\n        /* \"contracts/Voting.sol\":2460:2473  uint256 i = 1 */\n      swap1\n      pop\n        /* \"contracts/Voting.sol\":2455:2565  for (uint256 i = 1; i <= candidatesCount; i++) {... */\n    tag_83:\n        /* \"contracts/Voting.sol\":2480:2495  candidatesCount */\n      sload(0x03)\n        /* \"contracts/Voting.sol\":2475:2476  i */\n      dup2\n        /* \"contracts/Voting.sol\":2475:2495  i <= candidatesCount */\n      gt\n        /* \"contracts/Voting.sol\":2455:2565  for (uint256 i = 1; i <= candidatesCount; i++) {... */\n      tag_84\n      jumpi\n        /* \"contracts/Voting.sol\":2540:2550  candidates */\n      0x01\n        /* \"contracts/Voting.sol\":2540:2553  candidates[i] */\n      0x00\n        /* \"contracts/Voting.sol\":2551:2552  i */\n      dup3\n        /* \"contracts/Voting.sol\":2540:2553  candidates[i] */\n      dup2\n      mstore\n      0x20\n      add\n      swap1\n      dup2\n      mstore\n      0x20\n      add\n      0x00\n      keccak256\n        /* \"contracts/Voting.sol\":2517:2553  candidateList[i - 1] = candidates[i] */\n      mload(0x40)\n      dup1\n      0x60\n      add\n      0x40\n      mstore\n      swap1\n      dup2\n      0x00\n      dup3\n      add\n      sload\n      dup2\n      mstore\n      0x20\n      add\n      0x01\n      dup3\n      add\n      dup1\n      sload\n      tag_86\n      swap1\n      tag_87\n      jump\t// in\n    tag_86:\n      dup1\n      0x1f\n      add\n      0x20\n      dup1\n      swap2\n      div\n      mul\n      0x20\n      add\n      mload(0x40)\n      swap1\n      dup2\n      add\n      0x40\n      mstore\n      dup1\n      swap3\n      swap2\n      swap1\n      dup2\n      dup2\n      mstore\n      0x20\n      add\n      dup3\n      dup1\n      sload\n      tag_88\n      swap1\n      tag_87\n      jump\t// in\n    tag_88:\n      dup1\n      iszero\n      tag_89\n      jumpi\n      dup1\n      0x1f\n      lt\n      tag_90\n      jumpi\n      0x0100\n      dup1\n      dup4\n      sload\n      div\n      mul\n      dup4\n      mstore\n      swap2\n      0x20\n      add\n      swap2\n      jump(tag_89)\n    tag_90:\n      dup3\n      add\n      swap2\n      swap1\n      0x00\n      mstore\n      keccak256(0x00, 0x20)\n      swap1\n    tag_91:\n      dup2\n      sload\n      dup2\n      mstore\n      swap1\n      0x01\n      add\n      swap1\n      0x20\n      add\n      dup1\n      dup4\n      gt\n      tag_91\n      jumpi\n      dup3\n      swap1\n      sub\n      0x1f\n      and\n      dup3\n      add\n      swap2\n    tag_89:\n      pop\n      pop\n      pop\n      pop\n      pop\n      dup2\n      mstore\n      0x20\n      add\n      0x02\n      dup3\n      add\n      sload\n      dup2\n      mstore\n      pop\n      pop\n        /* \"contracts/Voting.sol\":2517:2530  candidateList */\n      dup3\n        /* \"contracts/Voting.sol\":2535:2536  1 */\n      0x01\n        /* \"contracts/Voting.sol\":2531:2532  i */\n      dup4\n        /* \"contracts/Voting.sol\":2531:2536  i - 1 */\n      tag_92\n      swap2\n      swap1\n      tag_93\n      jump\t// in\n    tag_92:\n        /* \"contracts/Voting.sol\":2517:2537  candidateList[i - 1] */\n      dup2\n      mload\n      dup2\n      lt\n      tag_94\n      jumpi\n      tag_95\n      tag_96\n      jump\t// in\n    tag_95:\n    tag_94:\n      0x20\n      mul\n      0x20\n      add\n      add\n        /* \"contracts/Voting.sol\":2517:2553  candidateList[i - 1] = candidates[i] */\n      dup2\n      swap1\n      mstore\n      pop\n        /* \"contracts/Voting.sol\":2497:2500  i++ */\n      dup1\n      dup1\n      tag_97\n      swap1\n      tag_72\n      jump\t// in\n    tag_97:\n      swap2\n      pop\n      pop\n        /* \"contracts/Voting.sol\":2455:2565  for (uint256 i = 1; i <= candidatesCount; i++) {... */\n      jump(tag_83)\n    tag_84:\n      pop\n        /* \"contracts/Voting.sol\":2582:2595  candidateList */\n      dup1\n        /* \"contracts/Voting.sol\":2575:2595  return candidateList */\n      swap2\n      pop\n      pop\n        /* \"contracts/Voting.sol\":2302:2603  function getCandidates() public view returns(Candidate[] memory){... */\n      swap1\n      jump\t// out\n        /* \"contracts/Voting.sol\":415:440  uint256 public totalVotes */\n    tag_24:\n      sload(0x04)\n      dup2\n      jump\t// out\n        /* \"contracts/Voting.sol\":447:475  uint256 public votingEndTime */\n    tag_28:\n      sload(0x05)\n      dup2\n      jump\t// out\n        /* \"contracts/Voting.sol\":378:408  uint256 public candidatesCount */\n    tag_31:\n      sload(0x03)\n      dup2\n      jump\t// out\n        /* \"contracts/Voting.sol\":279:326  mapping(uint256 => Candidate) public candidates */\n    tag_35:\n      mstore(0x20, 0x01)\n      dup1\n      0x00\n      mstore\n      keccak256(0x00, 0x40)\n      0x00\n      swap2\n      pop\n      swap1\n      pop\n      dup1\n      0x00\n      add\n      sload\n      swap1\n      dup1\n      0x01\n      add\n      dup1\n      sload\n      tag_98\n      swap1\n      tag_87\n      jump\t// in\n    tag_98:\n      dup1\n      0x1f\n      add\n      0x20\n      dup1\n      swap2\n      div\n      mul\n      0x20\n      add\n      mload(0x40)\n      swap1\n      dup2\n      add\n      0x40\n      mstore\n      dup1\n      swap3\n      swap2\n      swap1\n      dup2\n      dup2\n      mstore\n      0x20\n      add\n      dup3\n      dup1\n      sload\n      tag_99\n      swap1\n      tag_87\n      jump\t// in\n    tag_99:\n      dup1\n      iszero\n      tag_100\n      jumpi\n      dup1\n      0x1f\n      lt\n      tag_101\n      jumpi\n      0x0100\n      dup1\n      dup4\n      sload\n      div\n      mul\n      dup4\n      mstore\n      swap2\n      0x20\n      add\n      swap2\n      jump(tag_100)\n    tag_101:\n      dup3\n      add\n      swap2\n      swap1\n      0x00\n      mstore\n      keccak256(0x00, 0x20)\n      swap1\n    tag_102:\n      dup2\n      sload\n      dup2\n      mstore\n      swap1\n      0x01\n      add\n      swap1\n      0x20\n      add\n      dup1\n      dup4\n      gt\n      tag_102\n      jumpi\n      dup3\n      swap1\n      sub\n      0x1f\n      and\n      dup3\n      add\n      swap2\n    tag_100:\n      pop\n      pop\n      pop\n      pop\n      pop\n      swap1\n      dup1\n      0x02\n      add\n      sload\n      swap1\n      pop\n      dup4\n      jump\t// out\n        /* \"contracts/Voting.sol\":1331:1557  function addCandidate(string memory _name) public OnlyOwner{... */\n    tag_41:\n        /* \"contracts/Voting.sol\":908:913  owner */\n      0x00\n      dup1\n      sload\n      swap1\n      0x0100\n      exp\n      swap1\n      div\n      0xffffffffffffffffffffffffffffffffffffffff\n      and\n        /* \"contracts/Voting.sol\":894:913  msg.sender == owner */\n      0xffffffffffffffffffffffffffffffffffffffff\n      and\n        /* \"contracts/Voting.sol\":894:904  msg.sender */\n      caller\n        /* \"contracts/Voting.sol\":894:913  msg.sender == owner */\n      0xffffffffffffffffffffffffffffffffffffffff\n      and\n      eq\n        /* \"contracts/Voting.sol\":886:939  require(msg.sender == owner, \"You are not the owner\") */\n      tag_104\n      jumpi\n      mload(0x40)\n      0x08c379a000000000000000000000000000000000000000000000000000000000\n      dup2\n      mstore\n      0x04\n      add\n      tag_105\n      swap1\n      tag_106\n      jump\t// in\n    tag_105:\n      mload(0x40)\n      dup1\n      swap2\n      sub\n      swap1\n      revert\n    tag_104:\n        /* \"contracts/Voting.sol\":1401:1416  candidatesCount */\n      0x03\n      0x00\n        /* \"contracts/Voting.sol\":1401:1418  candidatesCount++ */\n      dup2\n      sload\n      dup1\n      swap3\n      swap2\n      swap1\n      tag_108\n      swap1\n      tag_72\n      jump\t// in\n    tag_108:\n      swap2\n      swap1\n      pop\n      sstore\n      pop\n        /* \"contracts/Voting.sol\":1459:1495  Candidate(candidatesCount, _name, 0) */\n      mload(0x40)\n      dup1\n      0x60\n      add\n      0x40\n      mstore\n      dup1\n        /* \"contracts/Voting.sol\":1469:1484  candidatesCount */\n      sload(0x03)\n        /* \"contracts/Voting.sol\":1459:1495  Candidate(candidatesCount, _name, 0) */\n      dup2\n      mstore\n      0x20\n      add\n        /* \"contracts/Voting.sol\":1486:1491  _name */\n      dup3\n        /* \"contracts/Voting.sol\":1459:1495  Candidate(candidatesCount, _name, 0) */\n      dup2\n      mstore\n      0x20\n      add\n        /* \"contracts/Voting.sol\":1493:1494  0 */\n      0x00\n        /* \"contracts/Voting.sol\":1459:1495  Candidate(candidatesCount, _name, 0) */\n      dup2\n      mstore\n      pop\n        /* \"contracts/Voting.sol\":1429:1439  candidates */\n      0x01\n        /* \"contracts/Voting.sol\":1429:1456  candidates[candidatesCount] */\n      0x00\n        /* \"contracts/Voting.sol\":1440:1455  candidatesCount */\n      sload(0x03)\n        /* \"contracts/Voting.sol\":1429:1456  candidates[candidatesCount] */\n      dup2\n      mstore\n      0x20\n      add\n      swap1\n      dup2\n      mstore\n      0x20\n      add\n      0x00\n      keccak256\n        /* \"contracts/Voting.sol\":1429:1495  candidates[candidatesCount] = Candidate(candidatesCount, _name, 0) */\n      0x00\n      dup3\n      add\n      mload\n      dup2\n      0x00\n      add\n      sstore\n      0x20\n      dup3\n      add\n      mload\n      dup2\n      0x01\n      add\n      swap1\n      dup2\n      tag_109\n      swap2\n      swap1\n      tag_110\n      jump\t// in\n    tag_109:\n      pop\n      0x40\n      dup3\n      add\n      mload\n      dup2\n      0x02\n      add\n      sstore\n      swap1\n      pop\n      pop\n        /* \"contracts/Voting.sol\":1511:1549  CandidateAdded(candidatesCount, _name) */\n      0xe83b2a43e7e82d975c8a0a6d2f045153c869e111136a34d1889ab7b598e396a3\n        /* \"contracts/Voting.sol\":1526:1541  candidatesCount */\n      sload(0x03)\n        /* \"contracts/Voting.sol\":1543:1548  _name */\n      dup3\n        /* \"contracts/Voting.sol\":1511:1549  CandidateAdded(candidatesCount, _name) */\n      mload(0x40)\n      tag_111\n      swap3\n      swap2\n      swap1\n      tag_112\n      jump\t// in\n    tag_111:\n      mload(0x40)\n      dup1\n      swap2\n      sub\n      swap1\n      log1\n        /* \"contracts/Voting.sol\":1331:1557  function addCandidate(string memory _name) public OnlyOwner{... */\n      pop\n      jump\t// out\n        /* \"contracts/Voting.sol\":252:272  address public owner */\n    tag_43:\n      0x00\n      dup1\n      sload\n      swap1\n      0x0100\n      exp\n      swap1\n      div\n      0xffffffffffffffffffffffffffffffffffffffff\n      and\n      dup2\n      jump\t// out\n        /* \"contracts/Voting.sol\":333:371  mapping(address => bool) public voters */\n    tag_49:\n      mstore(0x20, 0x02)\n      dup1\n      0x00\n      mstore\n      keccak256(0x00, 0x40)\n      0x00\n      swap2\n      pop\n      sload\n      swap1\n      0x0100\n      exp\n      swap1\n      div\n      0xff\n      and\n      dup2\n      jump\t// out\n        /* \"contracts/Voting.sol\":1166:1289  function setVotingPeriod(uint256 _duration) public OnlyOwner {... */\n    tag_54:\n        /* \"contracts/Voting.sol\":908:913  owner */\n      0x00\n      dup1\n      sload\n      swap1\n      0x0100\n      exp\n      swap1\n      div\n      0xffffffffffffffffffffffffffffffffffffffff\n      and\n        /* \"contracts/Voting.sol\":894:913  msg.sender == owner */\n      0xffffffffffffffffffffffffffffffffffffffff\n      and\n        /* \"contracts/Voting.sol\":894:904  msg.sender */\n      caller\n        /* \"contracts/Voting.sol\":894:913  msg.sender == owner */\n      0xffffffffffffffffffffffffffffffffffffffff\n      and\n      eq\n        /* \"contracts/Voting.sol\":886:939  require(msg.sender == owner, \"You are not the owner\") */\n      tag_114\n      jumpi\n      mload(0x40)\n      0x08c379a000000000000000000000000000000000000000000000000000000000\n      dup2\n      mstore\n      0x04\n      add\n      tag_115\n      swap1\n      tag_106\n      jump\t// in\n    tag_115:\n      mload(0x40)\n      dup1\n      swap2\n      sub\n      swap1\n      revert\n    tag_114:\n        /* \"contracts/Voting.sol\":1272:1281  _duration */\n      dup1\n        /* \"contracts/Voting.sol\":1254:1269  block.timestamp */\n      timestamp\n        /* \"contracts/Voting.sol\":1254:1281  block.timestamp + _duration */\n      tag_117\n      swap2\n      swap1\n      tag_118\n      jump\t// in\n    tag_117:\n        /* \"contracts/Voting.sol\":1238:1251  votingEndTime */\n      0x05\n        /* \"contracts/Voting.sol\":1238:1281  votingEndTime = block.timestamp + _duration */\n      dup2\n      swap1\n      sstore\n      pop\n        /* \"contracts/Voting.sol\":1166:1289  function setVotingPeriod(uint256 _duration) public OnlyOwner {... */\n      pop\n      jump\t// out\n        /* \"contracts/Voting.sol\":2032:2256  function getVotes(uint256 _candidateId) public view returns(uint256){... */\n    tag_57:\n        /* \"contracts/Voting.sol\":2092:2099  uint256 */\n      0x00\n        /* \"contracts/Voting.sol\":2134:2135  0 */\n      dup1\n        /* \"contracts/Voting.sol\":2119:2131  _candidateId */\n      dup3\n        /* \"contracts/Voting.sol\":2119:2135  _candidateId > 0 */\n      gt\n        /* \"contracts/Voting.sol\":2119:2170  _candidateId > 0 && _candidateId <= candidatesCount */\n      dup1\n      iszero\n      tag_120\n      jumpi\n      pop\n        /* \"contracts/Voting.sol\":2155:2170  candidatesCount */\n      sload(0x03)\n        /* \"contracts/Voting.sol\":2139:2151  _candidateId */\n      dup3\n        /* \"contracts/Voting.sol\":2139:2170  _candidateId <= candidatesCount */\n      gt\n      iszero\n        /* \"contracts/Voting.sol\":2119:2170  _candidateId > 0 && _candidateId <= candidatesCount */\n    tag_120:\n        /* \"contracts/Voting.sol\":2111:2196  require(_candidateId > 0 && _candidateId <= candidatesCount, \"Invalid candidate ID.\") */\n      tag_121\n      jumpi\n      mload(0x40)\n      0x08c379a000000000000000000000000000000000000000000000000000000000\n      dup2\n      mstore\n      0x04\n      add\n      tag_122\n      swap1\n      tag_70\n      jump\t// in\n    tag_122:\n      mload(0x40)\n      dup1\n      swap2\n      sub\n      swap1\n      revert\n    tag_121:\n        /* \"contracts/Voting.sol\":2214:2224  candidates */\n      0x01\n        /* \"contracts/Voting.sol\":2214:2238  candidates[_candidateId] */\n      0x00\n        /* \"contracts/Voting.sol\":2225:2237  _candidateId */\n      dup4\n        /* \"contracts/Voting.sol\":2214:2238  candidates[_candidateId] */\n      dup2\n      mstore\n      0x20\n      add\n      swap1\n      dup2\n      mstore\n      0x20\n      add\n      0x00\n      keccak256\n        /* \"contracts/Voting.sol\":2214:2248  candidates[_candidateId].voteCount */\n      0x02\n      add\n      sload\n        /* \"contracts/Voting.sol\":2207:2248  return candidates[_candidateId].voteCount */\n      swap1\n      pop\n        /* \"contracts/Voting.sol\":2032:2256  function getVotes(uint256 _candidateId) public view returns(uint256){... */\n      swap2\n      swap1\n      pop\n      jump\t// out\n    tag_82:\n      mload(0x40)\n      dup1\n      0x60\n      add\n      0x40\n      mstore\n      dup1\n      0x00\n      dup2\n      mstore\n      0x20\n      add\n      0x60\n      dup2\n      mstore\n      0x20\n      add\n      0x00\n      dup2\n      mstore\n      pop\n      swap1\n      jump\t// out\n        /* \"#utility.yul\":7:82   */\n    tag_123:\n        /* \"#utility.yul\":40:46   */\n      0x00\n        /* \"#utility.yul\":73:75   */\n      0x40\n        /* \"#utility.yul\":67:76   */\n      mload\n        /* \"#utility.yul\":57:76   */\n      swap1\n      pop\n        /* \"#utility.yul\":7:82   */\n      swap1\n      jump\t// out\n        /* \"#utility.yul\":88:205   */\n    tag_124:\n        /* \"#utility.yul\":197:198   */\n      0x00\n        /* \"#utility.yul\":194:195   */\n      dup1\n        /* \"#utility.yul\":187:199   */\n      revert\n        /* \"#utility.yul\":211:328   */\n    tag_125:\n        /* \"#utility.yul\":320:321   */\n      0x00\n        /* \"#utility.yul\":317:318   */\n      dup1\n        /* \"#utility.yul\":310:322   */\n      revert\n        /* \"#utility.yul\":334:411   */\n    tag_126:\n        /* \"#utility.yul\":371:378   */\n      0x00\n        /* \"#utility.yul\":400:405   */\n      dup2\n        /* \"#utility.yul\":389:405   */\n      swap1\n      pop\n        /* \"#utility.yul\":334:411   */\n      swap2\n      swap1\n      pop\n      jump\t// out\n        /* \"#utility.yul\":417:539   */\n    tag_127:\n        /* \"#utility.yul\":490:514   */\n      tag_191\n        /* \"#utility.yul\":508:513   */\n      dup2\n        /* \"#utility.yul\":490:514   */\n      tag_126\n      jump\t// in\n    tag_191:\n        /* \"#utility.yul\":483:488   */\n      dup2\n        /* \"#utility.yul\":480:515   */\n      eq\n        /* \"#utility.yul\":470:533   */\n      tag_192\n      jumpi\n        /* \"#utility.yul\":529:530   */\n      0x00\n        /* \"#utility.yul\":526:527   */\n      dup1\n        /* \"#utility.yul\":519:531   */\n      revert\n        /* \"#utility.yul\":470:533   */\n    tag_192:\n        /* \"#utility.yul\":417:539   */\n      pop\n      jump\t// out\n        /* \"#utility.yul\":545:684   */\n    tag_128:\n        /* \"#utility.yul\":591:596   */\n      0x00\n        /* \"#utility.yul\":629:635   */\n      dup2\n        /* \"#utility.yul\":616:636   */\n      calldataload\n        /* \"#utility.yul\":607:636   */\n      swap1\n      pop\n        /* \"#utility.yul\":645:678   */\n      tag_194\n        /* \"#utility.yul\":672:677   */\n      dup2\n        /* \"#utility.yul\":645:678   */\n      tag_127\n      jump\t// in\n    tag_194:\n        /* \"#utility.yul\":545:684   */\n      swap3\n      swap2\n      pop\n      pop\n      jump\t// out\n        /* \"#utility.yul\":690:1019   */\n    tag_17:\n        /* \"#utility.yul\":749:755   */\n      0x00\n        /* \"#utility.yul\":798:800   */\n      0x20\n        /* \"#utility.yul\":786:795   */\n      dup3\n        /* \"#utility.yul\":777:784   */\n      dup5\n        /* \"#utility.yul\":773:796   */\n      sub\n        /* \"#utility.yul\":769:801   */\n      slt\n        /* \"#utility.yul\":766:885   */\n      iszero\n      tag_196\n      jumpi\n        /* \"#utility.yul\":804:883   */\n      tag_197\n      tag_124\n      jump\t// in\n    tag_197:\n        /* \"#utility.yul\":766:885   */\n    tag_196:\n        /* \"#utility.yul\":924:925   */\n      0x00\n        /* \"#utility.yul\":949:1002   */\n      tag_198\n        /* \"#utility.yul\":994:1001   */\n      dup5\n        /* \"#utility.yul\":985:991   */\n      dup3\n        /* \"#utility.yul\":974:983   */\n      dup6\n        /* \"#utility.yul\":970:992   */\n      add\n        /* \"#utility.yul\":949:1002   */\n      tag_128\n      jump\t// in\n    tag_198:\n        /* \"#utility.yul\":939:1002   */\n      swap2\n      pop\n        /* \"#utility.yul\":895:1012   */\n      pop\n        /* \"#utility.yul\":690:1019   */\n      swap3\n      swap2\n      pop\n      pop\n      jump\t// out\n        /* \"#utility.yul\":1025:1163   */\n    tag_129:\n        /* \"#utility.yul\":1116:1122   */\n      0x00\n        /* \"#utility.yul\":1150:1155   */\n      dup2\n        /* \"#utility.yul\":1144:1156   */\n      mload\n        /* \"#utility.yul\":1134:1156   */\n      swap1\n      pop\n        /* \"#utility.yul\":1025:1163   */\n      swap2\n      swap1\n      pop\n      jump\t// out\n        /* \"#utility.yul\":1169:1377   */\n    tag_130:\n        /* \"#utility.yul\":1292:1303   */\n      0x00\n        /* \"#utility.yul\":1326:1332   */\n      dup3\n        /* \"#utility.yul\":1321:1324   */\n      dup3\n        /* \"#utility.yul\":1314:1333   */\n      mstore\n        /* \"#utility.yul\":1366:1370   */\n      0x20\n        /* \"#utility.yul\":1361:1364   */\n      dup3\n        /* \"#utility.yul\":1357:1371   */\n      add\n        /* \"#utility.yul\":1342:1371   */\n      swap1\n      pop\n        /* \"#utility.yul\":1169:1377   */\n      swap3\n      swap2\n      pop\n      pop\n      jump\t// out\n        /* \"#utility.yul\":1383:1539   */\n    tag_131:\n        /* \"#utility.yul\":1474:1478   */\n      0x00\n        /* \"#utility.yul\":1497:1500   */\n      dup2\n        /* \"#utility.yul\":1489:1500   */\n      swap1\n      pop\n        /* \"#utility.yul\":1527:1531   */\n      0x20\n        /* \"#utility.yul\":1522:1525   */\n      dup3\n        /* \"#utility.yul\":1518:1532   */\n      add\n        /* \"#utility.yul\":1510:1532   */\n      swap1\n      pop\n        /* \"#utility.yul\":1383:1539   */\n      swap2\n      swap1\n      pop\n      jump\t// out\n        /* \"#utility.yul\":1545:1653   */\n    tag_132:\n        /* \"#utility.yul\":1622:1646   */\n      tag_203\n        /* \"#utility.yul\":1640:1645   */\n      dup2\n        /* \"#utility.yul\":1622:1646   */\n      tag_126\n      jump\t// in\n    tag_203:\n        /* \"#utility.yul\":1617:1620   */\n      dup3\n        /* \"#utility.yul\":1610:1647   */\n      mstore\n        /* \"#utility.yul\":1545:1653   */\n      pop\n      pop\n      jump\t// out\n        /* \"#utility.yul\":1659:1758   */\n    tag_133:\n        /* \"#utility.yul\":1711:1717   */\n      0x00\n        /* \"#utility.yul\":1745:1750   */\n      dup2\n        /* \"#utility.yul\":1739:1751   */\n      mload\n        /* \"#utility.yul\":1729:1751   */\n      swap1\n      pop\n        /* \"#utility.yul\":1659:1758   */\n      swap2\n      swap1\n      pop\n      jump\t// out\n        /* \"#utility.yul\":1764:1923   */\n    tag_134:\n        /* \"#utility.yul\":1838:1849   */\n      0x00\n        /* \"#utility.yul\":1872:1878   */\n      dup3\n        /* \"#utility.yul\":1867:1870   */\n      dup3\n        /* \"#utility.yul\":1860:1879   */\n      mstore\n        /* \"#utility.yul\":1912:1916   */\n      0x20\n        /* \"#utility.yul\":1907:1910   */\n      dup3\n        /* \"#utility.yul\":1903:1917   */\n      add\n        /* \"#utility.yul\":1888:1917   */\n      swap1\n      pop\n        /* \"#utility.yul\":1764:1923   */\n      swap3\n      swap2\n      pop\n      pop\n      jump\t// out\n        /* \"#utility.yul\":1929:2068   */\n    tag_135:\n        /* \"#utility.yul\":2018:2024   */\n      dup3\n        /* \"#utility.yul\":2013:2016   */\n      dup2\n        /* \"#utility.yul\":2008:2011   */\n      dup4\n        /* \"#utility.yul\":2002:2025   */\n      mcopy\n        /* \"#utility.yul\":2059:2060   */\n      0x00\n        /* \"#utility.yul\":2050:2056   */\n      dup4\n        /* \"#utility.yul\":2045:2048   */\n      dup4\n        /* \"#utility.yul\":2041:2057   */\n      add\n        /* \"#utility.yul\":2034:2061   */\n      mstore\n        /* \"#utility.yul\":1929:2068   */\n      pop\n      pop\n      pop\n      jump\t// out\n        /* \"#utility.yul\":2074:2176   */\n    tag_136:\n        /* \"#utility.yul\":2115:2121   */\n      0x00\n        /* \"#utility.yul\":2166:2168   */\n      0x1f\n        /* \"#utility.yul\":2162:2169   */\n      not\n        /* \"#utility.yul\":2157:2159   */\n      0x1f\n        /* \"#utility.yul\":2150:2155   */\n      dup4\n        /* \"#utility.yul\":2146:2160   */\n      add\n        /* \"#utility.yul\":2142:2170   */\n      and\n        /* \"#utility.yul\":2132:2170   */\n      swap1\n      pop\n        /* \"#utility.yul\":2074:2176   */\n      swap2\n      swap1\n      pop\n      jump\t// out\n        /* \"#utility.yul\":2182:2539   */\n    tag_137:\n        /* \"#utility.yul\":2260:2263   */\n      0x00\n        /* \"#utility.yul\":2288:2327   */\n      tag_209\n        /* \"#utility.yul\":2321:2326   */\n      dup3\n        /* \"#utility.yul\":2288:2327   */\n      tag_133\n      jump\t// in\n    tag_209:\n        /* \"#utility.yul\":2343:2404   */\n      tag_210\n        /* \"#utility.yul\":2397:2403   */\n      dup2\n        /* \"#utility.yul\":2392:2395   */\n      dup6\n        /* \"#utility.yul\":2343:2404   */\n      tag_134\n      jump\t// in\n    tag_210:\n        /* \"#utility.yul\":2336:2404   */\n      swap4\n      pop\n        /* \"#utility.yul\":2413:2478   */\n      tag_211\n        /* \"#utility.yul\":2471:2477   */\n      dup2\n        /* \"#utility.yul\":2466:2469   */\n      dup6\n        /* \"#utility.yul\":2459:2463   */\n      0x20\n        /* \"#utility.yul\":2452:2457   */\n      dup7\n        /* \"#utility.yul\":2448:2464   */\n      add\n        /* \"#utility.yul\":2413:2478   */\n      tag_135\n      jump\t// in\n    tag_211:\n        /* \"#utility.yul\":2503:2532   */\n      tag_212\n        /* \"#utility.yul\":2525:2531   */\n      dup2\n        /* \"#utility.yul\":2503:2532   */\n      tag_136\n      jump\t// in\n    tag_212:\n        /* \"#utility.yul\":2498:2501   */\n      dup5\n        /* \"#utility.yul\":2494:2533   */\n      add\n        /* \"#utility.yul\":2487:2533   */\n      swap2\n      pop\n        /* \"#utility.yul\":2264:2539   */\n      pop\n        /* \"#utility.yul\":2182:2539   */\n      swap3\n      swap2\n      pop\n      pop\n      jump\t// out\n        /* \"#utility.yul\":2603:3374   */\n    tag_138:\n        /* \"#utility.yul\":2710:2713   */\n      0x00\n        /* \"#utility.yul\":2746:2750   */\n      0x60\n        /* \"#utility.yul\":2741:2744   */\n      dup4\n        /* \"#utility.yul\":2737:2751   */\n      add\n        /* \"#utility.yul\":2831:2835   */\n      0x00\n        /* \"#utility.yul\":2824:2829   */\n      dup4\n        /* \"#utility.yul\":2820:2836   */\n      add\n        /* \"#utility.yul\":2814:2837   */\n      mload\n        /* \"#utility.yul\":2850:2913   */\n      tag_214\n        /* \"#utility.yul\":2907:2911   */\n      0x00\n        /* \"#utility.yul\":2902:2905   */\n      dup7\n        /* \"#utility.yul\":2898:2912   */\n      add\n        /* \"#utility.yul\":2884:2896   */\n      dup3\n        /* \"#utility.yul\":2850:2913   */\n      tag_132\n      jump\t// in\n    tag_214:\n        /* \"#utility.yul\":2761:2923   */\n      pop\n        /* \"#utility.yul\":3005:3009   */\n      0x20\n        /* \"#utility.yul\":2998:3003   */\n      dup4\n        /* \"#utility.yul\":2994:3010   */\n      add\n        /* \"#utility.yul\":2988:3011   */\n      mload\n        /* \"#utility.yul\":3058:3061   */\n      dup5\n        /* \"#utility.yul\":3052:3056   */\n      dup3\n        /* \"#utility.yul\":3048:3062   */\n      sub\n        /* \"#utility.yul\":3041:3045   */\n      0x20\n        /* \"#utility.yul\":3036:3039   */\n      dup7\n        /* \"#utility.yul\":3032:3046   */\n      add\n        /* \"#utility.yul\":3025:3063   */\n      mstore\n        /* \"#utility.yul\":3084:3157   */\n      tag_215\n        /* \"#utility.yul\":3152:3156   */\n      dup3\n        /* \"#utility.yul\":3138:3150   */\n      dup3\n        /* \"#utility.yul\":3084:3157   */\n      tag_137\n      jump\t// in\n    tag_215:\n        /* \"#utility.yul\":3076:3157   */\n      swap2\n      pop\n        /* \"#utility.yul\":2933:3168   */\n      pop\n        /* \"#utility.yul\":3255:3259   */\n      0x40\n        /* \"#utility.yul\":3248:3253   */\n      dup4\n        /* \"#utility.yul\":3244:3260   */\n      add\n        /* \"#utility.yul\":3238:3261   */\n      mload\n        /* \"#utility.yul\":3274:3337   */\n      tag_216\n        /* \"#utility.yul\":3331:3335   */\n      0x40\n        /* \"#utility.yul\":3326:3329   */\n      dup7\n        /* \"#utility.yul\":3322:3336   */\n      add\n        /* \"#utility.yul\":3308:3320   */\n      dup3\n        /* \"#utility.yul\":3274:3337   */\n      tag_132\n      jump\t// in\n    tag_216:\n        /* \"#utility.yul\":3178:3347   */\n      pop\n        /* \"#utility.yul\":3364:3368   */\n      dup1\n        /* \"#utility.yul\":3357:3368   */\n      swap2\n      pop\n        /* \"#utility.yul\":2715:3374   */\n      pop\n        /* \"#utility.yul\":2603:3374   */\n      swap3\n      swap2\n      pop\n      pop\n      jump\t// out\n        /* \"#utility.yul\":3380:3632   */\n    tag_139:\n        /* \"#utility.yul\":3497:3507   */\n      0x00\n        /* \"#utility.yul\":3532:3626   */\n      tag_218\n        /* \"#utility.yul\":3622:3625   */\n      dup4\n        /* \"#utility.yul\":3614:3620   */\n      dup4\n        /* \"#utility.yul\":3532:3626   */\n      tag_138\n      jump\t// in\n    tag_218:\n        /* \"#utility.yul\":3518:3626   */\n      swap1\n      pop\n        /* \"#utility.yul\":3380:3632   */\n      swap3\n      swap2\n      pop\n      pop\n      jump\t// out\n        /* \"#utility.yul\":3638:3775   */\n    tag_140:\n        /* \"#utility.yul\":3732:3736   */\n      0x00\n        /* \"#utility.yul\":3764:3768   */\n      0x20\n        /* \"#utility.yul\":3759:3762   */\n      dup3\n        /* \"#utility.yul\":3755:3769   */\n      add\n        /* \"#utility.yul\":3747:3769   */\n      swap1\n      pop\n        /* \"#utility.yul\":3638:3775   */\n      swap2\n      swap1\n      pop\n      jump\t// out\n        /* \"#utility.yul\":3843:4946   */\n    tag_141:\n        /* \"#utility.yul\":4010:4013   */\n      0x00\n        /* \"#utility.yul\":4039:4117   */\n      tag_221\n        /* \"#utility.yul\":4111:4116   */\n      dup3\n        /* \"#utility.yul\":4039:4117   */\n      tag_129\n      jump\t// in\n    tag_221:\n        /* \"#utility.yul\":4133:4243   */\n      tag_222\n        /* \"#utility.yul\":4236:4242   */\n      dup2\n        /* \"#utility.yul\":4231:4234   */\n      dup6\n        /* \"#utility.yul\":4133:4243   */\n      tag_130\n      jump\t// in\n    tag_222:\n        /* \"#utility.yul\":4126:4243   */\n      swap4\n      pop\n        /* \"#utility.yul\":4269:4272   */\n      dup4\n        /* \"#utility.yul\":4314:4318   */\n      0x20\n        /* \"#utility.yul\":4306:4312   */\n      dup3\n        /* \"#utility.yul\":4302:4319   */\n      mul\n        /* \"#utility.yul\":4297:4300   */\n      dup6\n        /* \"#utility.yul\":4293:4320   */\n      add\n        /* \"#utility.yul\":4344:4424   */\n      tag_223\n        /* \"#utility.yul\":4418:4423   */\n      dup6\n        /* \"#utility.yul\":4344:4424   */\n      tag_131\n      jump\t// in\n    tag_223:\n        /* \"#utility.yul\":4447:4454   */\n      dup1\n        /* \"#utility.yul\":4478:4479   */\n      0x00\n        /* \"#utility.yul\":4463:4901   */\n    tag_224:\n        /* \"#utility.yul\":4488:4494   */\n      dup6\n        /* \"#utility.yul\":4485:4486   */\n      dup2\n        /* \"#utility.yul\":4482:4495   */\n      lt\n        /* \"#utility.yul\":4463:4901   */\n      iszero\n      tag_226\n      jumpi\n        /* \"#utility.yul\":4559:4568   */\n      dup5\n        /* \"#utility.yul\":4553:4557   */\n      dup5\n        /* \"#utility.yul\":4549:4569   */\n      sub\n        /* \"#utility.yul\":4544:4547   */\n      dup10\n        /* \"#utility.yul\":4537:4570   */\n      mstore\n        /* \"#utility.yul\":4610:4616   */\n      dup2\n        /* \"#utility.yul\":4604:4617   */\n      mload\n        /* \"#utility.yul\":4638:4750   */\n      tag_227\n        /* \"#utility.yul\":4745:4749   */\n      dup6\n        /* \"#utility.yul\":4730:4743   */\n      dup3\n        /* \"#utility.yul\":4638:4750   */\n      tag_139\n      jump\t// in\n    tag_227:\n        /* \"#utility.yul\":4630:4750   */\n      swap5\n      pop\n        /* \"#utility.yul\":4773:4857   */\n      tag_228\n        /* \"#utility.yul\":4850:4856   */\n      dup4\n        /* \"#utility.yul\":4773:4857   */\n      tag_140\n      jump\t// in\n    tag_228:\n        /* \"#utility.yul\":4763:4857   */\n      swap3\n      pop\n        /* \"#utility.yul\":4886:4890   */\n      0x20\n        /* \"#utility.yul\":4881:4884   */\n      dup11\n        /* \"#utility.yul\":4877:4891   */\n      add\n        /* \"#utility.yul\":4870:4891   */\n      swap10\n      pop\n        /* \"#utility.yul\":4523:4901   */\n      pop\n        /* \"#utility.yul\":4510:4511   */\n      0x01\n        /* \"#utility.yul\":4507:4508   */\n      dup2\n        /* \"#utility.yul\":4503:4512   */\n      add\n        /* \"#utility.yul\":4498:4512   */\n      swap1\n      pop\n        /* \"#utility.yul\":4463:4901   */\n      jump(tag_224)\n    tag_226:\n        /* \"#utility.yul\":4467:4481   */\n      pop\n        /* \"#utility.yul\":4917:4921   */\n      dup3\n        /* \"#utility.yul\":4910:4921   */\n      swap8\n      pop\n        /* \"#utility.yul\":4937:4940   */\n      dup8\n        /* \"#utility.yul\":4930:4940   */\n      swap6\n      pop\n        /* \"#utility.yul\":4015:4946   */\n      pop\n      pop\n      pop\n      pop\n      pop\n        /* \"#utility.yul\":3843:4946   */\n      swap3\n      swap2\n      pop\n      pop\n      jump\t// out\n        /* \"#utility.yul\":4952:5421   */\n    tag_22:\n        /* \"#utility.yul\":5143:5147   */\n      0x00\n        /* \"#utility.yul\":5181:5183   */\n      0x20\n        /* \"#utility.yul\":5170:5179   */\n      dup3\n        /* \"#utility.yul\":5166:5184   */\n      add\n        /* \"#utility.yul\":5158:5184   */\n      swap1\n      pop\n        /* \"#utility.yul\":5230:5239   */\n      dup2\n        /* \"#utility.yul\":5224:5228   */\n      dup2\n        /* \"#utility.yul\":5220:5240   */\n      sub\n        /* \"#utility.yul\":5216:5217   */\n      0x00\n        /* \"#utility.yul\":5205:5214   */\n      dup4\n        /* \"#utility.yul\":5201:5218   */\n      add\n        /* \"#utility.yul\":5194:5241   */\n      mstore\n        /* \"#utility.yul\":5258:5414   */\n      tag_230\n        /* \"#utility.yul\":5409:5413   */\n      dup2\n        /* \"#utility.yul\":5400:5406   */\n      dup5\n        /* \"#utility.yul\":5258:5414   */\n      tag_141\n      jump\t// in\n    tag_230:\n        /* \"#utility.yul\":5250:5414   */\n      swap1\n      pop\n        /* \"#utility.yul\":4952:5421   */\n      swap3\n      swap2\n      pop\n      pop\n      jump\t// out\n        /* \"#utility.yul\":5427:5545   */\n    tag_142:\n        /* \"#utility.yul\":5514:5538   */\n      tag_232\n        /* \"#utility.yul\":5532:5537   */\n      dup2\n        /* \"#utility.yul\":5514:5538   */\n      tag_126\n      jump\t// in\n    tag_232:\n        /* \"#utility.yul\":5509:5512   */\n      dup3\n        /* \"#utility.yul\":5502:5539   */\n      mstore\n        /* \"#utility.yul\":5427:5545   */\n      pop\n      pop\n      jump\t// out\n        /* \"#utility.yul\":5551:5773   */\n    tag_26:\n        /* \"#utility.yul\":5644:5648   */\n      0x00\n        /* \"#utility.yul\":5682:5684   */\n      0x20\n        /* \"#utility.yul\":5671:5680   */\n      dup3\n        /* \"#utility.yul\":5667:5685   */\n      add\n        /* \"#utility.yul\":5659:5685   */\n      swap1\n      pop\n        /* \"#utility.yul\":5695:5766   */\n      tag_234\n        /* \"#utility.yul\":5763:5764   */\n      0x00\n        /* \"#utility.yul\":5752:5761   */\n      dup4\n        /* \"#utility.yul\":5748:5765   */\n      add\n        /* \"#utility.yul\":5739:5745   */\n      dup5\n        /* \"#utility.yul\":5695:5766   */\n      tag_142\n      jump\t// in\n    tag_234:\n        /* \"#utility.yul\":5551:5773   */\n      swap3\n      swap2\n      pop\n      pop\n      jump\t// out\n        /* \"#utility.yul\":5779:5948   */\n    tag_143:\n        /* \"#utility.yul\":5863:5874   */\n      0x00\n        /* \"#utility.yul\":5897:5903   */\n      dup3\n        /* \"#utility.yul\":5892:5895   */\n      dup3\n        /* \"#utility.yul\":5885:5904   */\n      mstore\n        /* \"#utility.yul\":5937:5941   */\n      0x20\n        /* \"#utility.yul\":5932:5935   */\n      dup3\n        /* \"#utility.yul\":5928:5942   */\n      add\n        /* \"#utility.yul\":5913:5942   */\n      swap1\n      pop\n        /* \"#utility.yul\":5779:5948   */\n      swap3\n      swap2\n      pop\n      pop\n      jump\t// out\n        /* \"#utility.yul\":5954:6331   */\n    tag_144:\n        /* \"#utility.yul\":6042:6045   */\n      0x00\n        /* \"#utility.yul\":6070:6109   */\n      tag_237\n        /* \"#utility.yul\":6103:6108   */\n      dup3\n        /* \"#utility.yul\":6070:6109   */\n      tag_133\n      jump\t// in\n    tag_237:\n        /* \"#utility.yul\":6125:6196   */\n      tag_238\n        /* \"#utility.yul\":6189:6195   */\n      dup2\n        /* \"#utility.yul\":6184:6187   */\n      dup6\n        /* \"#utility.yul\":6125:6196   */\n      tag_143\n      jump\t// in\n    tag_238:\n        /* \"#utility.yul\":6118:6196   */\n      swap4\n      pop\n        /* \"#utility.yul\":6205:6270   */\n      tag_239\n        /* \"#utility.yul\":6263:6269   */\n      dup2\n        /* \"#utility.yul\":6258:6261   */\n      dup6\n        /* \"#utility.yul\":6251:6255   */\n      0x20\n        /* \"#utility.yul\":6244:6249   */\n      dup7\n        /* \"#utility.yul\":6240:6256   */\n      add\n        /* \"#utility.yul\":6205:6270   */\n      tag_135\n      jump\t// in\n    tag_239:\n        /* \"#utility.yul\":6295:6324   */\n      tag_240\n        /* \"#utility.yul\":6317:6323   */\n      dup2\n        /* \"#utility.yul\":6295:6324   */\n      tag_136\n      jump\t// in\n    tag_240:\n        /* \"#utility.yul\":6290:6293   */\n      dup5\n        /* \"#utility.yul\":6286:6325   */\n      add\n        /* \"#utility.yul\":6279:6325   */\n      swap2\n      pop\n        /* \"#utility.yul\":6046:6331   */\n      pop\n        /* \"#utility.yul\":5954:6331   */\n      swap3\n      swap2\n      pop\n      pop\n      jump\t// out\n        /* \"#utility.yul\":6337:6870   */\n    tag_37:\n        /* \"#utility.yul\":6506:6510   */\n      0x00\n        /* \"#utility.yul\":6544:6546   */\n      0x60\n        /* \"#utility.yul\":6533:6542   */\n      dup3\n        /* \"#utility.yul\":6529:6547   */\n      add\n        /* \"#utility.yul\":6521:6547   */\n      swap1\n      pop\n        /* \"#utility.yul\":6557:6628   */\n      tag_242\n        /* \"#utility.yul\":6625:6626   */\n      0x00\n        /* \"#utility.yul\":6614:6623   */\n      dup4\n        /* \"#utility.yul\":6610:6627   */\n      add\n        /* \"#utility.yul\":6601:6607   */\n      dup7\n        /* \"#utility.yul\":6557:6628   */\n      tag_142\n      jump\t// in\n    tag_242:\n        /* \"#utility.yul\":6675:6684   */\n      dup2\n        /* \"#utility.yul\":6669:6673   */\n      dup2\n        /* \"#utility.yul\":6665:6685   */\n      sub\n        /* \"#utility.yul\":6660:6662   */\n      0x20\n        /* \"#utility.yul\":6649:6658   */\n      dup4\n        /* \"#utility.yul\":6645:6663   */\n      add\n        /* \"#utility.yul\":6638:6686   */\n      mstore\n        /* \"#utility.yul\":6703:6781   */\n      tag_243\n        /* \"#utility.yul\":6776:6780   */\n      dup2\n        /* \"#utility.yul\":6767:6773   */\n      dup6\n        /* \"#utility.yul\":6703:6781   */\n      tag_144\n      jump\t// in\n    tag_243:\n        /* \"#utility.yul\":6695:6781   */\n      swap1\n      pop\n        /* \"#utility.yul\":6791:6863   */\n      tag_244\n        /* \"#utility.yul\":6859:6861   */\n      0x40\n        /* \"#utility.yul\":6848:6857   */\n      dup4\n        /* \"#utility.yul\":6844:6862   */\n      add\n        /* \"#utility.yul\":6835:6841   */\n      dup5\n        /* \"#utility.yul\":6791:6863   */\n      tag_142\n      jump\t// in\n    tag_244:\n        /* \"#utility.yul\":6337:6870   */\n      swap5\n      swap4\n      pop\n      pop\n      pop\n      pop\n      jump\t// out\n        /* \"#utility.yul\":6876:6993   */\n    tag_145:\n        /* \"#utility.yul\":6985:6986   */\n      0x00\n        /* \"#utility.yul\":6982:6983   */\n      dup1\n        /* \"#utility.yul\":6975:6987   */\n      revert\n        /* \"#utility.yul\":6999:7116   */\n    tag_146:\n        /* \"#utility.yul\":7108:7109   */\n      0x00\n        /* \"#utility.yul\":7105:7106   */\n      dup1\n        /* \"#utility.yul\":7098:7110   */\n      revert\n        /* \"#utility.yul\":7122:7302   */\n    tag_78:\n        /* \"#utility.yul\":7170:7247   */\n      0x4e487b7100000000000000000000000000000000000000000000000000000000\n        /* \"#utility.yul\":7167:7168   */\n      0x00\n        /* \"#utility.yul\":7160:7248   */\n      mstore\n        /* \"#utility.yul\":7267:7271   */\n      0x41\n        /* \"#utility.yul\":7264:7265   */\n      0x04\n        /* \"#utility.yul\":7257:7272   */\n      mstore\n        /* \"#utility.yul\":7291:7295   */\n      0x24\n        /* \"#utility.yul\":7288:7289   */\n      0x00\n        /* \"#utility.yul\":7281:7296   */\n      revert\n        /* \"#utility.yul\":7308:7589   */\n    tag_147:\n        /* \"#utility.yul\":7391:7418   */\n      tag_249\n        /* \"#utility.yul\":7413:7417   */\n      dup3\n        /* \"#utility.yul\":7391:7418   */\n      tag_136\n      jump\t// in\n    tag_249:\n        /* \"#utility.yul\":7383:7389   */\n      dup2\n        /* \"#utility.yul\":7379:7419   */\n      add\n        /* \"#utility.yul\":7521:7527   */\n      dup2\n        /* \"#utility.yul\":7509:7519   */\n      dup2\n        /* \"#utility.yul\":7506:7528   */\n      lt\n        /* \"#utility.yul\":7485:7503   */\n      0xffffffffffffffff\n        /* \"#utility.yul\":7473:7483   */\n      dup3\n        /* \"#utility.yul\":7470:7504   */\n      gt\n        /* \"#utility.yul\":7467:7529   */\n      or\n        /* \"#utility.yul\":7464:7552   */\n      iszero\n      tag_250\n      jumpi\n        /* \"#utility.yul\":7532:7550   */\n      tag_251\n      tag_78\n      jump\t// in\n    tag_251:\n        /* \"#utility.yul\":7464:7552   */\n    tag_250:\n        /* \"#utility.yul\":7572:7582   */\n      dup1\n        /* \"#utility.yul\":7568:7570   */\n      0x40\n        /* \"#utility.yul\":7561:7583   */\n      mstore\n        /* \"#utility.yul\":7351:7589   */\n      pop\n        /* \"#utility.yul\":7308:7589   */\n      pop\n      pop\n      jump\t// out\n        /* \"#utility.yul\":7595:7724   */\n    tag_148:\n        /* \"#utility.yul\":7629:7635   */\n      0x00\n        /* \"#utility.yul\":7656:7676   */\n      tag_253\n      tag_123\n      jump\t// in\n    tag_253:\n        /* \"#utility.yul\":7646:7676   */\n      swap1\n      pop\n        /* \"#utility.yul\":7685:7718   */\n      tag_254\n        /* \"#utility.yul\":7713:7717   */\n      dup3\n        /* \"#utility.yul\":7705:7711   */\n      dup3\n        /* \"#utility.yul\":7685:7718   */\n      tag_147\n      jump\t// in\n    tag_254:\n        /* \"#utility.yul\":7595:7724   */\n      swap2\n      swap1\n      pop\n      jump\t// out\n        /* \"#utility.yul\":7730:8038   */\n    tag_149:\n        /* \"#utility.yul\":7792:7796   */\n      0x00\n        /* \"#utility.yul\":7882:7900   */\n      0xffffffffffffffff\n        /* \"#utility.yul\":7874:7880   */\n      dup3\n        /* \"#utility.yul\":7871:7901   */\n      gt\n        /* \"#utility.yul\":7868:7924   */\n      iszero\n      tag_256\n      jumpi\n        /* \"#utility.yul\":7904:7922   */\n      tag_257\n      tag_78\n      jump\t// in\n    tag_257:\n        /* \"#utility.yul\":7868:7924   */\n    tag_256:\n        /* \"#utility.yul\":7942:7971   */\n      tag_258\n        /* \"#utility.yul\":7964:7970   */\n      dup3\n        /* \"#utility.yul\":7942:7971   */\n      tag_136\n      jump\t// in\n    tag_258:\n        /* \"#utility.yul\":7934:7971   */\n      swap1\n      pop\n        /* \"#utility.yul\":8026:8030   */\n      0x20\n        /* \"#utility.yul\":8020:8024   */\n      dup2\n        /* \"#utility.yul\":8016:8031   */\n      add\n        /* \"#utility.yul\":8008:8031   */\n      swap1\n      pop\n        /* \"#utility.yul\":7730:8038   */\n      swap2\n      swap1\n      pop\n      jump\t// out\n        /* \"#utility.yul\":8044:8192   */\n    tag_150:\n        /* \"#utility.yul\":8142:8148   */\n      dup3\n        /* \"#utility.yul\":8137:8140   */\n      dup2\n        /* \"#utility.yul\":8132:8135   */\n      dup4\n        /* \"#utility.yul\":8119:8149   */\n      calldatacopy\n        /* \"#utility.yul\":8183:8184   */\n      0x00\n        /* \"#utility.yul\":8174:8180   */\n      dup4\n        /* \"#utility.yul\":8169:8172   */\n      dup4\n        /* \"#utility.yul\":8165:8181   */\n      add\n        /* \"#utility.yul\":8158:8185   */\n      mstore\n        /* \"#utility.yul\":8044:8192   */\n      pop\n      pop\n      pop\n      jump\t// out\n        /* \"#utility.yul\":8198:8623   */\n    tag_151:\n        /* \"#utility.yul\":8276:8281   */\n      0x00\n        /* \"#utility.yul\":8301:8367   */\n      tag_261\n        /* \"#utility.yul\":8317:8366   */\n      tag_262\n        /* \"#utility.yul\":8359:8365   */\n      dup5\n        /* \"#utility.yul\":8317:8366   */\n      tag_149\n      jump\t// in\n    tag_262:\n        /* \"#utility.yul\":8301:8367   */\n      tag_148\n      jump\t// in\n    tag_261:\n        /* \"#utility.yul\":8292:8367   */\n      swap1\n      pop\n        /* \"#utility.yul\":8390:8396   */\n      dup3\n        /* \"#utility.yul\":8383:8388   */\n      dup2\n        /* \"#utility.yul\":8376:8397   */\n      mstore\n        /* \"#utility.yul\":8428:8432   */\n      0x20\n        /* \"#utility.yul\":8421:8426   */\n      dup2\n        /* \"#utility.yul\":8417:8433   */\n      add\n        /* \"#utility.yul\":8466:8469   */\n      dup5\n        /* \"#utility.yul\":8457:8463   */\n      dup5\n        /* \"#utility.yul\":8452:8455   */\n      dup5\n        /* \"#utility.yul\":8448:8464   */\n      add\n        /* \"#utility.yul\":8445:8470   */\n      gt\n        /* \"#utility.yul\":8442:8554   */\n      iszero\n      tag_263\n      jumpi\n        /* \"#utility.yul\":8473:8552   */\n      tag_264\n      tag_146\n      jump\t// in\n    tag_264:\n        /* \"#utility.yul\":8442:8554   */\n    tag_263:\n        /* \"#utility.yul\":8563:8617   */\n      tag_265\n        /* \"#utility.yul\":8610:8616   */\n      dup5\n        /* \"#utility.yul\":8605:8608   */\n      dup3\n        /* \"#utility.yul\":8600:8603   */\n      dup6\n        /* \"#utility.yul\":8563:8617   */\n      tag_150\n      jump\t// in\n    tag_265:\n        /* \"#utility.yul\":8282:8623   */\n      pop\n        /* \"#utility.yul\":8198:8623   */\n      swap4\n      swap3\n      pop\n      pop\n      pop\n      jump\t// out\n        /* \"#utility.yul\":8643:8983   */\n    tag_152:\n        /* \"#utility.yul\":8699:8704   */\n      0x00\n        /* \"#utility.yul\":8748:8751   */\n      dup3\n        /* \"#utility.yul\":8741:8745   */\n      0x1f\n        /* \"#utility.yul\":8733:8739   */\n      dup4\n        /* \"#utility.yul\":8729:8746   */\n      add\n        /* \"#utility.yul\":8725:8752   */\n      slt\n        /* \"#utility.yul\":8715:8837   */\n      tag_267\n      jumpi\n        /* \"#utility.yul\":8756:8835   */\n      tag_268\n      tag_145\n      jump\t// in\n    tag_268:\n        /* \"#utility.yul\":8715:8837   */\n    tag_267:\n        /* \"#utility.yul\":8873:8879   */\n      dup2\n        /* \"#utility.yul\":8860:8880   */\n      calldataload\n        /* \"#utility.yul\":8898:8977   */\n      tag_269\n        /* \"#utility.yul\":8973:8976   */\n      dup5\n        /* \"#utility.yul\":8965:8971   */\n      dup3\n        /* \"#utility.yul\":8958:8962   */\n      0x20\n        /* \"#utility.yul\":8950:8956   */\n      dup7\n        /* \"#utility.yul\":8946:8963   */\n      add\n        /* \"#utility.yul\":8898:8977   */\n      tag_151\n      jump\t// in\n    tag_269:\n        /* \"#utility.yul\":8889:8977   */\n      swap2\n      pop\n        /* \"#utility.yul\":8705:8983   */\n      pop\n        /* \"#utility.yul\":8643:8983   */\n      swap3\n      swap2\n      pop\n      pop\n      jump\t// out\n        /* \"#utility.yul\":8989:9498   */\n    tag_40:\n        /* \"#utility.yul\":9058:9064   */\n      0x00\n        /* \"#utility.yul\":9107:9109   */\n      0x20\n        /* \"#utility.yul\":9095:9104   */\n      dup3\n        /* \"#utility.yul\":9086:9093   */\n      dup5\n        /* \"#utility.yul\":9082:9105   */\n      sub\n        /* \"#utility.yul\":9078:9110   */\n      slt\n        /* \"#utility.yul\":9075:9194   */\n      iszero\n      tag_271\n      jumpi\n        /* \"#utility.yul\":9113:9192   */\n      tag_272\n      tag_124\n      jump\t// in\n    tag_272:\n        /* \"#utility.yul\":9075:9194   */\n    tag_271:\n        /* \"#utility.yul\":9261:9262   */\n      0x00\n        /* \"#utility.yul\":9250:9259   */\n      dup3\n        /* \"#utility.yul\":9246:9263   */\n      add\n        /* \"#utility.yul\":9233:9264   */\n      calldataload\n        /* \"#utility.yul\":9291:9309   */\n      0xffffffffffffffff\n        /* \"#utility.yul\":9283:9289   */\n      dup2\n        /* \"#utility.yul\":9280:9310   */\n      gt\n        /* \"#utility.yul\":9277:9394   */\n      iszero\n      tag_273\n      jumpi\n        /* \"#utility.yul\":9313:9392   */\n      tag_274\n      tag_125\n      jump\t// in\n    tag_274:\n        /* \"#utility.yul\":9277:9394   */\n    tag_273:\n        /* \"#utility.yul\":9418:9481   */\n      tag_275\n        /* \"#utility.yul\":9473:9480   */\n      dup5\n        /* \"#utility.yul\":9464:9470   */\n      dup3\n        /* \"#utility.yul\":9453:9462   */\n      dup6\n        /* \"#utility.yul\":9449:9471   */\n      add\n        /* \"#utility.yul\":9418:9481   */\n      tag_152\n      jump\t// in\n    tag_275:\n        /* \"#utility.yul\":9408:9481   */\n      swap2\n      pop\n        /* \"#utility.yul\":9204:9491   */\n      pop\n        /* \"#utility.yul\":8989:9498   */\n      swap3\n      swap2\n      pop\n      pop\n      jump\t// out\n        /* \"#utility.yul\":9504:9630   */\n    tag_153:\n        /* \"#utility.yul\":9541:9548   */\n      0x00\n        /* \"#utility.yul\":9581:9623   */\n      0xffffffffffffffffffffffffffffffffffffffff\n        /* \"#utility.yul\":9574:9579   */\n      dup3\n        /* \"#utility.yul\":9570:9624   */\n      and\n        /* \"#utility.yul\":9559:9624   */\n      swap1\n      pop\n        /* \"#utility.yul\":9504:9630   */\n      swap2\n      swap1\n      pop\n      jump\t// out\n        /* \"#utility.yul\":9636:9732   */\n    tag_154:\n        /* \"#utility.yul\":9673:9680   */\n      0x00\n        /* \"#utility.yul\":9702:9726   */\n      tag_278\n        /* \"#utility.yul\":9720:9725   */\n      dup3\n        /* \"#utility.yul\":9702:9726   */\n      tag_153\n      jump\t// in\n    tag_278:\n        /* \"#utility.yul\":9691:9726   */\n      swap1\n      pop\n        /* \"#utility.yul\":9636:9732   */\n      swap2\n      swap1\n      pop\n      jump\t// out\n        /* \"#utility.yul\":9738:9856   */\n    tag_155:\n        /* \"#utility.yul\":9825:9849   */\n      tag_280\n        /* \"#utility.yul\":9843:9848   */\n      dup2\n        /* \"#utility.yul\":9825:9849   */\n      tag_154\n      jump\t// in\n    tag_280:\n        /* \"#utility.yul\":9820:9823   */\n      dup3\n        /* \"#utility.yul\":9813:9850   */\n      mstore\n        /* \"#utility.yul\":9738:9856   */\n      pop\n      pop\n      jump\t// out\n        /* \"#utility.yul\":9862:10084   */\n    tag_45:\n        /* \"#utility.yul\":9955:9959   */\n      0x00\n        /* \"#utility.yul\":9993:9995   */\n      0x20\n        /* \"#utility.yul\":9982:9991   */\n      dup3\n        /* \"#utility.yul\":9978:9996   */\n      add\n        /* \"#utility.yul\":9970:9996   */\n      swap1\n      pop\n        /* \"#utility.yul\":10006:10077   */\n      tag_282\n        /* \"#utility.yul\":10074:10075   */\n      0x00\n        /* \"#utility.yul\":10063:10072   */\n      dup4\n        /* \"#utility.yul\":10059:10076   */\n      add\n        /* \"#utility.yul\":10050:10056   */\n      dup5\n        /* \"#utility.yul\":10006:10077   */\n      tag_155\n      jump\t// in\n    tag_282:\n        /* \"#utility.yul\":9862:10084   */\n      swap3\n      swap2\n      pop\n      pop\n      jump\t// out\n        /* \"#utility.yul\":10090:10212   */\n    tag_156:\n        /* \"#utility.yul\":10163:10187   */\n      tag_284\n        /* \"#utility.yul\":10181:10186   */\n      dup2\n        /* \"#utility.yul\":10163:10187   */\n      tag_154\n      jump\t// in\n    tag_284:\n        /* \"#utility.yul\":10156:10161   */\n      dup2\n        /* \"#utility.yul\":10153:10188   */\n      eq\n        /* \"#utility.yul\":10143:10206   */\n      tag_285\n      jumpi\n        /* \"#utility.yul\":10202:10203   */\n      0x00\n        /* \"#utility.yul\":10199:10200   */\n      dup1\n        /* \"#utility.yul\":10192:10204   */\n      revert\n        /* \"#utility.yul\":10143:10206   */\n    tag_285:\n        /* \"#utility.yul\":10090:10212   */\n      pop\n      jump\t// out\n        /* \"#utility.yul\":10218:10357   */\n    tag_157:\n        /* \"#utility.yul\":10264:10269   */\n      0x00\n        /* \"#utility.yul\":10302:10308   */\n      dup2\n        /* \"#utility.yul\":10289:10309   */\n      calldataload\n        /* \"#utility.yul\":10280:10309   */\n      swap1\n      pop\n        /* \"#utility.yul\":10318:10351   */\n      tag_287\n        /* \"#utility.yul\":10345:10350   */\n      dup2\n        /* \"#utility.yul\":10318:10351   */\n      tag_156\n      jump\t// in\n    tag_287:\n        /* \"#utility.yul\":10218:10357   */\n      swap3\n      swap2\n      pop\n      pop\n      jump\t// out\n        /* \"#utility.yul\":10363:10692   */\n    tag_48:\n        /* \"#utility.yul\":10422:10428   */\n      0x00\n        /* \"#utility.yul\":10471:10473   */\n      0x20\n        /* \"#utility.yul\":10459:10468   */\n      dup3\n        /* \"#utility.yul\":10450:10457   */\n      dup5\n        /* \"#utility.yul\":10446:10469   */\n      sub\n        /* \"#utility.yul\":10442:10474   */\n      slt\n        /* \"#utility.yul\":10439:10558   */\n      iszero\n      tag_289\n      jumpi\n        /* \"#utility.yul\":10477:10556   */\n      tag_290\n      tag_124\n      jump\t// in\n    tag_290:\n        /* \"#utility.yul\":10439:10558   */\n    tag_289:\n        /* \"#utility.yul\":10597:10598   */\n      0x00\n        /* \"#utility.yul\":10622:10675   */\n      tag_291\n        /* \"#utility.yul\":10667:10674   */\n      dup5\n        /* \"#utility.yul\":10658:10664   */\n      dup3\n        /* \"#utility.yul\":10647:10656   */\n      dup6\n        /* \"#utility.yul\":10643:10665   */\n      add\n        /* \"#utility.yul\":10622:10675   */\n      tag_157\n      jump\t// in\n    tag_291:\n        /* \"#utility.yul\":10612:10675   */\n      swap2\n      pop\n        /* \"#utility.yul\":10568:10685   */\n      pop\n        /* \"#utility.yul\":10363:10692   */\n      swap3\n      swap2\n      pop\n      pop\n      jump\t// out\n        /* \"#utility.yul\":10698:10788   */\n    tag_158:\n        /* \"#utility.yul\":10732:10739   */\n      0x00\n        /* \"#utility.yul\":10775:10780   */\n      dup2\n        /* \"#utility.yul\":10768:10781   */\n      iszero\n        /* \"#utility.yul\":10761:10782   */\n      iszero\n        /* \"#utility.yul\":10750:10782   */\n      swap1\n      pop\n        /* \"#utility.yul\":10698:10788   */\n      swap2\n      swap1\n      pop\n      jump\t// out\n        /* \"#utility.yul\":10794:10903   */\n    tag_159:\n        /* \"#utility.yul\":10875:10896   */\n      tag_294\n        /* \"#utility.yul\":10890:10895   */\n      dup2\n        /* \"#utility.yul\":10875:10896   */\n      tag_158\n      jump\t// in\n    tag_294:\n        /* \"#utility.yul\":10870:10873   */\n      dup3\n        /* \"#utility.yul\":10863:10897   */\n      mstore\n        /* \"#utility.yul\":10794:10903   */\n      pop\n      pop\n      jump\t// out\n        /* \"#utility.yul\":10909:11119   */\n    tag_51:\n        /* \"#utility.yul\":10996:11000   */\n      0x00\n        /* \"#utility.yul\":11034:11036   */\n      0x20\n        /* \"#utility.yul\":11023:11032   */\n      dup3\n        /* \"#utility.yul\":11019:11037   */\n      add\n        /* \"#utility.yul\":11011:11037   */\n      swap1\n      pop\n        /* \"#utility.yul\":11047:11112   */\n      tag_296\n        /* \"#utility.yul\":11109:11110   */\n      0x00\n        /* \"#utility.yul\":11098:11107   */\n      dup4\n        /* \"#utility.yul\":11094:11111   */\n      add\n        /* \"#utility.yul\":11085:11091   */\n      dup5\n        /* \"#utility.yul\":11047:11112   */\n      tag_159\n      jump\t// in\n    tag_296:\n        /* \"#utility.yul\":10909:11119   */\n      swap3\n      swap2\n      pop\n      pop\n      jump\t// out\n        /* \"#utility.yul\":11125:11299   */\n    tag_160:\n        /* \"#utility.yul\":11265:11291   */\n      0x566f74696e6720706572696f642068617320656e6465642e0000000000000000\n        /* \"#utility.yul\":11261:11262   */\n      0x00\n        /* \"#utility.yul\":11253:11259   */\n      dup3\n        /* \"#utility.yul\":11249:11263   */\n      add\n        /* \"#utility.yul\":11242:11292   */\n      mstore\n        /* \"#utility.yul\":11125:11299   */\n      pop\n      jump\t// out\n        /* \"#utility.yul\":11305:11671   */\n    tag_161:\n        /* \"#utility.yul\":11447:11450   */\n      0x00\n        /* \"#utility.yul\":11468:11535   */\n      tag_299\n        /* \"#utility.yul\":11532:11534   */\n      0x18\n        /* \"#utility.yul\":11527:11530   */\n      dup4\n        /* \"#utility.yul\":11468:11535   */\n      tag_143\n      jump\t// in\n    tag_299:\n        /* \"#utility.yul\":11461:11535   */\n      swap2\n      pop\n        /* \"#utility.yul\":11544:11637   */\n      tag_300\n        /* \"#utility.yul\":11633:11636   */\n      dup3\n        /* \"#utility.yul\":11544:11637   */\n      tag_160\n      jump\t// in\n    tag_300:\n        /* \"#utility.yul\":11662:11664   */\n      0x20\n        /* \"#utility.yul\":11657:11660   */\n      dup3\n        /* \"#utility.yul\":11653:11665   */\n      add\n        /* \"#utility.yul\":11646:11665   */\n      swap1\n      pop\n        /* \"#utility.yul\":11305:11671   */\n      swap2\n      swap1\n      pop\n      jump\t// out\n        /* \"#utility.yul\":11677:12096   */\n    tag_62:\n        /* \"#utility.yul\":11843:11847   */\n      0x00\n        /* \"#utility.yul\":11881:11883   */\n      0x20\n        /* \"#utility.yul\":11870:11879   */\n      dup3\n        /* \"#utility.yul\":11866:11884   */\n      add\n        /* \"#utility.yul\":11858:11884   */\n      swap1\n      pop\n        /* \"#utility.yul\":11930:11939   */\n      dup2\n        /* \"#utility.yul\":11924:11928   */\n      dup2\n        /* \"#utility.yul\":11920:11940   */\n      sub\n        /* \"#utility.yul\":11916:11917   */\n      0x00\n        /* \"#utility.yul\":11905:11914   */\n      dup4\n        /* \"#utility.yul\":11901:11918   */\n      add\n        /* \"#utility.yul\":11894:11941   */\n      mstore\n        /* \"#utility.yul\":11958:12089   */\n      tag_302\n        /* \"#utility.yul\":12084:12088   */\n      dup2\n        /* \"#utility.yul\":11958:12089   */\n      tag_161\n      jump\t// in\n    tag_302:\n        /* \"#utility.yul\":11950:12089   */\n      swap1\n      pop\n        /* \"#utility.yul\":11677:12096   */\n      swap2\n      swap1\n      pop\n      jump\t// out\n        /* \"#utility.yul\":12102:12275   */\n    tag_162:\n        /* \"#utility.yul\":12242:12267   */\n      0x596f75206861766520616c726561647920766f7465642e000000000000000000\n        /* \"#utility.yul\":12238:12239   */\n      0x00\n        /* \"#utility.yul\":12230:12236   */\n      dup3\n        /* \"#utility.yul\":12226:12240   */\n      add\n        /* \"#utility.yul\":12219:12268   */\n      mstore\n        /* \"#utility.yul\":12102:12275   */\n      pop\n      jump\t// out\n        /* \"#utility.yul\":12281:12647   */\n    tag_163:\n        /* \"#utility.yul\":12423:12426   */\n      0x00\n        /* \"#utility.yul\":12444:12511   */\n      tag_305\n        /* \"#utility.yul\":12508:12510   */\n      0x17\n        /* \"#utility.yul\":12503:12506   */\n      dup4\n        /* \"#utility.yul\":12444:12511   */\n      tag_143\n      jump\t// in\n    tag_305:\n        /* \"#utility.yul\":12437:12511   */\n      swap2\n      pop\n        /* \"#utility.yul\":12520:12613   */\n      tag_306\n        /* \"#utility.yul\":12609:12612   */\n      dup3\n        /* \"#utility.yul\":12520:12613   */\n      tag_162\n      jump\t// in\n    tag_306:\n        /* \"#utility.yul\":12638:12640   */\n      0x20\n        /* \"#utility.yul\":12633:12636   */\n      dup3\n        /* \"#utility.yul\":12629:12641   */\n      add\n        /* \"#utility.yul\":12622:12641   */\n      swap1\n      pop\n        /* \"#utility.yul\":12281:12647   */\n      swap2\n      swap1\n      pop\n      jump\t// out\n        /* \"#utility.yul\":12653:13072   */\n    tag_66:\n        /* \"#utility.yul\":12819:12823   */\n      0x00\n        /* \"#utility.yul\":12857:12859   */\n      0x20\n        /* \"#utility.yul\":12846:12855   */\n      dup3\n        /* \"#utility.yul\":12842:12860   */\n      add\n        /* \"#utility.yul\":12834:12860   */\n      swap1\n      pop\n        /* \"#utility.yul\":12906:12915   */\n      dup2\n        /* \"#utility.yul\":12900:12904   */\n      dup2\n        /* \"#utility.yul\":12896:12916   */\n      sub\n        /* \"#utility.yul\":12892:12893   */\n      0x00\n        /* \"#utility.yul\":12881:12890   */\n      dup4\n        /* \"#utility.yul\":12877:12894   */\n      add\n        /* \"#utility.yul\":12870:12917   */\n      mstore\n        /* \"#utility.yul\":12934:13065   */\n      tag_308\n        /* \"#utility.yul\":13060:13064   */\n      dup2\n        /* \"#utility.yul\":12934:13065   */\n      tag_163\n      jump\t// in\n    tag_308:\n        /* \"#utility.yul\":12926:13065   */\n      swap1\n      pop\n        /* \"#utility.yul\":12653:13072   */\n      swap2\n      swap1\n      pop\n      jump\t// out\n        /* \"#utility.yul\":13078:13249   */\n    tag_164:\n        /* \"#utility.yul\":13218:13241   */\n      0x496e76616c69642063616e6469646174652049442e0000000000000000000000\n        /* \"#utility.yul\":13214:13215   */\n      0x00\n        /* \"#utility.yul\":13206:13212   */\n      dup3\n        /* \"#utility.yul\":13202:13216   */\n      add\n        /* \"#utility.yul\":13195:13242   */\n      mstore\n        /* \"#utility.yul\":13078:13249   */\n      pop\n      jump\t// out\n        /* \"#utility.yul\":13255:13621   */\n    tag_165:\n        /* \"#utility.yul\":13397:13400   */\n      0x00\n        /* \"#utility.yul\":13418:13485   */\n      tag_311\n        /* \"#utility.yul\":13482:13484   */\n      0x15\n        /* \"#utility.yul\":13477:13480   */\n      dup4\n        /* \"#utility.yul\":13418:13485   */\n      tag_143\n      jump\t// in\n    tag_311:\n        /* \"#utility.yul\":13411:13485   */\n      swap2\n      pop\n        /* \"#utility.yul\":13494:13587   */\n      tag_312\n        /* \"#utility.yul\":13583:13586   */\n      dup3\n        /* \"#utility.yul\":13494:13587   */\n      tag_164\n      jump\t// in\n    tag_312:\n        /* \"#utility.yul\":13612:13614   */\n      0x20\n        /* \"#utility.yul\":13607:13610   */\n      dup3\n        /* \"#utility.yul\":13603:13615   */\n      add\n        /* \"#utility.yul\":13596:13615   */\n      swap1\n      pop\n        /* \"#utility.yul\":13255:13621   */\n      swap2\n      swap1\n      pop\n      jump\t// out\n        /* \"#utility.yul\":13627:14046   */\n    tag_70:\n        /* \"#utility.yul\":13793:13797   */\n      0x00\n        /* \"#utility.yul\":13831:13833   */\n      0x20\n        /* \"#utility.yul\":13820:13829   */\n      dup3\n        /* \"#utility.yul\":13816:13834   */\n      add\n        /* \"#utility.yul\":13808:13834   */\n      swap1\n      pop\n        /* \"#utility.yul\":13880:13889   */\n      dup2\n        /* \"#utility.yul\":13874:13878   */\n      dup2\n        /* \"#utility.yul\":13870:13890   */\n      sub\n        /* \"#utility.yul\":13866:13867   */\n      0x00\n        /* \"#utility.yul\":13855:13864   */\n      dup4\n        /* \"#utility.yul\":13851:13868   */\n      add\n        /* \"#utility.yul\":13844:13891   */\n      mstore\n        /* \"#utility.yul\":13908:14039   */\n      tag_314\n        /* \"#utility.yul\":14034:14038   */\n      dup2\n        /* \"#utility.yul\":13908:14039   */\n      tag_165\n      jump\t// in\n    tag_314:\n        /* \"#utility.yul\":13900:14039   */\n      swap1\n      pop\n        /* \"#utility.yul\":13627:14046   */\n      swap2\n      swap1\n      pop\n      jump\t// out\n        /* \"#utility.yul\":14052:14232   */\n    tag_166:\n        /* \"#utility.yul\":14100:14177   */\n      0x4e487b7100000000000000000000000000000000000000000000000000000000\n        /* \"#utility.yul\":14097:14098   */\n      0x00\n        /* \"#utility.yul\":14090:14178   */\n      mstore\n        /* \"#utility.yul\":14197:14201   */\n      0x11\n        /* \"#utility.yul\":14194:14195   */\n      0x04\n        /* \"#utility.yul\":14187:14202   */\n      mstore\n        /* \"#utility.yul\":14221:14225   */\n      0x24\n        /* \"#utility.yul\":14218:14219   */\n      0x00\n        /* \"#utility.yul\":14211:14226   */\n      revert\n        /* \"#utility.yul\":14238:14471   */\n    tag_72:\n        /* \"#utility.yul\":14277:14280   */\n      0x00\n        /* \"#utility.yul\":14300:14324   */\n      tag_317\n        /* \"#utility.yul\":14318:14323   */\n      dup3\n        /* \"#utility.yul\":14300:14324   */\n      tag_126\n      jump\t// in\n    tag_317:\n        /* \"#utility.yul\":14291:14324   */\n      swap2\n      pop\n        /* \"#utility.yul\":14346:14412   */\n      0xffffffffffffffffffffffffffffffffffffffffffffffffffffffffffffffff\n        /* \"#utility.yul\":14339:14344   */\n      dup3\n        /* \"#utility.yul\":14336:14413   */\n      sub\n        /* \"#utility.yul\":14333:14436   */\n      tag_318\n      jumpi\n        /* \"#utility.yul\":14416:14434   */\n      tag_319\n      tag_166\n      jump\t// in\n    tag_319:\n        /* \"#utility.yul\":14333:14436   */\n    tag_318:\n        /* \"#utility.yul\":14463:14464   */\n      0x01\n        /* \"#utility.yul\":14456:14461   */\n      dup3\n        /* \"#utility.yul\":14452:14465   */\n      add\n        /* \"#utility.yul\":14445:14465   */\n      swap1\n      pop\n        /* \"#utility.yul\":14238:14471   */\n      swap2\n      swap1\n      pop\n      jump\t// out\n        /* \"#utility.yul\":14477:14657   */\n    tag_167:\n        /* \"#utility.yul\":14525:14602   */\n      0x4e487b7100000000000000000000000000000000000000000000000000000000\n        /* \"#utility.yul\":14522:14523   */\n      0x00\n        /* \"#utility.yul\":14515:14603   */\n      mstore\n        /* \"#utility.yul\":14622:14626   */\n      0x22\n        /* \"#utility.yul\":14619:14620   */\n      0x04\n        /* \"#utility.yul\":14612:14627   */\n      mstore\n        /* \"#utility.yul\":14646:14650   */\n      0x24\n        /* \"#utility.yul\":14643:14644   */\n      0x00\n        /* \"#utility.yul\":14636:14651   */\n      revert\n        /* \"#utility.yul\":14663:14983   */\n    tag_87:\n        /* \"#utility.yul\":14707:14713   */\n      0x00\n        /* \"#utility.yul\":14744:14745   */\n      0x02\n        /* \"#utility.yul\":14738:14742   */\n      dup3\n        /* \"#utility.yul\":14734:14746   */\n      div\n        /* \"#utility.yul\":14724:14746   */\n      swap1\n      pop\n        /* \"#utility.yul\":14791:14792   */\n      0x01\n        /* \"#utility.yul\":14785:14789   */\n      dup3\n        /* \"#utility.yul\":14781:14793   */\n      and\n        /* \"#utility.yul\":14812:14830   */\n      dup1\n        /* \"#utility.yul\":14802:14883   */\n      tag_322\n      jumpi\n        /* \"#utility.yul\":14868:14872   */\n      0x7f\n        /* \"#utility.yul\":14860:14866   */\n      dup3\n        /* \"#utility.yul\":14856:14873   */\n      and\n        /* \"#utility.yul\":14846:14873   */\n      swap2\n      pop\n        /* \"#utility.yul\":14802:14883   */\n    tag_322:\n        /* \"#utility.yul\":14930:14932   */\n      0x20\n        /* \"#utility.yul\":14922:14928   */\n      dup3\n        /* \"#utility.yul\":14919:14933   */\n      lt\n        /* \"#utility.yul\":14899:14917   */\n      dup2\n        /* \"#utility.yul\":14896:14934   */\n      sub\n        /* \"#utility.yul\":14893:14977   */\n      tag_323\n      jumpi\n        /* \"#utility.yul\":14949:14967   */\n      tag_324\n      tag_167\n      jump\t// in\n    tag_324:\n        /* \"#utility.yul\":14893:14977   */\n    tag_323:\n        /* \"#utility.yul\":14714:14983   */\n      pop\n        /* \"#utility.yul\":14663:14983   */\n      swap2\n      swap1\n      pop\n      jump\t// out\n        /* \"#utility.yul\":14989:15183   */\n    tag_93:\n        /* \"#utility.yul\":15029:15033   */\n      0x00\n        /* \"#utility.yul\":15049:15069   */\n      tag_326\n        /* \"#utility.yul\":15067:15068   */\n      dup3\n        /* \"#utility.yul\":15049:15069   */\n      tag_126\n      jump\t// in\n    tag_326:\n        /* \"#utility.yul\":15044:15069   */\n      swap2\n      pop\n        /* \"#utility.yul\":15083:15103   */\n      tag_327\n        /* \"#utility.yul\":15101:15102   */\n      dup4\n        /* \"#utility.yul\":15083:15103   */\n      tag_126\n      jump\t// in\n    tag_327:\n        /* \"#utility.yul\":15078:15103   */\n      swap3\n      pop\n        /* \"#utility.yul\":15127:15128   */\n      dup3\n        /* \"#utility.yul\":15124:15125   */\n      dup3\n        /* \"#utility.yul\":15120:15129   */\n      sub\n        /* \"#utility.yul\":15112:15129   */\n      swap1\n      pop\n        /* \"#utility.yul\":15151:15152   */\n      dup2\n        /* \"#utility.yul\":15145:15149   */\n      dup2\n        /* \"#utility.yul\":15142:15153   */\n      gt\n        /* \"#utility.yul\":15139:15176   */\n      iszero\n      tag_328\n      jumpi\n        /* \"#utility.yul\":15156:15174   */\n      tag_329\n      tag_166\n      jump\t// in\n    tag_329:\n        /* \"#utility.yul\":15139:15176   */\n    tag_328:\n        /* \"#utility.yul\":14989:15183   */\n      swap3\n      swap2\n      pop\n      pop\n      jump\t// out\n        /* \"#utility.yul\":15189:15369   */\n    tag_96:\n        /* \"#utility.yul\":15237:15314   */\n      0x4e487b7100000000000000000000000000000000000000000000000000000000\n        /* \"#utility.yul\":15234:15235   */\n      0x00\n        /* \"#utility.yul\":15227:15315   */\n      mstore\n        /* \"#utility.yul\":15334:15338   */\n      0x32\n        /* \"#utility.yul\":15331:15332   */\n      0x04\n        /* \"#utility.yul\":15324:15339   */\n      mstore\n        /* \"#utility.yul\":15358:15362   */\n      0x24\n        /* \"#utility.yul\":15355:15356   */\n      0x00\n        /* \"#utility.yul\":15348:15363   */\n      revert\n        /* \"#utility.yul\":15375:15546   */\n    tag_168:\n        /* \"#utility.yul\":15515:15538   */\n      0x596f7520617265206e6f7420746865206f776e65720000000000000000000000\n        /* \"#utility.yul\":15511:15512   */\n      0x00\n        /* \"#utility.yul\":15503:15509   */\n      dup3\n        /* \"#utility.yul\":15499:15513   */\n      add\n        /* \"#utility.yul\":15492:15539   */\n      mstore\n        /* \"#utility.yul\":15375:15546   */\n      pop\n      jump\t// out\n        /* \"#utility.yul\":15552:15918   */\n    tag_169:\n        /* \"#utility.yul\":15694:15697   */\n      0x00\n        /* \"#utility.yul\":15715:15782   */\n      tag_333\n        /* \"#utility.yul\":15779:15781   */\n      0x15\n        /* \"#utility.yul\":15774:15777   */\n      dup4\n        /* \"#utility.yul\":15715:15782   */\n      tag_143\n      jump\t// in\n    tag_333:\n        /* \"#utility.yul\":15708:15782   */\n      swap2\n      pop\n        /* \"#utility.yul\":15791:15884   */\n      tag_334\n        /* \"#utility.yul\":15880:15883   */\n      dup3\n        /* \"#utility.yul\":15791:15884   */\n      tag_168\n      jump\t// in\n    tag_334:\n        /* \"#utility.yul\":15909:15911   */\n      0x20\n        /* \"#utility.yul\":15904:15907   */\n      dup3\n        /* \"#utility.yul\":15900:15912   */\n      add\n        /* \"#utility.yul\":15893:15912   */\n      swap1\n      pop\n        /* \"#utility.yul\":15552:15918   */\n      swap2\n      swap1\n      pop\n      jump\t// out\n        /* \"#utility.yul\":15924:16343   */\n    tag_106:\n        /* \"#utility.yul\":16090:16094   */\n      0x00\n        /* \"#utility.yul\":16128:16130   */\n      0x20\n        /* \"#utility.yul\":16117:16126   */\n      dup3\n        /* \"#utility.yul\":16113:16131   */\n      add\n        /* \"#utility.yul\":16105:16131   */\n      swap1\n      pop\n        /* \"#utility.yul\":16177:16186   */\n      dup2\n        /* \"#utility.yul\":16171:16175   */\n      dup2\n        /* \"#utility.yul\":16167:16187   */\n      sub\n        /* \"#utility.yul\":16163:16164   */\n      0x00\n        /* \"#utility.yul\":16152:16161   */\n      dup4\n        /* \"#utility.yul\":16148:16165   */\n      add\n        /* \"#utility.yul\":16141:16188   */\n      mstore\n        /* \"#utility.yul\":16205:16336   */\n      tag_336\n        /* \"#utility.yul\":16331:16335   */\n      dup2\n        /* \"#utility.yul\":16205:16336   */\n      tag_169\n      jump\t// in\n    tag_336:\n        /* \"#utility.yul\":16197:16336   */\n      swap1\n      pop\n        /* \"#utility.yul\":15924:16343   */\n      swap2\n      swap1\n      pop\n      jump\t// out\n        /* \"#utility.yul\":16349:16490   */\n    tag_170:\n        /* \"#utility.yul\":16398:16402   */\n      0x00\n        /* \"#utility.yul\":16421:16424   */\n      dup2\n        /* \"#utility.yul\":16413:16424   */\n      swap1\n      pop\n        /* \"#utility.yul\":16444:16447   */\n      dup2\n        /* \"#utility.yul\":16441:16442   */\n      0x00\n        /* \"#utility.yul\":16434:16448   */\n      mstore\n        /* \"#utility.yul\":16478:16482   */\n      0x20\n        /* \"#utility.yul\":16475:16476   */\n      0x00\n        /* \"#utility.yul\":16465:16483   */\n      keccak256\n        /* \"#utility.yul\":16457:16483   */\n      swap1\n      pop\n        /* \"#utility.yul\":16349:16490   */\n      swap2\n      swap1\n      pop\n      jump\t// out\n        /* \"#utility.yul\":16496:16589   */\n    tag_171:\n        /* \"#utility.yul\":16533:16539   */\n      0x00\n        /* \"#utility.yul\":16580:16582   */\n      0x20\n        /* \"#utility.yul\":16575:16577   */\n      0x1f\n        /* \"#utility.yul\":16568:16573   */\n      dup4\n        /* \"#utility.yul\":16564:16578   */\n      add\n        /* \"#utility.yul\":16560:16583   */\n      div\n        /* \"#utility.yul\":16550:16583   */\n      swap1\n      pop\n        /* \"#utility.yul\":16496:16589   */\n      swap2\n      swap1\n      pop\n      jump\t// out\n        /* \"#utility.yul\":16595:16702   */\n    tag_172:\n        /* \"#utility.yul\":16639:16647   */\n      0x00\n        /* \"#utility.yul\":16689:16694   */\n      dup3\n        /* \"#utility.yul\":16683:16687   */\n      dup3\n        /* \"#utility.yul\":16679:16695   */\n      shl\n        /* \"#utility.yul\":16658:16695   */\n      swap1\n      pop\n        /* \"#utility.yul\":16595:16702   */\n      swap3\n      swap2\n      pop\n      pop\n      jump\t// out\n        /* \"#utility.yul\":16708:17101   */\n    tag_173:\n        /* \"#utility.yul\":16777:16783   */\n      0x00\n        /* \"#utility.yul\":16827:16828   */\n      0x08\n        /* \"#utility.yul\":16815:16825   */\n      dup4\n        /* \"#utility.yul\":16811:16829   */\n      mul\n        /* \"#utility.yul\":16850:16947   */\n      tag_341\n        /* \"#utility.yul\":16880:16946   */\n      0xffffffffffffffffffffffffffffffffffffffffffffffffffffffffffffffff\n        /* \"#utility.yul\":16869:16878   */\n      dup3\n        /* \"#utility.yul\":16850:16947   */\n      tag_172\n      jump\t// in\n    tag_341:\n        /* \"#utility.yul\":16968:17007   */\n      tag_342\n        /* \"#utility.yul\":16998:17006   */\n      dup7\n        /* \"#utility.yul\":16987:16996   */\n      dup4\n        /* \"#utility.yul\":16968:17007   */\n      tag_172\n      jump\t// in\n    tag_342:\n        /* \"#utility.yul\":16956:17007   */\n      swap6\n      pop\n        /* \"#utility.yul\":17040:17044   */\n      dup1\n        /* \"#utility.yul\":17036:17045   */\n      not\n        /* \"#utility.yul\":17029:17034   */\n      dup5\n        /* \"#utility.yul\":17025:17046   */\n      and\n        /* \"#utility.yul\":17016:17046   */\n      swap4\n      pop\n        /* \"#utility.yul\":17089:17093   */\n      dup1\n        /* \"#utility.yul\":17079:17087   */\n      dup7\n        /* \"#utility.yul\":17075:17094   */\n      and\n        /* \"#utility.yul\":17068:17073   */\n      dup5\n        /* \"#utility.yul\":17065:17095   */\n      or\n        /* \"#utility.yul\":17055:17095   */\n      swap3\n      pop\n        /* \"#utility.yul\":16784:17101   */\n      pop\n      pop\n        /* \"#utility.yul\":16708:17101   */\n      swap4\n      swap3\n      pop\n      pop\n      pop\n      jump\t// out\n        /* \"#utility.yul\":17107:17167   */\n    tag_174:\n        /* \"#utility.yul\":17135:17138   */\n      0x00\n        /* \"#utility.yul\":17156:17161   */\n      dup2\n        /* \"#utility.yul\":17149:17161   */\n      swap1\n      pop\n        /* \"#utility.yul\":17107:17167   */\n      swap2\n      swap1\n      pop\n      jump\t// out\n        /* \"#utility.yul\":17173:17315   */\n    tag_175:\n        /* \"#utility.yul\":17223:17232   */\n      0x00\n        /* \"#utility.yul\":17256:17309   */\n      tag_345\n        /* \"#utility.yul\":17274:17308   */\n      tag_346\n        /* \"#utility.yul\":17283:17307   */\n      tag_347\n        /* \"#utility.yul\":17301:17306   */\n      dup5\n        /* \"#utility.yul\":17283:17307   */\n      tag_126\n      jump\t// in\n    tag_347:\n        /* \"#utility.yul\":17274:17308   */\n      tag_174\n      jump\t// in\n    tag_346:\n        /* \"#utility.yul\":17256:17309   */\n      tag_126\n      jump\t// in\n    tag_345:\n        /* \"#utility.yul\":17243:17309   */\n      swap1\n      pop\n        /* \"#utility.yul\":17173:17315   */\n      swap2\n      swap1\n      pop\n      jump\t// out\n        /* \"#utility.yul\":17321:17396   */\n    tag_176:\n        /* \"#utility.yul\":17364:17367   */\n      0x00\n        /* \"#utility.yul\":17385:17390   */\n      dup2\n        /* \"#utility.yul\":17378:17390   */\n      swap1\n      pop\n        /* \"#utility.yul\":17321:17396   */\n      swap2\n      swap1\n      pop\n      jump\t// out\n        /* \"#utility.yul\":17402:17671   */\n    tag_177:\n        /* \"#utility.yul\":17512:17551   */\n      tag_350\n        /* \"#utility.yul\":17543:17550   */\n      dup4\n        /* \"#utility.yul\":17512:17551   */\n      tag_175\n      jump\t// in\n    tag_350:\n        /* \"#utility.yul\":17573:17664   */\n      tag_351\n        /* \"#utility.yul\":17622:17663   */\n      tag_352\n        /* \"#utility.yul\":17646:17662   */\n      dup3\n        /* \"#utility.yul\":17622:17663   */\n      tag_176\n      jump\t// in\n    tag_352:\n        /* \"#utility.yul\":17614:17620   */\n      dup5\n        /* \"#utility.yul\":17607:17611   */\n      dup5\n        /* \"#utility.yul\":17601:17612   */\n      sload\n        /* \"#utility.yul\":17573:17664   */\n      tag_173\n      jump\t// in\n    tag_351:\n        /* \"#utility.yul\":17567:17571   */\n      dup3\n        /* \"#utility.yul\":17560:17665   */\n      sstore\n        /* \"#utility.yul\":17478:17671   */\n      pop\n        /* \"#utility.yul\":17402:17671   */\n      pop\n      pop\n      pop\n      jump\t// out\n        /* \"#utility.yul\":17677:17750   */\n    tag_178:\n        /* \"#utility.yul\":17722:17725   */\n      0x00\n        /* \"#utility.yul\":17677:17750   */\n      swap1\n      jump\t// out\n        /* \"#utility.yul\":17756:17945   */\n    tag_179:\n        /* \"#utility.yul\":17833:17865   */\n      tag_355\n      tag_178\n      jump\t// in\n    tag_355:\n        /* \"#utility.yul\":17874:17939   */\n      tag_356\n        /* \"#utility.yul\":17932:17938   */\n      dup2\n        /* \"#utility.yul\":17924:17930   */\n      dup5\n        /* \"#utility.yul\":17918:17922   */\n      dup5\n        /* \"#utility.yul\":17874:17939   */\n      tag_177\n      jump\t// in\n    tag_356:\n        /* \"#utility.yul\":17809:17945   */\n      pop\n        /* \"#utility.yul\":17756:17945   */\n      pop\n      pop\n      jump\t// out\n        /* \"#utility.yul\":17951:18137   */\n    tag_180:\n        /* \"#utility.yul\":18011:18131   */\n    tag_358:\n        /* \"#utility.yul\":18028:18031   */\n      dup2\n        /* \"#utility.yul\":18021:18026   */\n      dup2\n        /* \"#utility.yul\":18018:18032   */\n      lt\n        /* \"#utility.yul\":18011:18131   */\n      iszero\n      tag_360\n      jumpi\n        /* \"#utility.yul\":18082:18121   */\n      tag_361\n        /* \"#utility.yul\":18119:18120   */\n      0x00\n        /* \"#utility.yul\":18112:18117   */\n      dup3\n        /* \"#utility.yul\":18082:18121   */\n      tag_179\n      jump\t// in\n    tag_361:\n        /* \"#utility.yul\":18055:18056   */\n      0x01\n        /* \"#utility.yul\":18048:18053   */\n      dup2\n        /* \"#utility.yul\":18044:18057   */\n      add\n        /* \"#utility.yul\":18035:18057   */\n      swap1\n      pop\n        /* \"#utility.yul\":18011:18131   */\n      jump(tag_358)\n    tag_360:\n        /* \"#utility.yul\":17951:18137   */\n      pop\n      pop\n      jump\t// out\n        /* \"#utility.yul\":18143:18686   */\n    tag_181:\n        /* \"#utility.yul\":18244:18246   */\n      0x1f\n        /* \"#utility.yul\":18239:18242   */\n      dup3\n        /* \"#utility.yul\":18236:18247   */\n      gt\n        /* \"#utility.yul\":18233:18679   */\n      iszero\n      tag_363\n      jumpi\n        /* \"#utility.yul\":18278:18316   */\n      tag_364\n        /* \"#utility.yul\":18310:18315   */\n      dup2\n        /* \"#utility.yul\":18278:18316   */\n      tag_170\n      jump\t// in\n    tag_364:\n        /* \"#utility.yul\":18362:18391   */\n      tag_365\n        /* \"#utility.yul\":18380:18390   */\n      dup5\n        /* \"#utility.yul\":18362:18391   */\n      tag_171\n      jump\t// in\n    tag_365:\n        /* \"#utility.yul\":18352:18360   */\n      dup2\n        /* \"#utility.yul\":18348:18392   */\n      add\n        /* \"#utility.yul\":18545:18547   */\n      0x20\n        /* \"#utility.yul\":18533:18543   */\n      dup6\n        /* \"#utility.yul\":18530:18548   */\n      lt\n        /* \"#utility.yul\":18527:18576   */\n      iszero\n      tag_366\n      jumpi\n        /* \"#utility.yul\":18566:18574   */\n      dup2\n        /* \"#utility.yul\":18551:18574   */\n      swap1\n      pop\n        /* \"#utility.yul\":18527:18576   */\n    tag_366:\n        /* \"#utility.yul\":18589:18669   */\n      tag_367\n        /* \"#utility.yul\":18645:18667   */\n      tag_368\n        /* \"#utility.yul\":18663:18666   */\n      dup6\n        /* \"#utility.yul\":18645:18667   */\n      tag_171\n      jump\t// in\n    tag_368:\n        /* \"#utility.yul\":18635:18643   */\n      dup4\n        /* \"#utility.yul\":18631:18668   */\n      add\n        /* \"#utility.yul\":18618:18629   */\n      dup3\n        /* \"#utility.yul\":18589:18669   */\n      tag_180\n      jump\t// in\n    tag_367:\n        /* \"#utility.yul\":18248:18679   */\n      pop\n      pop\n        /* \"#utility.yul\":18233:18679   */\n    tag_363:\n        /* \"#utility.yul\":18143:18686   */\n      pop\n      pop\n      pop\n      jump\t// out\n        /* \"#utility.yul\":18692:18809   */\n    tag_182:\n        /* \"#utility.yul\":18746:18754   */\n      0x00\n        /* \"#utility.yul\":18796:18801   */\n      dup3\n        /* \"#utility.yul\":18790:18794   */\n      dup3\n        /* \"#utility.yul\":18786:18802   */\n      shr\n        /* \"#utility.yul\":18765:18802   */\n      swap1\n      pop\n        /* \"#utility.yul\":18692:18809   */\n      swap3\n      swap2\n      pop\n      pop\n      jump\t// out\n        /* \"#utility.yul\":18815:18984   */\n    tag_183:\n        /* \"#utility.yul\":18859:18865   */\n      0x00\n        /* \"#utility.yul\":18892:18943   */\n      tag_371\n        /* \"#utility.yul\":18940:18941   */\n      0x00\n        /* \"#utility.yul\":18936:18942   */\n      not\n        /* \"#utility.yul\":18928:18933   */\n      dup5\n        /* \"#utility.yul\":18925:18926   */\n      0x08\n        /* \"#utility.yul\":18921:18934   */\n      mul\n        /* \"#utility.yul\":18892:18943   */\n      tag_182\n      jump\t// in\n    tag_371:\n        /* \"#utility.yul\":18888:18944   */\n      not\n        /* \"#utility.yul\":18973:18977   */\n      dup1\n        /* \"#utility.yul\":18967:18971   */\n      dup4\n        /* \"#utility.yul\":18963:18978   */\n      and\n        /* \"#utility.yul\":18953:18978   */\n      swap2\n      pop\n        /* \"#utility.yul\":18866:18984   */\n      pop\n        /* \"#utility.yul\":18815:18984   */\n      swap3\n      swap2\n      pop\n      pop\n      jump\t// out\n        /* \"#utility.yul\":18989:19284   */\n    tag_184:\n        /* \"#utility.yul\":19065:19069   */\n      0x00\n        /* \"#utility.yul\":19211:19240   */\n      tag_373\n        /* \"#utility.yul\":19236:19239   */\n      dup4\n        /* \"#utility.yul\":19230:19234   */\n      dup4\n        /* \"#utility.yul\":19211:19240   */\n      tag_183\n      jump\t// in\n    tag_373:\n        /* \"#utility.yul\":19203:19240   */\n      swap2\n      pop\n        /* \"#utility.yul\":19273:19276   */\n      dup3\n        /* \"#utility.yul\":19270:19271   */\n      0x02\n        /* \"#utility.yul\":19266:19277   */\n      mul\n        /* \"#utility.yul\":19260:19264   */\n      dup3\n        /* \"#utility.yul\":19257:19278   */\n      or\n        /* \"#utility.yul\":19249:19278   */\n      swap1\n      pop\n        /* \"#utility.yul\":18989:19284   */\n      swap3\n      swap2\n      pop\n      pop\n      jump\t// out\n        /* \"#utility.yul\":19289:20684   */\n    tag_110:\n        /* \"#utility.yul\":19406:19443   */\n      tag_375\n        /* \"#utility.yul\":19439:19442   */\n      dup3\n        /* \"#utility.yul\":19406:19443   */\n      tag_133\n      jump\t// in\n    tag_375:\n        /* \"#utility.yul\":19508:19526   */\n      0xffffffffffffffff\n        /* \"#utility.yul\":19500:19506   */\n      dup2\n        /* \"#utility.yul\":19497:19527   */\n      gt\n        /* \"#utility.yul\":19494:19550   */\n      iszero\n      tag_376\n      jumpi\n        /* \"#utility.yul\":19530:19548   */\n      tag_377\n      tag_78\n      jump\t// in\n    tag_377:\n        /* \"#utility.yul\":19494:19550   */\n    tag_376:\n        /* \"#utility.yul\":19574:19612   */\n      tag_378\n        /* \"#utility.yul\":19606:19610   */\n      dup3\n        /* \"#utility.yul\":19600:19611   */\n      sload\n        /* \"#utility.yul\":19574:19612   */\n      tag_87\n      jump\t// in\n    tag_378:\n        /* \"#utility.yul\":19659:19726   */\n      tag_379\n        /* \"#utility.yul\":19719:19725   */\n      dup3\n        /* \"#utility.yul\":19711:19717   */\n      dup3\n        /* \"#utility.yul\":19705:19709   */\n      dup6\n        /* \"#utility.yul\":19659:19726   */\n      tag_181\n      jump\t// in\n    tag_379:\n        /* \"#utility.yul\":19753:19754   */\n      0x00\n        /* \"#utility.yul\":19777:19781   */\n      0x20\n        /* \"#utility.yul\":19764:19781   */\n      swap1\n      pop\n        /* \"#utility.yul\":19809:19811   */\n      0x1f\n        /* \"#utility.yul\":19801:19807   */\n      dup4\n        /* \"#utility.yul\":19798:19812   */\n      gt\n        /* \"#utility.yul\":19826:19827   */\n      0x01\n        /* \"#utility.yul\":19821:20439   */\n      dup2\n      eq\n      tag_381\n      jumpi\n        /* \"#utility.yul\":20483:20484   */\n      0x00\n        /* \"#utility.yul\":20500:20506   */\n      dup5\n        /* \"#utility.yul\":20497:20574   */\n      iszero\n      tag_382\n      jumpi\n        /* \"#utility.yul\":20549:20558   */\n      dup3\n        /* \"#utility.yul\":20544:20547   */\n      dup8\n        /* \"#utility.yul\":20540:20559   */\n      add\n        /* \"#utility.yul\":20534:20560   */\n      mload\n        /* \"#utility.yul\":20525:20560   */\n      swap1\n      pop\n        /* \"#utility.yul\":20497:20574   */\n    tag_382:\n        /* \"#utility.yul\":20600:20667   */\n      tag_383\n        /* \"#utility.yul\":20660:20666   */\n      dup6\n        /* \"#utility.yul\":20653:20658   */\n      dup3\n        /* \"#utility.yul\":20600:20667   */\n      tag_184\n      jump\t// in\n    tag_383:\n        /* \"#utility.yul\":20594:20598   */\n      dup7\n        /* \"#utility.yul\":20587:20668   */\n      sstore\n        /* \"#utility.yul\":20456:20678   */\n      pop\n        /* \"#utility.yul\":19791:20678   */\n      jump(tag_380)\n        /* \"#utility.yul\":19821:20439   */\n    tag_381:\n        /* \"#utility.yul\":19873:19877   */\n      0x1f\n        /* \"#utility.yul\":19869:19878   */\n      not\n        /* \"#utility.yul\":19861:19867   */\n      dup5\n        /* \"#utility.yul\":19857:19879   */\n      and\n        /* \"#utility.yul\":19907:19944   */\n      tag_384\n        /* \"#utility.yul\":19939:19943   */\n      dup7\n        /* \"#utility.yul\":19907:19944   */\n      tag_170\n      jump\t// in\n    tag_384:\n        /* \"#utility.yul\":19966:19967   */\n      0x00\n        /* \"#utility.yul\":19980:20188   */\n    tag_385:\n        /* \"#utility.yul\":19994:20001   */\n      dup3\n        /* \"#utility.yul\":19991:19992   */\n      dup2\n        /* \"#utility.yul\":19988:20002   */\n      lt\n        /* \"#utility.yul\":19980:20188   */\n      iszero\n      tag_387\n      jumpi\n        /* \"#utility.yul\":20073:20082   */\n      dup5\n        /* \"#utility.yul\":20068:20071   */\n      dup10\n        /* \"#utility.yul\":20064:20083   */\n      add\n        /* \"#utility.yul\":20058:20084   */\n      mload\n        /* \"#utility.yul\":20050:20056   */\n      dup3\n        /* \"#utility.yul\":20043:20085   */\n      sstore\n        /* \"#utility.yul\":20124:20125   */\n      0x01\n        /* \"#utility.yul\":20116:20122   */\n      dup3\n        /* \"#utility.yul\":20112:20126   */\n      add\n        /* \"#utility.yul\":20102:20126   */\n      swap2\n      pop\n        /* \"#utility.yul\":20171:20173   */\n      0x20\n        /* \"#utility.yul\":20160:20169   */\n      dup6\n        /* \"#utility.yul\":20156:20174   */\n      add\n        /* \"#utility.yul\":20143:20174   */\n      swap5\n      pop\n        /* \"#utility.yul\":20017:20021   */\n      0x20\n        /* \"#utility.yul\":20014:20015   */\n      dup2\n        /* \"#utility.yul\":20010:20022   */\n      add\n        /* \"#utility.yul\":20005:20022   */\n      swap1\n      pop\n        /* \"#utility.yul\":19980:20188   */\n      jump(tag_385)\n    tag_387:\n        /* \"#utility.yul\":20216:20222   */\n      dup7\n        /* \"#utility.yul\":20207:20214   */\n      dup4\n        /* \"#utility.yul\":20204:20223   */\n      lt\n        /* \"#utility.yul\":20201:20380   */\n      iszero\n      tag_388\n      jumpi\n        /* \"#utility.yul\":20274:20283   */\n      dup5\n        /* \"#utility.yul\":20269:20272   */\n      dup10\n        /* \"#utility.yul\":20265:20284   */\n      add\n        /* \"#utility.yul\":20259:20285   */\n      mload\n        /* \"#utility.yul\":20317:20365   */\n      tag_389\n        /* \"#utility.yul\":20359:20363   */\n      0x1f\n        /* \"#utility.yul\":20351:20357   */\n      dup10\n        /* \"#utility.yul\":20347:20364   */\n      and\n        /* \"#utility.yul\":20336:20345   */\n      dup3\n        /* \"#utility.yul\":20317:20365   */\n      tag_183\n      jump\t// in\n    tag_389:\n        /* \"#utility.yul\":20309:20315   */\n      dup4\n        /* \"#utility.yul\":20302:20366   */\n      sstore\n        /* \"#utility.yul\":20224:20380   */\n      pop\n        /* \"#utility.yul\":20201:20380   */\n    tag_388:\n        /* \"#utility.yul\":20426:20427   */\n      0x01\n        /* \"#utility.yul\":20422:20423   */\n      0x02\n        /* \"#utility.yul\":20414:20420   */\n      dup9\n        /* \"#utility.yul\":20410:20424   */\n      mul\n        /* \"#utility.yul\":20406:20428   */\n      add\n        /* \"#utility.yul\":20400:20404   */\n      dup9\n        /* \"#utility.yul\":20393:20429   */\n      sstore\n        /* \"#utility.yul\":19828:20439   */\n      pop\n      pop\n      pop\n        /* \"#utility.yul\":19791:20678   */\n    tag_380:\n      pop\n        /* \"#utility.yul\":19381:20684   */\n      pop\n      pop\n      pop\n        /* \"#utility.yul\":19289:20684   */\n      pop\n      pop\n      jump\t// out\n        /* \"#utility.yul\":20690:21113   */\n    tag_112:\n        /* \"#utility.yul\":20831:20835   */\n      0x00\n        /* \"#utility.yul\":20869:20871   */\n      0x40\n        /* \"#utility.yul\":20858:20867   */\n      dup3\n        /* \"#utility.yul\":20854:20872   */\n      add\n        /* \"#utility.yul\":20846:20872   */\n      swap1\n      pop\n        /* \"#utility.yul\":20882:20953   */\n      tag_391\n        /* \"#utility.yul\":20950:20951   */\n      0x00\n        /* \"#utility.yul\":20939:20948   */\n      dup4\n        /* \"#utility.yul\":20935:20952   */\n      add\n        /* \"#utility.yul\":20926:20932   */\n      dup6\n        /* \"#utility.yul\":20882:20953   */\n      tag_142\n      jump\t// in\n    tag_391:\n        /* \"#utility.yul\":21000:21009   */\n      dup2\n        /* \"#utility.yul\":20994:20998   */\n      dup2\n        /* \"#utility.yul\":20990:21010   */\n      sub\n        /* \"#utility.yul\":20985:20987   */\n      0x20\n        /* \"#utility.yul\":20974:20983   */\n      dup4\n        /* \"#utility.yul\":20970:20988   */\n      add\n        /* \"#utility.yul\":20963:21011   */\n      mstore\n        /* \"#utility.yul\":21028:21106   */\n      tag_392\n        /* \"#utility.yul\":21101:21105   */\n      dup2\n        /* \"#utility.yul\":21092:21098   */\n      dup5\n        /* \"#utility.yul\":21028:21106   */\n      tag_144\n      jump\t// in\n    tag_392:\n        /* \"#utility.yul\":21020:21106   */\n      swap1\n      pop\n        /* \"#utility.yul\":20690:21113   */\n      swap4\n      swap3\n      pop\n      pop\n      pop\n      jump\t// out\n        /* \"#utility.yul\":21119:21310   */\n    tag_118:\n        /* \"#utility.yul\":21159:21162   */\n      0x00\n        /* \"#utility.yul\":21178:21198   */\n      tag_394\n        /* \"#utility.yul\":21196:21197   */\n      dup3\n        /* \"#utility.yul\":21178:21198   */\n      tag_126\n      jump\t// in\n    tag_394:\n        /* \"#utility.yul\":21173:21198   */\n      swap2\n      pop\n        /* \"#utility.yul\":21212:21232   */\n      tag_395\n        /* \"#utility.yul\":21230:21231   */\n      dup4\n        /* \"#utility.yul\":21212:21232   */\n      tag_126\n      jump\t// in\n    tag_395:\n        /* \"#utility.yul\":21207:21232   */\n      swap3\n      pop\n        /* \"#utility.yul\":21255:21256   */\n      dup3\n        /* \"#utility.yul\":21252:21253   */\n      dup3\n        /* \"#utility.yul\":21248:21257   */\n      add\n        /* \"#utility.yul\":21241:21257   */\n      swap1\n      pop\n        /* \"#utility.yul\":21276:21279   */\n      dup1\n        /* \"#utility.yul\":21273:21274   */\n      dup3\n        /* \"#utility.yul\":21270:21280   */\n      gt\n        /* \"#utility.yul\":21267:21303   */\n      iszero\n      tag_396\n      jumpi\n        /* \"#utility.yul\":21283:21301   */\n      tag_397\n      tag_166\n      jump\t// in\n    tag_397:\n        /* \"#utility.yul\":21267:21303   */\n    tag_396:\n        /* \"#utility.yul\":21119:21310   */\n      swap3\n      swap2\n      pop\n      pop\n      jump\t// out\n\n    auxdata: 0xa26469706673582212200b78a14346f7395c2c109b65a034a3163b190b92e37ccfc5eae01fe1a3caf50564736f6c634300081a0033\n}\n",
				"bytecode": {
					"linkReferences": {},
					"object": "6080604052348015600e575f80fd5b50335f806101000a81548173ffffffffffffffffffffffffffffffffffffffff021916908373ffffffffffffffffffffffffffffffffffffffff1602179055505f6003819055505f6004819055506113eb806100695f395ff3fe608060405234801561000f575f80fd5b50600436106100a7575f3560e01c80633477ee2e1161006f5780633477ee2e1461013f578063462e91ec146101715780638da5cb5b1461018d578063a3ec138d146101ab578063ea0217cf146101db578063ff981099146101f7576100a7565b80630121b93f146100ab57806306a49fce146100c75780630d15fd77146100e55780631ea736e0146101035780632d35a8a214610121575b5f80fd5b6100c560048036038101906100c09190610946565b610227565b005b6100cf61042b565b6040516100dc9190610af8565b60405180910390f35b6100ed610599565b6040516100fa9190610b27565b60405180910390f35b61010b61059f565b6040516101189190610b27565b60405180910390f35b6101296105a5565b6040516101369190610b27565b60405180910390f35b61015960048036038101906101549190610946565b6105ab565b60405161016893929190610b88565b60405180910390f35b61018b60048036038101906101869190610cf0565b610657565b005b610195610794565b6040516101a29190610d76565b60405180910390f35b6101c560048036038101906101c09190610db9565b6107b7565b6040516101d29190610dfe565b60405180910390f35b6101f560048036038101906101f09190610946565b6107d4565b005b610211600480360381019061020c9190610946565b610876565b60405161021e9190610b27565b60405180910390f35b600554421061026b576040517f08c379a000000000000000000000000000000000000000000000000000000000815260040161026290610e61565b60405180910390fd5b60025f3373ffffffffffffffffffffffffffffffffffffffff1673ffffffffffffffffffffffffffffffffffffffff1681526020019081526020015f205f9054906101000a900460ff16156102f5576040517f08c379a00000000000000000000000000000000000000000000000000000000081526004016102ec90610ec9565b60405180910390fd5b5f8111801561030657506003548111155b610345576040517f08c379a000000000000000000000000000000000000000000000000000000000815260040161033c90610f31565b60405180910390fd5b60015f8281526020019081526020015f206002015f81548092919061036990610f7c565b919050555060045f81548092919061038090610f7c565b9190505550600160025f3373ffffffffffffffffffffffffffffffffffffffff1673ffffffffffffffffffffffffffffffffffffffff1681526020019081526020015f205f6101000a81548160ff0219169083151502179055503373ffffffffffffffffffffffffffffffffffffffff167fa36cc2bebb74db33e9f88110a07ef56e1b31b24b4c4f51b54b1664266e29f45b826040516104209190610b27565b60405180910390a250565b60605f60035467ffffffffffffffff81111561044a57610449610bcc565b5b60405190808252806020026020018201604052801561048357816020015b6104706108e3565b8152602001906001900390816104685790505b5090505f600190505b60035481116105915760015f8281526020019081526020015f206040518060600160405290815f82015481526020016001820180546104ca90610ff0565b80601f01602080910402602001604051908101604052809291908181526020018280546104f690610ff0565b80156105415780601f1061051857610100808354040283529160200191610541565b820191905f5260205f20905b81548152906001019060200180831161052457829003601f168201915b50505050508152602001600282015481525050826001836105629190611020565b8151811061057357610572611053565b5b6020026020010181905250808061058990610f7c565b91505061048c565b508091505090565b60045481565b60055481565b60035481565b6001602052805f5260405f205f91509050805f0154908060010180546105d090610ff0565b80601f01602080910402602001604051908101604052809291908181526020018280546105fc90610ff0565b80156106475780601f1061061e57610100808354040283529160200191610647565b820191905f5260205f20905b81548152906001019060200180831161062a57829003601f168201915b5050505050908060020154905083565b5f8054906101000a900473ffffffffffffffffffffffffffffffffffffffff1673ffffffffffffffffffffffffffffffffffffffff163373ffffffffffffffffffffffffffffffffffffffff16146106e4576040517f08c379a00000000000000000000000000000000000000000000000000000000081526004016106db906110ca565b60405180910390fd5b60035f8154809291906106f690610f7c565b9190505550604051806060016040528060035481526020018281526020015f81525060015f60035481526020019081526020015f205f820151815f015560208201518160010190816107489190611285565b50604082015181600201559050507fe83b2a43e7e82d975c8a0a6d2f045153c869e111136a34d1889ab7b598e396a360035482604051610789929190611354565b60405180910390a150565b5f8054906101000a900473ffffffffffffffffffffffffffffffffffffffff1681565b6002602052805f5260405f205f915054906101000a900460ff1681565b5f8054906101000a900473ffffffffffffffffffffffffffffffffffffffff1673ffffffffffffffffffffffffffffffffffffffff163373ffffffffffffffffffffffffffffffffffffffff1614610861576040517f08c379a0000000000000000000000000000000000000000000000000000000008152600401610858906110ca565b60405180910390fd5b804261086d9190611382565b60058190555050565b5f808211801561088857506003548211155b6108c7576040517f08c379a00000000000000000000000000000000000000000000000000000000081526004016108be90610f31565b60405180910390fd5b60015f8381526020019081526020015f20600201549050919050565b60405180606001604052805f8152602001606081526020015f81525090565b5f604051905090565b5f80fd5b5f80fd5b5f819050919050565b61092581610913565b811461092f575f80fd5b50565b5f813590506109408161091c565b92915050565b5f6020828403121561095b5761095a61090b565b5b5f61096884828501610932565b91505092915050565b5f81519050919050565b5f82825260208201905092915050565b5f819050602082019050919050565b6109a381610913565b82525050565b5f81519050919050565b5f82825260208201905092915050565b8281835e5f83830152505050565b5f601f19601f8301169050919050565b5f6109eb826109a9565b6109f581856109b3565b9350610a058185602086016109c3565b610a0e816109d1565b840191505092915050565b5f606083015f830151610a2e5f86018261099a565b5060208301518482036020860152610a4682826109e1565b9150506040830151610a5b604086018261099a565b508091505092915050565b5f610a718383610a19565b905092915050565b5f602082019050919050565b5f610a8f82610971565b610a99818561097b565b935083602082028501610aab8561098b565b805f5b85811015610ae65784840389528151610ac78582610a66565b9450610ad283610a79565b925060208a01995050600181019050610aae565b50829750879550505050505092915050565b5f6020820190508181035f830152610b108184610a85565b905092915050565b610b2181610913565b82525050565b5f602082019050610b3a5f830184610b18565b92915050565b5f82825260208201905092915050565b5f610b5a826109a9565b610b648185610b40565b9350610b748185602086016109c3565b610b7d816109d1565b840191505092915050565b5f606082019050610b9b5f830186610b18565b8181036020830152610bad8185610b50565b9050610bbc6040830184610b18565b949350505050565b5f80fd5b5f80fd5b7f4e487b71000000000000000000000000000000000000000000000000000000005f52604160045260245ffd5b610c02826109d1565b810181811067ffffffffffffffff82111715610c2157610c20610bcc565b5b80604052505050565b5f610c33610902565b9050610c3f8282610bf9565b919050565b5f67ffffffffffffffff821115610c5e57610c5d610bcc565b5b610c67826109d1565b9050602081019050919050565b828183375f83830152505050565b5f610c94610c8f84610c44565b610c2a565b905082815260208101848484011115610cb057610caf610bc8565b5b610cbb848285610c74565b509392505050565b5f82601f830112610cd757610cd6610bc4565b5b8135610ce7848260208601610c82565b91505092915050565b5f60208284031215610d0557610d0461090b565b5b5f82013567ffffffffffffffff811115610d2257610d2161090f565b5b610d2e84828501610cc3565b91505092915050565b5f73ffffffffffffffffffffffffffffffffffffffff82169050919050565b5f610d6082610d37565b9050919050565b610d7081610d56565b82525050565b5f602082019050610d895f830184610d67565b92915050565b610d9881610d56565b8114610da2575f80fd5b50565b5f81359050610db381610d8f565b92915050565b5f60208284031215610dce57610dcd61090b565b5b5f610ddb84828501610da5565b91505092915050565b5f8115159050919050565b610df881610de4565b82525050565b5f602082019050610e115f830184610def565b92915050565b7f566f74696e6720706572696f642068617320656e6465642e00000000000000005f82015250565b5f610e4b601883610b40565b9150610e5682610e17565b602082019050919050565b5f6020820190508181035f830152610e7881610e3f565b9050919050565b7f596f75206861766520616c726561647920766f7465642e0000000000000000005f82015250565b5f610eb3601783610b40565b9150610ebe82610e7f565b602082019050919050565b5f6020820190508181035f830152610ee081610ea7565b9050919050565b7f496e76616c69642063616e6469646174652049442e00000000000000000000005f82015250565b5f610f1b601583610b40565b9150610f2682610ee7565b602082019050919050565b5f6020820190508181035f830152610f4881610f0f565b9050919050565b7f4e487b71000000000000000000000000000000000000000000000000000000005f52601160045260245ffd5b5f610f8682610913565b91507fffffffffffffffffffffffffffffffffffffffffffffffffffffffffffffffff8203610fb857610fb7610f4f565b5b600182019050919050565b7f4e487b71000000000000000000000000000000000000000000000000000000005f52602260045260245ffd5b5f600282049050600182168061100757607f821691505b60208210810361101a57611019610fc3565b5b50919050565b5f61102a82610913565b915061103583610913565b925082820390508181111561104d5761104c610f4f565b5b92915050565b7f4e487b71000000000000000000000000000000000000000000000000000000005f52603260045260245ffd5b7f596f7520617265206e6f7420746865206f776e657200000000000000000000005f82015250565b5f6110b4601583610b40565b91506110bf82611080565b602082019050919050565b5f6020820190508181035f8301526110e1816110a8565b9050919050565b5f819050815f5260205f209050919050565b5f6020601f8301049050919050565b5f82821b905092915050565b5f600883026111447fffffffffffffffffffffffffffffffffffffffffffffffffffffffffffffffff82611109565b61114e8683611109565b95508019841693508086168417925050509392505050565b5f819050919050565b5f61118961118461117f84610913565b611166565b610913565b9050919050565b5f819050919050565b6111a28361116f565b6111b66111ae82611190565b848454611115565b825550505050565b5f90565b6111ca6111be565b6111d5818484611199565b505050565b5b818110156111f8576111ed5f826111c2565b6001810190506111db565b5050565b601f82111561123d5761120e816110e8565b611217846110fa565b81016020851015611226578190505b61123a611232856110fa565b8301826111da565b50505b505050565b5f82821c905092915050565b5f61125d5f1984600802611242565b1980831691505092915050565b5f611275838361124e565b9150826002028217905092915050565b61128e826109a9565b67ffffffffffffffff8111156112a7576112a6610bcc565b5b6112b18254610ff0565b6112bc8282856111fc565b5f60209050601f8311600181146112ed575f84156112db578287015190505b6112e5858261126a565b86555061134c565b601f1984166112fb866110e8565b5f5b82811015611322578489015182556001820191506020850194506020810190506112fd565b8683101561133f578489015161133b601f89168261124e565b8355505b6001600288020188555050505b505050505050565b5f6040820190506113675f830185610b18565b81810360208301526113798184610b50565b90509392505050565b5f61138c82610913565b915061139783610913565b92508282019050808211156113af576113ae610f4f565b5b9291505056fea26469706673582212200b78a14346f7395c2c109b65a034a3163b190b92e37ccfc5eae01fe1a3caf50564736f6c634300081a0033",
					"opcodes": "PUSH1 0x80 PUSH1 0x40 MSTORE CALLVALUE DUP1 ISZERO PUSH1 0xE JUMPI PUSH0 DUP1 REVERT JUMPDEST POP CALLER PUSH0 DUP1 PUSH2 0x100 EXP DUP2 SLOAD DUP2 PUSH20 0xFFFFFFFFFFFFFFFFFFFFFFFFFFFFFFFFFFFFFFFF MUL NOT AND SWAP1 DUP4 PUSH20 0xFFFFFFFFFFFFFFFFFFFFFFFFFFFFFFFFFFFFFFFF AND MUL OR SWAP1 SSTORE POP PUSH0 PUSH1 0x3 DUP2 SWAP1 SSTORE POP PUSH0 PUSH1 0x4 DUP2 SWAP1 SSTORE POP PUSH2 0x13EB DUP1 PUSH2 0x69 PUSH0 CODECOPY PUSH0 RETURN INVALID PUSH1 0x80 PUSH1 0x40 MSTORE CALLVALUE DUP1 ISZERO PUSH2 0xF JUMPI PUSH0 DUP1 REVERT JUMPDEST POP PUSH1 0x4 CALLDATASIZE LT PUSH2 0xA7 JUMPI PUSH0 CALLDATALOAD PUSH1 0xE0 SHR DUP1 PUSH4 0x3477EE2E GT PUSH2 0x6F JUMPI DUP1 PUSH4 0x3477EE2E EQ PUSH2 0x13F JUMPI DUP1 PUSH4 0x462E91EC EQ PUSH2 0x171 JUMPI DUP1 PUSH4 0x8DA5CB5B EQ PUSH2 0x18D JUMPI DUP1 PUSH4 0xA3EC138D EQ PUSH2 0x1AB JUMPI DUP1 PUSH4 0xEA0217CF EQ PUSH2 0x1DB JUMPI DUP1 PUSH4 0xFF981099 EQ PUSH2 0x1F7 JUMPI PUSH2 0xA7 JUMP JUMPDEST DUP1 PUSH4 0x121B93F EQ PUSH2 0xAB JUMPI DUP1 PUSH4 0x6A49FCE EQ PUSH2 0xC7 JUMPI DUP1 PUSH4 0xD15FD77 EQ PUSH2 0xE5 JUMPI DUP1 PUSH4 0x1EA736E0 EQ PUSH2 0x103 JUMPI DUP1 PUSH4 0x2D35A8A2 EQ PUSH2 0x121 JUMPI JUMPDEST PUSH0 DUP1 REVERT JUMPDEST PUSH2 0xC5 PUSH1 0x4 DUP1 CALLDATASIZE SUB DUP2 ADD SWAP1 PUSH2 0xC0 SWAP2 SWAP1 PUSH2 0x946 JUMP JUMPDEST PUSH2 0x227 JUMP JUMPDEST STOP JUMPDEST PUSH2 0xCF PUSH2 0x42B JUMP JUMPDEST PUSH1 0x40 MLOAD PUSH2 0xDC SWAP2 SWAP1 PUSH2 0xAF8 JUMP JUMPDEST PUSH1 0x40 MLOAD DUP1 SWAP2 SUB SWAP1 RETURN JUMPDEST PUSH2 0xED PUSH2 0x599 JUMP JUMPDEST PUSH1 0x40 MLOAD PUSH2 0xFA SWAP2 SWAP1 PUSH2 0xB27 JUMP JUMPDEST PUSH1 0x40 MLOAD DUP1 SWAP2 SUB SWAP1 RETURN JUMPDEST PUSH2 0x10B PUSH2 0x59F JUMP JUMPDEST PUSH1 0x40 MLOAD PUSH2 0x118 SWAP2 SWAP1 PUSH2 0xB27 JUMP JUMPDEST PUSH1 0x40 MLOAD DUP1 SWAP2 SUB SWAP1 RETURN JUMPDEST PUSH2 0x129 PUSH2 0x5A5 JUMP JUMPDEST PUSH1 0x40 MLOAD PUSH2 0x136 SWAP2 SWAP1 PUSH2 0xB27 JUMP JUMPDEST PUSH1 0x40 MLOAD DUP1 SWAP2 SUB SWAP1 RETURN JUMPDEST PUSH2 0x159 PUSH1 0x4 DUP1 CALLDATASIZE SUB DUP2 ADD SWAP1 PUSH2 0x154 SWAP2 SWAP1 PUSH2 0x946 JUMP JUMPDEST PUSH2 0x5AB JUMP JUMPDEST PUSH1 0x40 MLOAD PUSH2 0x168 SWAP4 SWAP3 SWAP2 SWAP1 PUSH2 0xB88 JUMP JUMPDEST PUSH1 0x40 MLOAD DUP1 SWAP2 SUB SWAP1 RETURN JUMPDEST PUSH2 0x18B PUSH1 0x4 DUP1 CALLDATASIZE SUB DUP2 ADD SWAP1 PUSH2 0x186 SWAP2 SWAP1 PUSH2 0xCF0 JUMP JUMPDEST PUSH2 0x657 JUMP JUMPDEST STOP JUMPDEST PUSH2 0x195 PUSH2 0x794 JUMP JUMPDEST PUSH1 0x40 MLOAD PUSH2 0x1A2 SWAP2 SWAP1 PUSH2 0xD76 JUMP JUMPDEST PUSH1 0x40 MLOAD DUP1 SWAP2 SUB SWAP1 RETURN JUMPDEST PUSH2 0x1C5 PUSH1 0x4 DUP1 CALLDATASIZE SUB DUP2 ADD SWAP1 PUSH2 0x1C0 SWAP2 SWAP1 PUSH2 0xDB9 JUMP JUMPDEST PUSH2 0x7B7 JUMP JUMPDEST PUSH1 0x40 MLOAD PUSH2 0x1D2 SWAP2 SWAP1 PUSH2 0xDFE JUMP JUMPDEST PUSH1 0x40 MLOAD DUP1 SWAP2 SUB SWAP1 RETURN JUMPDEST PUSH2 0x1F5 PUSH1 0x4 DUP1 CALLDATASIZE SUB DUP2 ADD SWAP1 PUSH2 0x1F0 SWAP2 SWAP1 PUSH2 0x946 JUMP JUMPDEST PUSH2 0x7D4 JUMP JUMPDEST STOP JUMPDEST PUSH2 0x211 PUSH1 0x4 DUP1 CALLDATASIZE SUB DUP2 ADD SWAP1 PUSH2 0x20C SWAP2 SWAP1 PUSH2 0x946 JUMP JUMPDEST PUSH2 0x876 JUMP JUMPDEST PUSH1 0x40 MLOAD PUSH2 0x21E SWAP2 SWAP1 PUSH2 0xB27 JUMP JUMPDEST PUSH1 0x40 MLOAD DUP1 SWAP2 SUB SWAP1 RETURN JUMPDEST PUSH1 0x5 SLOAD TIMESTAMP LT PUSH2 0x26B JUMPI PUSH1 0x40 MLOAD PUSH32 0x8C379A000000000000000000000000000000000000000000000000000000000 DUP2 MSTORE PUSH1 0x4 ADD PUSH2 0x262 SWAP1 PUSH2 0xE61 JUMP JUMPDEST PUSH1 0x40 MLOAD DUP1 SWAP2 SUB SWAP1 REVERT JUMPDEST PUSH1 0x2 PUSH0 CALLER PUSH20 0xFFFFFFFFFFFFFFFFFFFFFFFFFFFFFFFFFFFFFFFF AND PUSH20 0xFFFFFFFFFFFFFFFFFFFFFFFFFFFFFFFFFFFFFFFF AND DUP2 MSTORE PUSH1 0x20 ADD SWAP1 DUP2 MSTORE PUSH1 0x20 ADD PUSH0 KECCAK256 PUSH0 SWAP1 SLOAD SWAP1 PUSH2 0x100 EXP SWAP1 DIV PUSH1 0xFF AND ISZERO PUSH2 0x2F5 JUMPI PUSH1 0x40 MLOAD PUSH32 0x8C379A000000000000000000000000000000000000000000000000000000000 DUP2 MSTORE PUSH1 0x4 ADD PUSH2 0x2EC SWAP1 PUSH2 0xEC9 JUMP JUMPDEST PUSH1 0x40 MLOAD DUP1 SWAP2 SUB SWAP1 REVERT JUMPDEST PUSH0 DUP2 GT DUP1 ISZERO PUSH2 0x306 JUMPI POP PUSH1 0x3 SLOAD DUP2 GT ISZERO JUMPDEST PUSH2 0x345 JUMPI PUSH1 0x40 MLOAD PUSH32 0x8C379A000000000000000000000000000000000000000000000000000000000 DUP2 MSTORE PUSH1 0x4 ADD PUSH2 0x33C SWAP1 PUSH2 0xF31 JUMP JUMPDEST PUSH1 0x40 MLOAD DUP1 SWAP2 SUB SWAP1 REVERT JUMPDEST PUSH1 0x1 PUSH0 DUP3 DUP2 MSTORE PUSH1 0x20 ADD SWAP1 DUP2 MSTORE PUSH1 0x20 ADD PUSH0 KECCAK256 PUSH1 0x2 ADD PUSH0 DUP2 SLOAD DUP1 SWAP3 SWAP2 SWAP1 PUSH2 0x369 SWAP1 PUSH2 0xF7C JUMP JUMPDEST SWAP2 SWAP1 POP SSTORE POP PUSH1 0x4 PUSH0 DUP2 SLOAD DUP1 SWAP3 SWAP2 SWAP1 PUSH2 0x380 SWAP1 PUSH2 0xF7C JUMP JUMPDEST SWAP2 SWAP1 POP SSTORE POP PUSH1 0x1 PUSH1 0x2 PUSH0 CALLER PUSH20 0xFFFFFFFFFFFFFFFFFFFFFFFFFFFFFFFFFFFFFFFF AND PUSH20 0xFFFFFFFFFFFFFFFFFFFFFFFFFFFFFFFFFFFFFFFF AND DUP2 MSTORE PUSH1 0x20 ADD SWAP1 DUP2 MSTORE PUSH1 0x20 ADD PUSH0 KECCAK256 PUSH0 PUSH2 0x100 EXP DUP2 SLOAD DUP2 PUSH1 0xFF MUL NOT AND SWAP1 DUP4 ISZERO ISZERO MUL OR SWAP1 SSTORE POP CALLER PUSH20 0xFFFFFFFFFFFFFFFFFFFFFFFFFFFFFFFFFFFFFFFF AND PUSH32 0xA36CC2BEBB74DB33E9F88110A07EF56E1B31B24B4C4F51B54B1664266E29F45B DUP3 PUSH1 0x40 MLOAD PUSH2 0x420 SWAP2 SWAP1 PUSH2 0xB27 JUMP JUMPDEST PUSH1 0x40 MLOAD DUP1 SWAP2 SUB SWAP1 LOG2 POP JUMP JUMPDEST PUSH1 0x60 PUSH0 PUSH1 0x3 SLOAD PUSH8 0xFFFFFFFFFFFFFFFF DUP2 GT ISZERO PUSH2 0x44A JUMPI PUSH2 0x449 PUSH2 0xBCC JUMP JUMPDEST JUMPDEST PUSH1 0x40 MLOAD SWAP1 DUP1 DUP3 MSTORE DUP1 PUSH1 0x20 MUL PUSH1 0x20 ADD DUP3 ADD PUSH1 0x40 MSTORE DUP1 ISZERO PUSH2 0x483 JUMPI DUP2 PUSH1 0x20 ADD JUMPDEST PUSH2 0x470 PUSH2 0x8E3 JUMP JUMPDEST DUP2 MSTORE PUSH1 0x20 ADD SWAP1 PUSH1 0x1 SWAP1 SUB SWAP1 DUP2 PUSH2 0x468 JUMPI SWAP1 POP JUMPDEST POP SWAP1 POP PUSH0 PUSH1 0x1 SWAP1 POP JUMPDEST PUSH1 0x3 SLOAD DUP2 GT PUSH2 0x591 JUMPI PUSH1 0x1 PUSH0 DUP3 DUP2 MSTORE PUSH1 0x20 ADD SWAP1 DUP2 MSTORE PUSH1 0x20 ADD PUSH0 KECCAK256 PUSH1 0x40 MLOAD DUP1 PUSH1 0x60 ADD PUSH1 0x40 MSTORE SWAP1 DUP2 PUSH0 DUP3 ADD SLOAD DUP2 MSTORE PUSH1 0x20 ADD PUSH1 0x1 DUP3 ADD DUP1 SLOAD PUSH2 0x4CA SWAP1 PUSH2 0xFF0 JUMP JUMPDEST DUP1 PUSH1 0x1F ADD PUSH1 0x20 DUP1 SWAP2 DIV MUL PUSH1 0x20 ADD PUSH1 0x40 MLOAD SWAP1 DUP2 ADD PUSH1 0x40 MSTORE DUP1 SWAP3 SWAP2 SWAP1 DUP2 DUP2 MSTORE PUSH1 0x20 ADD DUP3 DUP1 SLOAD PUSH2 0x4F6 SWAP1 PUSH2 0xFF0 JUMP JUMPDEST DUP1 ISZERO PUSH2 0x541 JUMPI DUP1 PUSH1 0x1F LT PUSH2 0x518 JUMPI PUSH2 0x100 DUP1 DUP4 SLOAD DIV MUL DUP4 MSTORE SWAP2 PUSH1 0x20 ADD SWAP2 PUSH2 0x541 JUMP JUMPDEST DUP3 ADD SWAP2 SWAP1 PUSH0 MSTORE PUSH1 0x20 PUSH0 KECCAK256 SWAP1 JUMPDEST DUP2 SLOAD DUP2 MSTORE SWAP1 PUSH1 0x1 ADD SWAP1 PUSH1 0x20 ADD DUP1 DUP4 GT PUSH2 0x524 JUMPI DUP3 SWAP1 SUB PUSH1 0x1F AND DUP3 ADD SWAP2 JUMPDEST POP POP POP POP POP DUP2 MSTORE PUSH1 0x20 ADD PUSH1 0x2 DUP3 ADD SLOAD DUP2 MSTORE POP POP DUP3 PUSH1 0x1 DUP4 PUSH2 0x562 SWAP2 SWAP1 PUSH2 0x1020 JUMP JUMPDEST DUP2 MLOAD DUP2 LT PUSH2 0x573 JUMPI PUSH2 0x572 PUSH2 0x1053 JUMP JUMPDEST JUMPDEST PUSH1 0x20 MUL PUSH1 0x20 ADD ADD DUP2 SWAP1 MSTORE POP DUP1 DUP1 PUSH2 0x589 SWAP1 PUSH2 0xF7C JUMP JUMPDEST SWAP2 POP POP PUSH2 0x48C JUMP JUMPDEST POP DUP1 SWAP2 POP POP SWAP1 JUMP JUMPDEST PUSH1 0x4 SLOAD DUP2 JUMP JUMPDEST PUSH1 0x5 SLOAD DUP2 JUMP JUMPDEST PUSH1 0x3 SLOAD DUP2 JUMP JUMPDEST PUSH1 0x1 PUSH1 0x20 MSTORE DUP1 PUSH0 MSTORE PUSH1 0x40 PUSH0 KECCAK256 PUSH0 SWAP2 POP SWAP1 POP DUP1 PUSH0 ADD SLOAD SWAP1 DUP1 PUSH1 0x1 ADD DUP1 SLOAD PUSH2 0x5D0 SWAP1 PUSH2 0xFF0 JUMP JUMPDEST DUP1 PUSH1 0x1F ADD PUSH1 0x20 DUP1 SWAP2 DIV MUL PUSH1 0x20 ADD PUSH1 0x40 MLOAD SWAP1 DUP2 ADD PUSH1 0x40 MSTORE DUP1 SWAP3 SWAP2 SWAP1 DUP2 DUP2 MSTORE PUSH1 0x20 ADD DUP3 DUP1 SLOAD PUSH2 0x5FC SWAP1 PUSH2 0xFF0 JUMP JUMPDEST DUP1 ISZERO PUSH2 0x647 JUMPI DUP1 PUSH1 0x1F LT PUSH2 0x61E JUMPI PUSH2 0x100 DUP1 DUP4 SLOAD DIV MUL DUP4 MSTORE SWAP2 PUSH1 0x20 ADD SWAP2 PUSH2 0x647 JUMP JUMPDEST DUP3 ADD SWAP2 SWAP1 PUSH0 MSTORE PUSH1 0x20 PUSH0 KECCAK256 SWAP1 JUMPDEST DUP2 SLOAD DUP2 MSTORE SWAP1 PUSH1 0x1 ADD SWAP1 PUSH1 0x20 ADD DUP1 DUP4 GT PUSH2 0x62A JUMPI DUP3 SWAP1 SUB PUSH1 0x1F AND DUP3 ADD SWAP2 JUMPDEST POP POP POP POP POP SWAP1 DUP1 PUSH1 0x2 ADD SLOAD SWAP1 POP DUP4 JUMP JUMPDEST PUSH0 DUP1 SLOAD SWAP1 PUSH2 0x100 EXP SWAP1 DIV PUSH20 0xFFFFFFFFFFFFFFFFFFFFFFFFFFFFFFFFFFFFFFFF AND PUSH20 0xFFFFFFFFFFFFFFFFFFFFFFFFFFFFFFFFFFFFFFFF AND CALLER PUSH20 0xFFFFFFFFFFFFFFFFFFFFFFFFFFFFFFFFFFFFFFFF AND EQ PUSH2 0x6E4 JUMPI PUSH1 0x40 MLOAD PUSH32 0x8C379A000000000000000000000000000000000000000000000000000000000 DUP2 MSTORE PUSH1 0x4 ADD PUSH2 0x6DB SWAP1 PUSH2 0x10CA JUMP JUMPDEST PUSH1 0x40 MLOAD DUP1 SWAP2 SUB SWAP1 REVERT JUMPDEST PUSH1 0x3 PUSH0 DUP2 SLOAD DUP1 SWAP3 SWAP2 SWAP1 PUSH2 0x6F6 SWAP1 PUSH2 0xF7C JUMP JUMPDEST SWAP2 SWAP1 POP SSTORE POP PUSH1 0x40 MLOAD DUP1 PUSH1 0x60 ADD PUSH1 0x40 MSTORE DUP1 PUSH1 0x3 SLOAD DUP2 MSTORE PUSH1 0x20 ADD DUP3 DUP2 MSTORE PUSH1 0x20 ADD PUSH0 DUP2 MSTORE POP PUSH1 0x1 PUSH0 PUSH1 0x3 SLOAD DUP2 MSTORE PUSH1 0x20 ADD SWAP1 DUP2 MSTORE PUSH1 0x20 ADD PUSH0 KECCAK256 PUSH0 DUP3 ADD MLOAD DUP2 PUSH0 ADD SSTORE PUSH1 0x20 DUP3 ADD MLOAD DUP2 PUSH1 0x1 ADD SWAP1 DUP2 PUSH2 0x748 SWAP2 SWAP1 PUSH2 0x1285 JUMP JUMPDEST POP PUSH1 0x40 DUP3 ADD MLOAD DUP2 PUSH1 0x2 ADD SSTORE SWAP1 POP POP PUSH32 0xE83B2A43E7E82D975C8A0A6D2F045153C869E111136A34D1889AB7B598E396A3 PUSH1 0x3 SLOAD DUP3 PUSH1 0x40 MLOAD PUSH2 0x789 SWAP3 SWAP2 SWAP1 PUSH2 0x1354 JUMP JUMPDEST PUSH1 0x40 MLOAD DUP1 SWAP2 SUB SWAP1 LOG1 POP JUMP JUMPDEST PUSH0 DUP1 SLOAD SWAP1 PUSH2 0x100 EXP SWAP1 DIV PUSH20 0xFFFFFFFFFFFFFFFFFFFFFFFFFFFFFFFFFFFFFFFF AND DUP2 JUMP JUMPDEST PUSH1 0x2 PUSH1 0x20 MSTORE DUP1 PUSH0 MSTORE PUSH1 0x40 PUSH0 KECCAK256 PUSH0 SWAP2 POP SLOAD SWAP1 PUSH2 0x100 EXP SWAP1 DIV PUSH1 0xFF AND DUP2 JUMP JUMPDEST PUSH0 DUP1 SLOAD SWAP1 PUSH2 0x100 EXP SWAP1 DIV PUSH20 0xFFFFFFFFFFFFFFFFFFFFFFFFFFFFFFFFFFFFFFFF AND PUSH20 0xFFFFFFFFFFFFFFFFFFFFFFFFFFFFFFFFFFFFFFFF AND CALLER PUSH20 0xFFFFFFFFFFFFFFFFFFFFFFFFFFFFFFFFFFFFFFFF AND EQ PUSH2 0x861 JUMPI PUSH1 0x40 MLOAD PUSH32 0x8C379A000000000000000000000000000000000000000000000000000000000 DUP2 MSTORE PUSH1 0x4 ADD PUSH2 0x858 SWAP1 PUSH2 0x10CA JUMP JUMPDEST PUSH1 0x40 MLOAD DUP1 SWAP2 SUB SWAP1 REVERT JUMPDEST DUP1 TIMESTAMP PUSH2 0x86D SWAP2 SWAP1 PUSH2 0x1382 JUMP JUMPDEST PUSH1 0x5 DUP2 SWAP1 SSTORE POP POP JUMP JUMPDEST PUSH0 DUP1 DUP3 GT DUP1 ISZERO PUSH2 0x888 JUMPI POP PUSH1 0x3 SLOAD DUP3 GT ISZERO JUMPDEST PUSH2 0x8C7 JUMPI PUSH1 0x40 MLOAD PUSH32 0x8C379A000000000000000000000000000000000000000000000000000000000 DUP2 MSTORE PUSH1 0x4 ADD PUSH2 0x8BE SWAP1 PUSH2 0xF31 JUMP JUMPDEST PUSH1 0x40 MLOAD DUP1 SWAP2 SUB SWAP1 REVERT JUMPDEST PUSH1 0x1 PUSH0 DUP4 DUP2 MSTORE PUSH1 0x20 ADD SWAP1 DUP2 MSTORE PUSH1 0x20 ADD PUSH0 KECCAK256 PUSH1 0x2 ADD SLOAD SWAP1 POP SWAP2 SWAP1 POP JUMP JUMPDEST PUSH1 0x40 MLOAD DUP1 PUSH1 0x60 ADD PUSH1 0x40 MSTORE DUP1 PUSH0 DUP2 MSTORE PUSH1 0x20 ADD PUSH1 0x60 DUP2 MSTORE PUSH1 0x20 ADD PUSH0 DUP2 MSTORE POP SWAP1 JUMP JUMPDEST PUSH0 PUSH1 0x40 MLOAD SWAP1 POP SWAP1 JUMP JUMPDEST PUSH0 DUP1 REVERT JUMPDEST PUSH0 DUP1 REVERT JUMPDEST PUSH0 DUP2 SWAP1 POP SWAP2 SWAP1 POP JUMP JUMPDEST PUSH2 0x925 DUP2 PUSH2 0x913 JUMP JUMPDEST DUP2 EQ PUSH2 0x92F JUMPI PUSH0 DUP1 REVERT JUMPDEST POP JUMP JUMPDEST PUSH0 DUP2 CALLDATALOAD SWAP1 POP PUSH2 0x940 DUP2 PUSH2 0x91C JUMP JUMPDEST SWAP3 SWAP2 POP POP JUMP JUMPDEST PUSH0 PUSH1 0x20 DUP3 DUP5 SUB SLT ISZERO PUSH2 0x95B JUMPI PUSH2 0x95A PUSH2 0x90B JUMP JUMPDEST JUMPDEST PUSH0 PUSH2 0x968 DUP5 DUP3 DUP6 ADD PUSH2 0x932 JUMP JUMPDEST SWAP2 POP POP SWAP3 SWAP2 POP POP JUMP JUMPDEST PUSH0 DUP2 MLOAD SWAP1 POP SWAP2 SWAP1 POP JUMP JUMPDEST PUSH0 DUP3 DUP3 MSTORE PUSH1 0x20 DUP3 ADD SWAP1 POP SWAP3 SWAP2 POP POP JUMP JUMPDEST PUSH0 DUP2 SWAP1 POP PUSH1 0x20 DUP3 ADD SWAP1 POP SWAP2 SWAP1 POP JUMP JUMPDEST PUSH2 0x9A3 DUP2 PUSH2 0x913 JUMP JUMPDEST DUP3 MSTORE POP POP JUMP JUMPDEST PUSH0 DUP2 MLOAD SWAP1 POP SWAP2 SWAP1 POP JUMP JUMPDEST PUSH0 DUP3 DUP3 MSTORE PUSH1 0x20 DUP3 ADD SWAP1 POP SWAP3 SWAP2 POP POP JUMP JUMPDEST DUP3 DUP2 DUP4 MCOPY PUSH0 DUP4 DUP4 ADD MSTORE POP POP POP JUMP JUMPDEST PUSH0 PUSH1 0x1F NOT PUSH1 0x1F DUP4 ADD AND SWAP1 POP SWAP2 SWAP1 POP JUMP JUMPDEST PUSH0 PUSH2 0x9EB DUP3 PUSH2 0x9A9 JUMP JUMPDEST PUSH2 0x9F5 DUP2 DUP6 PUSH2 0x9B3 JUMP JUMPDEST SWAP4 POP PUSH2 0xA05 DUP2 DUP6 PUSH1 0x20 DUP7 ADD PUSH2 0x9C3 JUMP JUMPDEST PUSH2 0xA0E DUP2 PUSH2 0x9D1 JUMP JUMPDEST DUP5 ADD SWAP2 POP POP SWAP3 SWAP2 POP POP JUMP JUMPDEST PUSH0 PUSH1 0x60 DUP4 ADD PUSH0 DUP4 ADD MLOAD PUSH2 0xA2E PUSH0 DUP7 ADD DUP3 PUSH2 0x99A JUMP JUMPDEST POP PUSH1 0x20 DUP4 ADD MLOAD DUP5 DUP3 SUB PUSH1 0x20 DUP7 ADD MSTORE PUSH2 0xA46 DUP3 DUP3 PUSH2 0x9E1 JUMP JUMPDEST SWAP2 POP POP PUSH1 0x40 DUP4 ADD MLOAD PUSH2 0xA5B PUSH1 0x40 DUP7 ADD DUP3 PUSH2 0x99A JUMP JUMPDEST POP DUP1 SWAP2 POP POP SWAP3 SWAP2 POP POP JUMP JUMPDEST PUSH0 PUSH2 0xA71 DUP4 DUP4 PUSH2 0xA19 JUMP JUMPDEST SWAP1 POP SWAP3 SWAP2 POP POP JUMP JUMPDEST PUSH0 PUSH1 0x20 DUP3 ADD SWAP1 POP SWAP2 SWAP1 POP JUMP JUMPDEST PUSH0 PUSH2 0xA8F DUP3 PUSH2 0x971 JUMP JUMPDEST PUSH2 0xA99 DUP2 DUP6 PUSH2 0x97B JUMP JUMPDEST SWAP4 POP DUP4 PUSH1 0x20 DUP3 MUL DUP6 ADD PUSH2 0xAAB DUP6 PUSH2 0x98B JUMP JUMPDEST DUP1 PUSH0 JUMPDEST DUP6 DUP2 LT ISZERO PUSH2 0xAE6 JUMPI DUP5 DUP5 SUB DUP10 MSTORE DUP2 MLOAD PUSH2 0xAC7 DUP6 DUP3 PUSH2 0xA66 JUMP JUMPDEST SWAP5 POP PUSH2 0xAD2 DUP4 PUSH2 0xA79 JUMP JUMPDEST SWAP3 POP PUSH1 0x20 DUP11 ADD SWAP10 POP POP PUSH1 0x1 DUP2 ADD SWAP1 POP PUSH2 0xAAE JUMP JUMPDEST POP DUP3 SWAP8 POP DUP8 SWAP6 POP POP POP POP POP POP SWAP3 SWAP2 POP POP JUMP JUMPDEST PUSH0 PUSH1 0x20 DUP3 ADD SWAP1 POP DUP2 DUP2 SUB PUSH0 DUP4 ADD MSTORE PUSH2 0xB10 DUP2 DUP5 PUSH2 0xA85 JUMP JUMPDEST SWAP1 POP SWAP3 SWAP2 POP POP JUMP JUMPDEST PUSH2 0xB21 DUP2 PUSH2 0x913 JUMP JUMPDEST DUP3 MSTORE POP POP JUMP JUMPDEST PUSH0 PUSH1 0x20 DUP3 ADD SWAP1 POP PUSH2 0xB3A PUSH0 DUP4 ADD DUP5 PUSH2 0xB18 JUMP JUMPDEST SWAP3 SWAP2 POP POP JUMP JUMPDEST PUSH0 DUP3 DUP3 MSTORE PUSH1 0x20 DUP3 ADD SWAP1 POP SWAP3 SWAP2 POP POP JUMP JUMPDEST PUSH0 PUSH2 0xB5A DUP3 PUSH2 0x9A9 JUMP JUMPDEST PUSH2 0xB64 DUP2 DUP6 PUSH2 0xB40 JUMP JUMPDEST SWAP4 POP PUSH2 0xB74 DUP2 DUP6 PUSH1 0x20 DUP7 ADD PUSH2 0x9C3 JUMP JUMPDEST PUSH2 0xB7D DUP2 PUSH2 0x9D1 JUMP JUMPDEST DUP5 ADD SWAP2 POP POP SWAP3 SWAP2 POP POP JUMP JUMPDEST PUSH0 PUSH1 0x60 DUP3 ADD SWAP1 POP PUSH2 0xB9B PUSH0 DUP4 ADD DUP7 PUSH2 0xB18 JUMP JUMPDEST DUP2 DUP2 SUB PUSH1 0x20 DUP4 ADD MSTORE PUSH2 0xBAD DUP2 DUP6 PUSH2 0xB50 JUMP JUMPDEST SWAP1 POP PUSH2 0xBBC PUSH1 0x40 DUP4 ADD DUP5 PUSH2 0xB18 JUMP JUMPDEST SWAP5 SWAP4 POP POP POP POP JUMP JUMPDEST PUSH0 DUP1 REVERT JUMPDEST PUSH0 DUP1 REVERT JUMPDEST PUSH32 0x4E487B7100000000000000000000000000000000000000000000000000000000 PUSH0 MSTORE PUSH1 0x41 PUSH1 0x4 MSTORE PUSH1 0x24 PUSH0 REVERT JUMPDEST PUSH2 0xC02 DUP3 PUSH2 0x9D1 JUMP JUMPDEST DUP2 ADD DUP2 DUP2 LT PUSH8 0xFFFFFFFFFFFFFFFF DUP3 GT OR ISZERO PUSH2 0xC21 JUMPI PUSH2 0xC20 PUSH2 0xBCC JUMP JUMPDEST JUMPDEST DUP1 PUSH1 0x40 MSTORE POP POP POP JUMP JUMPDEST PUSH0 PUSH2 0xC33 PUSH2 0x902 JUMP JUMPDEST SWAP1 POP PUSH2 0xC3F DUP3 DUP3 PUSH2 0xBF9 JUMP JUMPDEST SWAP2 SWAP1 POP JUMP JUMPDEST PUSH0 PUSH8 0xFFFFFFFFFFFFFFFF DUP3 GT ISZERO PUSH2 0xC5E JUMPI PUSH2 0xC5D PUSH2 0xBCC JUMP JUMPDEST JUMPDEST PUSH2 0xC67 DUP3 PUSH2 0x9D1 JUMP JUMPDEST SWAP1 POP PUSH1 0x20 DUP2 ADD SWAP1 POP SWAP2 SWAP1 POP JUMP JUMPDEST DUP3 DUP2 DUP4 CALLDATACOPY PUSH0 DUP4 DUP4 ADD MSTORE POP POP POP JUMP JUMPDEST PUSH0 PUSH2 0xC94 PUSH2 0xC8F DUP5 PUSH2 0xC44 JUMP JUMPDEST PUSH2 0xC2A JUMP JUMPDEST SWAP1 POP DUP3 DUP2 MSTORE PUSH1 0x20 DUP2 ADD DUP5 DUP5 DUP5 ADD GT ISZERO PUSH2 0xCB0 JUMPI PUSH2 0xCAF PUSH2 0xBC8 JUMP JUMPDEST JUMPDEST PUSH2 0xCBB DUP5 DUP3 DUP6 PUSH2 0xC74 JUMP JUMPDEST POP SWAP4 SWAP3 POP POP POP JUMP JUMPDEST PUSH0 DUP3 PUSH1 0x1F DUP4 ADD SLT PUSH2 0xCD7 JUMPI PUSH2 0xCD6 PUSH2 0xBC4 JUMP JUMPDEST JUMPDEST DUP2 CALLDATALOAD PUSH2 0xCE7 DUP5 DUP3 PUSH1 0x20 DUP7 ADD PUSH2 0xC82 JUMP JUMPDEST SWAP2 POP POP SWAP3 SWAP2 POP POP JUMP JUMPDEST PUSH0 PUSH1 0x20 DUP3 DUP5 SUB SLT ISZERO PUSH2 0xD05 JUMPI PUSH2 0xD04 PUSH2 0x90B JUMP JUMPDEST JUMPDEST PUSH0 DUP3 ADD CALLDATALOAD PUSH8 0xFFFFFFFFFFFFFFFF DUP2 GT ISZERO PUSH2 0xD22 JUMPI PUSH2 0xD21 PUSH2 0x90F JUMP JUMPDEST JUMPDEST PUSH2 0xD2E DUP5 DUP3 DUP6 ADD PUSH2 0xCC3 JUMP JUMPDEST SWAP2 POP POP SWAP3 SWAP2 POP POP JUMP JUMPDEST PUSH0 PUSH20 0xFFFFFFFFFFFFFFFFFFFFFFFFFFFFFFFFFFFFFFFF DUP3 AND SWAP1 POP SWAP2 SWAP1 POP JUMP JUMPDEST PUSH0 PUSH2 0xD60 DUP3 PUSH2 0xD37 JUMP JUMPDEST SWAP1 POP SWAP2 SWAP1 POP JUMP JUMPDEST PUSH2 0xD70 DUP2 PUSH2 0xD56 JUMP JUMPDEST DUP3 MSTORE POP POP JUMP JUMPDEST PUSH0 PUSH1 0x20 DUP3 ADD SWAP1 POP PUSH2 0xD89 PUSH0 DUP4 ADD DUP5 PUSH2 0xD67 JUMP JUMPDEST SWAP3 SWAP2 POP POP JUMP JUMPDEST PUSH2 0xD98 DUP2 PUSH2 0xD56 JUMP JUMPDEST DUP2 EQ PUSH2 0xDA2 JUMPI PUSH0 DUP1 REVERT JUMPDEST POP JUMP JUMPDEST PUSH0 DUP2 CALLDATALOAD SWAP1 POP PUSH2 0xDB3 DUP2 PUSH2 0xD8F JUMP JUMPDEST SWAP3 SWAP2 POP POP JUMP JUMPDEST PUSH0 PUSH1 0x20 DUP3 DUP5 SUB SLT ISZERO PUSH2 0xDCE JUMPI PUSH2 0xDCD PUSH2 0x90B JUMP JUMPDEST JUMPDEST PUSH0 PUSH2 0xDDB DUP5 DUP3 DUP6 ADD PUSH2 0xDA5 JUMP JUMPDEST SWAP2 POP POP SWAP3 SWAP2 POP POP JUMP JUMPDEST PUSH0 DUP2 ISZERO ISZERO SWAP1 POP SWAP2 SWAP1 POP JUMP JUMPDEST PUSH2 0xDF8 DUP2 PUSH2 0xDE4 JUMP JUMPDEST DUP3 MSTORE POP POP JUMP JUMPDEST PUSH0 PUSH1 0x20 DUP3 ADD SWAP1 POP PUSH2 0xE11 PUSH0 DUP4 ADD DUP5 PUSH2 0xDEF JUMP JUMPDEST SWAP3 SWAP2 POP POP JUMP JUMPDEST PUSH32 0x566F74696E6720706572696F642068617320656E6465642E0000000000000000 PUSH0 DUP3 ADD MSTORE POP JUMP JUMPDEST PUSH0 PUSH2 0xE4B PUSH1 0x18 DUP4 PUSH2 0xB40 JUMP JUMPDEST SWAP2 POP PUSH2 0xE56 DUP3 PUSH2 0xE17 JUMP JUMPDEST PUSH1 0x20 DUP3 ADD SWAP1 POP SWAP2 SWAP1 POP JUMP JUMPDEST PUSH0 PUSH1 0x20 DUP3 ADD SWAP1 POP DUP2 DUP2 SUB PUSH0 DUP4 ADD MSTORE PUSH2 0xE78 DUP2 PUSH2 0xE3F JUMP JUMPDEST SWAP1 POP SWAP2 SWAP1 POP JUMP JUMPDEST PUSH32 0x596F75206861766520616C726561647920766F7465642E000000000000000000 PUSH0 DUP3 ADD MSTORE POP JUMP JUMPDEST PUSH0 PUSH2 0xEB3 PUSH1 0x17 DUP4 PUSH2 0xB40 JUMP JUMPDEST SWAP2 POP PUSH2 0xEBE DUP3 PUSH2 0xE7F JUMP JUMPDEST PUSH1 0x20 DUP3 ADD SWAP1 POP SWAP2 SWAP1 POP JUMP JUMPDEST PUSH0 PUSH1 0x20 DUP3 ADD SWAP1 POP DUP2 DUP2 SUB PUSH0 DUP4 ADD MSTORE PUSH2 0xEE0 DUP2 PUSH2 0xEA7 JUMP JUMPDEST SWAP1 POP SWAP2 SWAP1 POP JUMP JUMPDEST PUSH32 0x496E76616C69642063616E6469646174652049442E0000000000000000000000 PUSH0 DUP3 ADD MSTORE POP JUMP JUMPDEST PUSH0 PUSH2 0xF1B PUSH1 0x15 DUP4 PUSH2 0xB40 JUMP JUMPDEST SWAP2 POP PUSH2 0xF26 DUP3 PUSH2 0xEE7 JUMP JUMPDEST PUSH1 0x20 DUP3 ADD SWAP1 POP SWAP2 SWAP1 POP JUMP JUMPDEST PUSH0 PUSH1 0x20 DUP3 ADD SWAP1 POP DUP2 DUP2 SUB PUSH0 DUP4 ADD MSTORE PUSH2 0xF48 DUP2 PUSH2 0xF0F JUMP JUMPDEST SWAP1 POP SWAP2 SWAP1 POP JUMP JUMPDEST PUSH32 0x4E487B7100000000000000000000000000000000000000000000000000000000 PUSH0 MSTORE PUSH1 0x11 PUSH1 0x4 MSTORE PUSH1 0x24 PUSH0 REVERT JUMPDEST PUSH0 PUSH2 0xF86 DUP3 PUSH2 0x913 JUMP JUMPDEST SWAP2 POP PUSH32 0xFFFFFFFFFFFFFFFFFFFFFFFFFFFFFFFFFFFFFFFFFFFFFFFFFFFFFFFFFFFFFFFF DUP3 SUB PUSH2 0xFB8 JUMPI PUSH2 0xFB7 PUSH2 0xF4F JUMP JUMPDEST JUMPDEST PUSH1 0x1 DUP3 ADD SWAP1 POP SWAP2 SWAP1 POP JUMP JUMPDEST PUSH32 0x4E487B7100000000000000000000000000000000000000000000000000000000 PUSH0 MSTORE PUSH1 0x22 PUSH1 0x4 MSTORE PUSH1 0x24 PUSH0 REVERT JUMPDEST PUSH0 PUSH1 0x2 DUP3 DIV SWAP1 POP PUSH1 0x1 DUP3 AND DUP1 PUSH2 0x1007 JUMPI PUSH1 0x7F DUP3 AND SWAP2 POP JUMPDEST PUSH1 0x20 DUP3 LT DUP2 SUB PUSH2 0x101A JUMPI PUSH2 0x1019 PUSH2 0xFC3 JUMP JUMPDEST JUMPDEST POP SWAP2 SWAP1 POP JUMP JUMPDEST PUSH0 PUSH2 0x102A DUP3 PUSH2 0x913 JUMP JUMPDEST SWAP2 POP PUSH2 0x1035 DUP4 PUSH2 0x913 JUMP JUMPDEST SWAP3 POP DUP3 DUP3 SUB SWAP1 POP DUP2 DUP2 GT ISZERO PUSH2 0x104D JUMPI PUSH2 0x104C PUSH2 0xF4F JUMP JUMPDEST JUMPDEST SWAP3 SWAP2 POP POP JUMP JUMPDEST PUSH32 0x4E487B7100000000000000000000000000000000000000000000000000000000 PUSH0 MSTORE PUSH1 0x32 PUSH1 0x4 MSTORE PUSH1 0x24 PUSH0 REVERT JUMPDEST PUSH32 0x596F7520617265206E6F7420746865206F776E65720000000000000000000000 PUSH0 DUP3 ADD MSTORE POP JUMP JUMPDEST PUSH0 PUSH2 0x10B4 PUSH1 0x15 DUP4 PUSH2 0xB40 JUMP JUMPDEST SWAP2 POP PUSH2 0x10BF DUP3 PUSH2 0x1080 JUMP JUMPDEST PUSH1 0x20 DUP3 ADD SWAP1 POP SWAP2 SWAP1 POP JUMP JUMPDEST PUSH0 PUSH1 0x20 DUP3 ADD SWAP1 POP DUP2 DUP2 SUB PUSH0 DUP4 ADD MSTORE PUSH2 0x10E1 DUP2 PUSH2 0x10A8 JUMP JUMPDEST SWAP1 POP SWAP2 SWAP1 POP JUMP JUMPDEST PUSH0 DUP2 SWAP1 POP DUP2 PUSH0 MSTORE PUSH1 0x20 PUSH0 KECCAK256 SWAP1 POP SWAP2 SWAP1 POP JUMP JUMPDEST PUSH0 PUSH1 0x20 PUSH1 0x1F DUP4 ADD DIV SWAP1 POP SWAP2 SWAP1 POP JUMP JUMPDEST PUSH0 DUP3 DUP3 SHL SWAP1 POP SWAP3 SWAP2 POP POP JUMP JUMPDEST PUSH0 PUSH1 0x8 DUP4 MUL PUSH2 0x1144 PUSH32 0xFFFFFFFFFFFFFFFFFFFFFFFFFFFFFFFFFFFFFFFFFFFFFFFFFFFFFFFFFFFFFFFF DUP3 PUSH2 0x1109 JUMP JUMPDEST PUSH2 0x114E DUP7 DUP4 PUSH2 0x1109 JUMP JUMPDEST SWAP6 POP DUP1 NOT DUP5 AND SWAP4 POP DUP1 DUP7 AND DUP5 OR SWAP3 POP POP POP SWAP4 SWAP3 POP POP POP JUMP JUMPDEST PUSH0 DUP2 SWAP1 POP SWAP2 SWAP1 POP JUMP JUMPDEST PUSH0 PUSH2 0x1189 PUSH2 0x1184 PUSH2 0x117F DUP5 PUSH2 0x913 JUMP JUMPDEST PUSH2 0x1166 JUMP JUMPDEST PUSH2 0x913 JUMP JUMPDEST SWAP1 POP SWAP2 SWAP1 POP JUMP JUMPDEST PUSH0 DUP2 SWAP1 POP SWAP2 SWAP1 POP JUMP JUMPDEST PUSH2 0x11A2 DUP4 PUSH2 0x116F JUMP JUMPDEST PUSH2 0x11B6 PUSH2 0x11AE DUP3 PUSH2 0x1190 JUMP JUMPDEST DUP5 DUP5 SLOAD PUSH2 0x1115 JUMP JUMPDEST DUP3 SSTORE POP POP POP POP JUMP JUMPDEST PUSH0 SWAP1 JUMP JUMPDEST PUSH2 0x11CA PUSH2 0x11BE JUMP JUMPDEST PUSH2 0x11D5 DUP2 DUP5 DUP5 PUSH2 0x1199 JUMP JUMPDEST POP POP POP JUMP JUMPDEST JUMPDEST DUP2 DUP2 LT ISZERO PUSH2 0x11F8 JUMPI PUSH2 0x11ED PUSH0 DUP3 PUSH2 0x11C2 JUMP JUMPDEST PUSH1 0x1 DUP2 ADD SWAP1 POP PUSH2 0x11DB JUMP JUMPDEST POP POP JUMP JUMPDEST PUSH1 0x1F DUP3 GT ISZERO PUSH2 0x123D JUMPI PUSH2 0x120E DUP2 PUSH2 0x10E8 JUMP JUMPDEST PUSH2 0x1217 DUP5 PUSH2 0x10FA JUMP JUMPDEST DUP2 ADD PUSH1 0x20 DUP6 LT ISZERO PUSH2 0x1226 JUMPI DUP2 SWAP1 POP JUMPDEST PUSH2 0x123A PUSH2 0x1232 DUP6 PUSH2 0x10FA JUMP JUMPDEST DUP4 ADD DUP3 PUSH2 0x11DA JUMP JUMPDEST POP POP JUMPDEST POP POP POP JUMP JUMPDEST PUSH0 DUP3 DUP3 SHR SWAP1 POP SWAP3 SWAP2 POP POP JUMP JUMPDEST PUSH0 PUSH2 0x125D PUSH0 NOT DUP5 PUSH1 0x8 MUL PUSH2 0x1242 JUMP JUMPDEST NOT DUP1 DUP4 AND SWAP2 POP POP SWAP3 SWAP2 POP POP JUMP JUMPDEST PUSH0 PUSH2 0x1275 DUP4 DUP4 PUSH2 0x124E JUMP JUMPDEST SWAP2 POP DUP3 PUSH1 0x2 MUL DUP3 OR SWAP1 POP SWAP3 SWAP2 POP POP JUMP JUMPDEST PUSH2 0x128E DUP3 PUSH2 0x9A9 JUMP JUMPDEST PUSH8 0xFFFFFFFFFFFFFFFF DUP2 GT ISZERO PUSH2 0x12A7 JUMPI PUSH2 0x12A6 PUSH2 0xBCC JUMP JUMPDEST JUMPDEST PUSH2 0x12B1 DUP3 SLOAD PUSH2 0xFF0 JUMP JUMPDEST PUSH2 0x12BC DUP3 DUP3 DUP6 PUSH2 0x11FC JUMP JUMPDEST PUSH0 PUSH1 0x20 SWAP1 POP PUSH1 0x1F DUP4 GT PUSH1 0x1 DUP2 EQ PUSH2 0x12ED JUMPI PUSH0 DUP5 ISZERO PUSH2 0x12DB JUMPI DUP3 DUP8 ADD MLOAD SWAP1 POP JUMPDEST PUSH2 0x12E5 DUP6 DUP3 PUSH2 0x126A JUMP JUMPDEST DUP7 SSTORE POP PUSH2 0x134C JUMP JUMPDEST PUSH1 0x1F NOT DUP5 AND PUSH2 0x12FB DUP7 PUSH2 0x10E8 JUMP JUMPDEST PUSH0 JUMPDEST DUP3 DUP2 LT ISZERO PUSH2 0x1322 JUMPI DUP5 DUP10 ADD MLOAD DUP3 SSTORE PUSH1 0x1 DUP3 ADD SWAP2 POP PUSH1 0x20 DUP6 ADD SWAP5 POP PUSH1 0x20 DUP2 ADD SWAP1 POP PUSH2 0x12FD JUMP JUMPDEST DUP7 DUP4 LT ISZERO PUSH2 0x133F JUMPI DUP5 DUP10 ADD MLOAD PUSH2 0x133B PUSH1 0x1F DUP10 AND DUP3 PUSH2 0x124E JUMP JUMPDEST DUP4 SSTORE POP JUMPDEST PUSH1 0x1 PUSH1 0x2 DUP9 MUL ADD DUP9 SSTORE POP POP POP JUMPDEST POP POP POP POP POP POP JUMP JUMPDEST PUSH0 PUSH1 0x40 DUP3 ADD SWAP1 POP PUSH2 0x1367 PUSH0 DUP4 ADD DUP6 PUSH2 0xB18 JUMP JUMPDEST DUP2 DUP2 SUB PUSH1 0x20 DUP4 ADD MSTORE PUSH2 0x1379 DUP2 DUP5 PUSH2 0xB50 JUMP JUMPDEST SWAP1 POP SWAP4 SWAP3 POP POP POP JUMP JUMPDEST PUSH0 PUSH2 0x138C DUP3 PUSH2 0x913 JUMP JUMPDEST SWAP2 POP PUSH2 0x1397 DUP4 PUSH2 0x913 JUMP JUMPDEST SWAP3 POP DUP3 DUP3 ADD SWAP1 POP DUP1 DUP3 GT ISZERO PUSH2 0x13AF JUMPI PUSH2 0x13AE PUSH2 0xF4F JUMP JUMPDEST JUMPDEST SWAP3 SWAP2 POP POP JUMP INVALID LOG2 PUSH5 0x6970667358 0x22 SLT KECCAK256 SIGNEXTEND PUSH25 0xA14346F7395C2C109B65A034A3163B190B92E37CCFC5EAE01F 0xE1 LOG3 0xCA CREATE2 SDIV PUSH5 0x736F6C6343 STOP ADDMOD BYTE STOP CALLER "
				},
				"gasEstimates": {
					"creation": {
						"codeDepositCost": "1019800",
						"executionCost": "35350",
						"totalCost": "1055150"
					},
					"external": {
						"addCandidate(string)": "infinite",
						"candidates(uint256)": "infinite",
						"candidatesCount()": "2514",
						"getCandidates()": "infinite",
						"getVotes(uint256)": "infinite",
						"owner()": "2549",
						"setVotingPeriod(uint256)": "infinite",
						"totalVotes()": "2470",
						"vote(uint256)": "infinite",
						"voters(address)": "2899",
						"votingEndTime()": "2492"
					}
				},
				"methodIdentifiers": {
					"addCandidate(string)": "462e91ec",
					"candidates(uint256)": "3477ee2e",
					"candidatesCount()": "2d35a8a2",
					"getCandidates()": "06a49fce",
					"getVotes(uint256)": "ff981099",
					"owner()": "8da5cb5b",
					"setVotingPeriod(uint256)": "ea0217cf",
					"totalVotes()": "0d15fd77",
					"vote(uint256)": "0121b93f",
					"voters(address)": "a3ec138d",
					"votingEndTime()": "1ea736e0"
				}
			},
			"storageLayout": {
				"storage": [
					{
						"astId": 10,
						"contract": "contracts/Voting.sol:Voting",
						"label": "owner",
						"offset": 0,
						"slot": "0",
						"type": "t_address"
					},
					{
						"astId": 15,
						"contract": "contracts/Voting.sol:Voting",
						"label": "candidates",
						"offset": 0,
						"slot": "1",
						"type": "t_mapping(t_uint256,t_struct(Candidate)8_storage)"
					},
					{
						"astId": 19,
						"contract": "contracts/Voting.sol:Voting",
						"label": "voters",
						"offset": 0,
						"slot": "2",
						"type": "t_mapping(t_address,t_bool)"
					},
					{
						"astId": 21,
						"contract": "contracts/Voting.sol:Voting",
						"label": "candidatesCount",
						"offset": 0,
						"slot": "3",
						"type": "t_uint256"
					},
					{
						"astId": 23,
						"contract": "contracts/Voting.sol:Voting",
						"label": "totalVotes",
						"offset": 0,
						"slot": "4",
						"type": "t_uint256"
					},
					{
						"astId": 25,
						"contract": "contracts/Voting.sol:Voting",
						"label": "votingEndTime",
						"offset": 0,
						"slot": "5",
						"type": "t_uint256"
					}
				],
				"types": {
					"t_address": {
						"encoding": "inplace",
						"label": "address",
						"numberOfBytes": "20"
					},
					"t_bool": {
						"encoding": "inplace",
						"label": "bool",
						"numberOfBytes": "1"
					},
					"t_mapping(t_address,t_bool)": {
						"encoding": "mapping",
						"key": "t_address",
						"label": "mapping(address => bool)",
						"numberOfBytes": "32",
						"value": "t_bool"
					},
					"t_mapping(t_uint256,t_struct(Candidate)8_storage)": {
						"encoding": "mapping",
						"key": "t_uint256",
						"label": "mapping(uint256 => struct Voting.Candidate)",
						"numberOfBytes": "32",
						"value": "t_struct(Candidate)8_storage"
					},
					"t_string_storage": {
						"encoding": "bytes",
						"label": "string",
						"numberOfBytes": "32"
					},
					"t_struct(Candidate)8_storage": {
						"encoding": "inplace",
						"label": "struct Voting.Candidate",
						"members": [
							{
								"astId": 3,
								"contract": "contracts/Voting.sol:Voting",
								"label": "id",
								"offset": 0,
								"slot": "0",
								"type": "t_uint256"
							},
							{
								"astId": 5,
								"contract": "contracts/Voting.sol:Voting",
								"label": "name",
								"offset": 0,
								"slot": "1",
								"type": "t_string_storage"
							},
							{
								"astId": 7,
								"contract": "contracts/Voting.sol:Voting",
								"label": "voteCount",
								"offset": 0,
								"slot": "2",
								"type": "t_uint256"
							}
						],
						"numberOfBytes": "96"
					},
					"t_uint256": {
						"encoding": "inplace",
						"label": "uint256",
						"numberOfBytes": "32"
					}
				}
			},
			"userdoc": {
				"kind": "user",
				"methods": {},
				"version": 1
			}
		}
	}
}